:020000040800F2
:10000000E8070020D5010008BF180008B71800084D
:10001000BB180008B9040008691B000800000000B4
:10002000000000000000000000000000F1180008BF
:10003000BD04000800000000EB010008ED0100080D
:10004000EF010008C1180008EF010008EF010008E7
:10005000EF010008EF010008BF040008EF010008ED
:10006000EF010008EF010008EF010008EF010008B0
:10007000EF010008EF010008EF010008EF010008A0
:10008000EF010008EF010008EF010008EF01000890
:10009000EF010008EF010008EF010008EF01000880
:1000A000EF010008EF010008EF010008EF01000870
:1000B000EF010008EF010008EF010008EF01000860
:1000C000EF010008EF010008EF010008EF01000850
:1000D000EF010008451B0008EF010008EF010008D0
:1000E000EF010008EF010008EF010008EF01000830
:1000F000EF010008EF010008EF010008EF01000820
:10010000EF010008EF010008EF010008EF0100080F
:10011000EF010008EF010008EF010008EF010008FF
:10012000EF010008EF010008EF010008EF010008EF
:1001300000F002F800F03FF80AA090E8000C8244BA
:100140008344AAF10107DA4501D100F034F8AFF297
:10015000090EBAE80F0013F0010F18BFFB1A43F0A5
:10016000010318472080000040800000103A24BF9F
:1001700078C878C1FAD8520724BF30C830C144BF0C
:1001800004680C607047000000230024002500264E
:10019000103A28BF78C1FBD8520728BF30C148BFEA
:1001A0000B607047782900F07780002070471FB5FA
:1001B0001FBD10B510BD00F04DF91146FFF7F7FF58
:1001C00004F08EFD00F06BF903B4FFF7F2FF03BCFF
:1001D00001F0E8FC0948804709480047FEE7FEE7D0
:1001E000FEE7FEE7FEE7FEE7FEE7FEE7FEE7FEE7E7
:1001F00004480549054A064B70470000F3180008FB
:1002000031010008E8010020E8070020E803002091
:10021000E8030020704700000FB4044910B503AA9A
:10022000029800F0E9F810BC5DF814FB080000200B
:100230002DE9F0410E460446002020622046E16888
:10024000884730B3252805D0D4E901219047206A9A
:10025000401CF2E7E168204600278847050018D0D7
:10026000A5F14100192802D820354FF40067324625
:10027000294620462760FFF795FF40B1012804D0AA
:10028000F61D26F007060836D8E7361DD6E72846BD
:10029000DAE7206ABDE8F08170B504460D462146D4
:1002A0001068AFF300802188090502D50F4A7A440F
:1002B00002E00E4A7A440E32002104F1240305E0E4
:1002C00000F00F060009965D5E54491C0028F7D126
:1002D00020780023000704D5702D02D009B1022335
:1002E00011322046BDE8704000F02DB8AA7E000013
:1002F0004FF0000200B5134694469646203922BFBF
:10030000A0E80C50A0E80C50B1F12001BFF4F7AF09
:10031000090728BFA0E80C5048BF0CC05DF804EBEB
:10032000890028BF40F8042B08BF704748BF20F859
:10033000022B11F0804F18BF00F8012B7047704757
:100340007047704770472DE9F0470D469946924631
:10035000044600F124080168880604D5E06921F00C
:100360001001216000E00120A84201DD471B00E0F0
:100370000027A1697A1902EB0900081AA061207808
:10038000C00602D42046AFF30080002608E0D4E97E
:1003900001211AF806009047206A401C761C206252
:1003A0004E45F4DB2078C0060AD52046AFF3008026
:1003B00006E0D4E9012130209047206A401C2062E9
:1003C000381EA7F10107F4DC07E0D4E9012118F891
:1003D00005009047206A401C2062281EA5F10105F7
:1003E000F3DC2046AFF300802078000602D502201F
:1003F000BDE8F0870120FBE7074B70B50D467B4455
:1004000000F011F80446284600F020F810B14FF033
:10041000FF3070BD204670BD5318000001694A1CB2
:1004200002610878704700B58FB0CDE90131002135
:10043000059105497944CDE9031011466846FFF757
:10044000F7FE0FB000BD0000E5FFFFFF007B00F0EE
:1004500080007047754600F02BF8AE4605006946EF
:10046000534620F00700854618B020B5FFF7C0FEC0
:10047000BDE820404FF000064FF000074FF00008A5
:100480004FF0000B21F00701AC46ACE8C009ACE826
:10049000C009ACE8C009ACE8C0098D46704710B58A
:1004A0000446AFF300802046BDE81040FFF78CBE45
:1004B000004870478401002000BFFEE7704710B578
:1004C000012000F057F910BD70B50446B3F5804F18
:1004D00013D1D1E9000540EA05108D6840EA0520F6
:1004E0008D6928438D8940EA054054F82250064E14
:1004F0003540284344F8220003E06FF0704044F890
:100500002200002070BD00000000F0CF70B5024650
:10051000086852F8200020F001000E6842F826001A
:100520008868082801D1402300E000234868184368
:100530008E683043CE6830430E6930434E69304395
:10054000CE6930430E6A30434E6A30438E6A304380
:10055000CE6A30430E6B40EA060488690443486B58
:100560000443074D45F4806545F4E025086852F8DA
:100570002000A84320430E6842F82600002070BDEA
:100580007FFB080010B50346D1E9000440EA0410DF
:100590008C6840EA04208C8940EA0444088A401EA2
:1005A00044EA0054087D801E44EA00608C692043C0
:1005B000541C53F8244004F040442043541C43F896
:1005C0002400002010BD000070B50446002594F8FA
:1005D0002100022803D00420A0630125C1E0206887
:1005E000006820F00E00216808602068006820F094
:1005F0000100216808605C492068884252D95A4944
:1006000078392068884201D1012047E05649643991
:100610002068884201D1102040E0534950392068B9
:10062000884201D1801539E04F493C392068884221
:1006300001D1801432E04C4928392068884202D127
:100640004FF480302AE0484914392068884202D1AA
:100650004FF4801022E044492068884201D14004D0
:100660001CE042492068884201D1012016E03F4940
:1006700014312068884201D110200FE03B49283115
:100680002068884201D1801508E038493C31206853
:10069000884201D1801401E04FF480303349091FB2
:1006A000086051E0304978392068884201D1012042
:1006B00047E02D4964392068884201D1102040E08C
:1006C000294950392068884201D1801539E02649EE
:1006D0003C392068884201D1801432E0224928390F
:1006E0002068884202D14FF480302AE01E49143934
:1006F0002068884202D14FF4801022E01A49206815
:10070000884201D140041CE018492068884201D188
:10071000012016E0154914312068884201D11020CB
:100720000FE0124928312068884201D1801508E085
:100730000E493C312068884201D1801401E04FF419
:100740008030094980394860012084F8210000BFC9
:10075000002084F8200000BF606B10B12046616B60
:100760008847284670BD000080000240080402400F
:100770007047000010B5044604480068204020B1CE
:10078000024804602046FFF7F3FF10BD1404014047
:100790002DE9F847024600239C467BE14FF0010813
:1007A00008FA03F4D1F8008008EA0400A0427DD1E1
:1007B000DFF8F4A2D1F80480A8EB0A09D0453AD0BA
:1007C00014DCB8F1030F50D009DCB8F1000F31D0C0
:1007D000B8F1010F1CD0B8F1020F49D120E0B8F1F7
:1007E000110F18D0B8F1120F42D11EE0B9F5881FD1
:1007F00025D006DCB9F5803F20D0B9F5801F37D170
:100800001AE0B9F5001F18D0B9F5041F30D117E070
:10081000D1F80CC02DE0D1F80C8008F1040C28E0D0
:10082000D1F80C8008F1080C23E0D1F80C8008F115
:100830000C0C1EE000BF00BF00BF00BF00BF00BF28
:10084000D1F80880B8F1000F02D14FF0040C0BE092
:10085000D1F80880B8F1010F03D14FF0080C1461F2
:1008600002E04FF0080C546103E04FF0000C00E090
:1008700000BF00BFFF2801D8904601E002F1040844
:100880004646FF2802D84FEA830803E0A3F1080890
:100890004FEA88084746D6F800804FF00F0909FA5A
:1008A00007F928EA09080CFA07F900E07AE048EAB3
:1008B0000908C6F80080D1F8048008F08058B8F123
:1008C000805F6FD100BFDFF8E481D8F8188048F06E
:1008D0000108DFF8D891C9F81880C846D8F8188000
:1008E00008F00108CDF8008000BF00BF4FEAB9381A
:1008F0004FEA930958F829504FEA83784FEA18795C
:100900004FF00F0808FA09F825EA0805DFF8A0817A
:10091000424502D14FF0000824E0DFF898814245BB
:1009200002D14FF001081DE0DFF88C81424502D171
:100930004FF0020816E0DFF88481424502D14FF003
:1009400003080FE0DFF87881424502D14FF0040838
:1009500008E0DFF87081424502D14FF0050801E060
:100960004FF006084FEA83794FEA197908FA09F837
:1009700048EA0505DFF850814FEA930948F8295005
:10098000D1F8048008F48038B8F5803F0BD1DFF847
:100990003C81D8F8008048EA0008DFF83091C9F8B7
:1009A00000800AE075E0DFF82481D8F8008028EAAA
:1009B0000008DFF81891C9F80080D1F8048008F425
:1009C0000038B8F5003F0ED1DFF8008108F10408C7
:1009D000D8F8008048EA0008DFF8F09009F104092F
:1009E000C9F800800DE0DFF8E48008F10408D8F8C9
:1009F000008028EA0008DFF8D49009F10409C9F85A
:100A00000080D1F8048008F48018B8F5801F0ED15A
:100A1000DFF8B88008F10808D8F8008048EA000834
:100A2000DFF8A89009F10809C9F800800DE0DFF8A7
:100A30009C8008F10808D8F8008028EA0008DFF850
:100A40008C9009F10809C9F80080D1F8048008F4F5
:100A50000018B8F5001F0ED1DFF8708008F10C08FF
:100A6000D8F8008048EA0008DFF8609009F10C0926
:100A7000C9F800800DE0DFF8548008F10C08D8F8C0
:100A8000008028EA0008DFF8449009F10C09C9F851
:100A900000805B1CD1F8008028FA03F8B8F1000F41
:100AA0007FF47CAEBDE8F887000011100010024012
:100AB00000080140000C01400010014000140140FA
:100AC00000180140001C01400800014000040140E2
:100AD000024693680B400BB1012000E000207047F4
:100AE00010B5C26821EA020302EA010443EA0443A2
:100AF000036110BD0AB1016101E00B04036170479D
:100B000001480068704700001000002010B5084838
:100B1000006840F0100006490860052000F080F8E9
:100B20000F2000F007F800F02BF8002010BD0000A7
:100B30000020024070B504460E4800784FF47A71E8
:100B4000B1FBF0F00C490968B1FBF0F5284600F064
:100B5000DBFC08B1012070BD102C07D20022214619
:100B6000501E00F01EF80548046001E00120F2E785
:100B70000020F0E7180000200000002014000020F2
:100B8000704701460846002809DB00F01F030122D8
:100B90009A4043099B0003F1E023C3F8002100BF02
:100BA00070472DE9F05F80460D461646002700F09D
:100BB000DDFF074639462A46334601F00700C0F1FB
:100BC000070ABAF1040F02D94FF0040A01E0C0F19C
:100BD000070AD14600F1040ABAF1070F02D24FF01A
:100BE000000A01E0A0F1030AD4464FF0010A0AFA14
:100BF00009FAAAF1010A0AEA020A0AFA0CFA4FF003
:100C0000010B0BFA0CFBABF1010B0BEA030B4AEAED
:100C10000B042146404600F0B1FFBDE8F09F000004
:100C200000BF00F00702064B19684FF6FF0319409A
:100C3000044B0B4343EA0221014B196000BF70478C
:100C40000CED00E00000FA05064A126822F00402EA
:100C5000044B1A60012901D130BF02E040BF20BF20
:100C600020BF704710ED00E00EB51748406800F057
:100C70000400042813D14FF4784014A11022134625
:100C8000CDE900210290C8226E211E2003F056FFFC
:100C900000BF002220211248FFF72CFF12E01F2086
:100CA00010A110221346CDE900210290C8226E2126
:100CB0001E2003F043FF00BF012220210848FFF758
:100CC00019FF00BF0EBD00000070004050564420C8
:100CD0004C6F7720566F6C746167652100000000CF
:100CE0000018014050564420566F6C7461676520AF
:100CF0004F4B21200000000010B50648006800F4AA
:100D0000803028B1FFF7B0FF4FF480300149086010
:100D100010BD00001404014070B504460D460CB926
:100D2000012070BD5A48006800F00700A8420ED2AA
:100D30005748006820F007002843554908600846D6
:100D4000006800F00700A84201D00120E9E7207800
:100D500000F0020002281DD1207800F004000428D1
:100D600005D14C48406840F4E0604A49486020782A
:100D700000F00800082805D14648406840F460505B
:100D8000444948604348406820F0F000A1680843A7
:100D900040494860207800F0010078B3606801287D
:100DA00006D13C48006800F4003090B90120B8E753
:100DB0006068022806D13748006800F0007040B92A
:100DC0000120AEE73348006800F0020008B90120B6
:100DD000A7E73048406820F00300616808432D49C8
:100DE0004860FFF78DFE064609E0FFF789FE801B8D
:100DF00041F28831884202D9032092E707E0254872
:100E0000406800F00C006168B0EB810FEDD1204824
:100E1000006800F00700A8420ED91D48006820F0C5
:100E2000070028431A4908600846006800F00700D8
:100E3000A84201D0012074E7207800F004000428C3
:100E400007D11448406820F4E060E1680843114984
:100E50004860207800F00800082808D10D48406854
:100E600020F46050216940EAC1000A49486000F05E
:100E70003FF808494968C1F30311074A515CC8406B
:100E80000649086006480068FFF754FE002048E75E
:100E90000020024000100240C45100080000002061
:100EA0001400002001480068704700000000002086
:100EB00000B5FFF7F7FF04494968C1F30221034A6F
:100EC000515CC84000BD000000100240D451000831
:100ED00000B5FFF7E7FF04494968C1F3C221034A9F
:100EE000515CC84000BD000000100240D451000811
:100EF000F0B585B00FF26C0C9CE8E01001A8A0E8FA
:100F0000E0101CA52D68009500210022002300247C
:100F10000020194D696801F00C05F5B1042D02D0CF
:100F2000082D19D101E0154819E001ADC1F3834640
:100F3000AC5D01F4803555B10F4D6D68C5F340458A
:100F40001DF805200D4D6543B5FBF2F302E00C4D95
:100F500004FB05F3184602E000BF084800BF00BFCD
:100F600005B0F0BD02030405060708090A0B0C0DC5
:100F70000E0F1010010200000010024000127A0053
:100F800000093D00F8B504460CB90120F8BD2078F1
:100F900000F00100002878D0F848406800F00C000C
:100FA00004280CD0F548406800F00C00082811D146
:100FB000F248406800F48030B0F5803F0AD1EF4835
:100FC000006800F4003000285FD0606800285CD121
:100FD0000120DBE700BF6068B0F5803F06D1E7483D
:100FE000006840F48030E549086028E0606858B93E
:100FF000E248006820F48030E04908600846006854
:1010000020F4802008601AE06068B0F5A02F0BD1B2
:10101000DA48006840F48020D84908600846006833
:1010200040F4803008600AE0D448006820F4803042
:10103000D24908600846006820F48020086000BF9C
:10104000606888B1FFF75CFD054606E0FFF758FDD4
:10105000401B642801D9032098E7C848006800F4C1
:1010600000300028F2D010E0FFF74AFD054606E008
:10107000FFF746FD401B642801D9032086E7BF48DF
:10108000006800F400300028F2D1207800F002005F
:10109000022857D1B948406800F00C0050B1B74859
:1010A000406800F00C00082818D1B448406800F4EB
:1010B000803098B9B148006800F0020020B1206982
:1010C000012801D0012061E7AC48006820F0F80059
:1010D000616940EAC100A949086033E02069E8B1CC
:1010E0000120A7490860FFF70BFD054606E0FFF762
:1010F00007FD401B022801D9032047E79F480068ED
:1011000000F002000028F2D09C48006820F0F800AF
:10111000616940EAC1009949086013E000209849DC
:101120000860FFF7EDFC054606E0FFF7E9FC401B11
:10113000022801D9032029E79048006800F0020046
:101140000028F2D1207800F0080008282DD1A069ED
:10115000B8B101208B490860FFF7D2FC054606E0D4
:10116000FFF7CEFC401B022801D903200EE783487D
:10117000406A00F002000028F2D0012000F0A4FB39
:1011800013E000207F490860FFF7BAFC054606E03F
:10119000FFF7B6FC401B022801D90320F6E677488A
:1011A000406A00F002000028F2D1207800F004002C
:1011B000042873D100277148C06900F0805070B9CD
:1011C00000BF6E48C06940F080506C49C861084655
:1011D000C06900F08050009000BF00BF01276A483E
:1011E000006800F48070B0B96748006840F480700F
:1011F00065490860FFF784FC054606E0FFF780FCC0
:10120000401B642801D90320C0E65F48006800F451
:1012100080700028F2D000BFE068012806D157484E
:10122000006A40F001005549086227E0E06858B9BB
:101230005248006A20F00100504908620846006ADE
:1012400020F00400086219E0E06805280BD14B4843
:10125000006A40F00400494908620846006A40F00C
:10126000010008620AE04548006A20F00100434995
:1012700008620846006A20F00400086200BFE068C7
:10128000A0B1FFF73DFC054609E0FFF739FC401B24
:1012900041F28831884202D9032077E622E03748BC
:1012A000006A00F002000028EFD012E0FFF728FCEF
:1012B000054608E0FFF724FC401B41F288318842D4
:1012C00001D9032062E62D48006A00F002000028E0
:1012D000F0D1012F05D12948C06920F0805027495D
:1012E000C86100BFE069C8B32448406800F00C0042
:1012F000082860D0E069022848D10020204908660B
:10130000FFF7FEFB054606E0FFF7FAFB401B02284D
:1013100001D903203AE61948006800F0007000285F
:10132000F2D1206AB0F5803F07D11448406820F41C
:101330000030A168084311494860D4E90801084316
:101340000E49496821F4741108430C494860012092
:101350000B490866FFF7D4FB054607E03DE0FFF7C1
:10136000CFFB401B022801D903200FE60348006889
:1013700000F000700028F2D02FE0000000100240C2
:1013800000004242800442420070004000201449A4
:101390000866FFF7B5FB054606E0FFF7B1FB401B0B
:1013A000022801D90320F1E50E48006800F0007022
:1013B0000028F2D111E0E069012800D1E6E50948F2
:1013C000466806F48031206A814204D106F4701127
:1013D000606A814201D00120D8E50020D6E50000F6
:1013E000000042420010024070B504460E46154609
:1013F0001CB1A069B0F5807F01D1012070BD94F8C7
:10140000410028B9002084F84000204600F020F870
:1014100004F108012068FFF779F83146A2682068D6
:10142000FFF7B0F82946236BD4E90102FFF74CF827
:10143000A168206850F8210040F00100A2682168EE
:1014400041F82200012084F841000020D6E7000086
:1014500010B586B0044600BF1E48406940F4807055
:101460001C4948610846406900F48070019000BF43
:1014700000BF00BF0846806940F020008861084630
:10148000806900F02000019000BF00BF00BF084647
:10149000806940F0400088610846806900F04000A3
:1014A000019000BF00BF4CF2037002900220039035
:1014B000012004900320059002A90748FFF768F96E
:1014C0004FF68070029002A90448FFF761F906B058
:1014D00010BD00000010024000140140001801403F
:1014E000042808D14FF0E021096941F004014FF0D0
:1014F000E022116107E04FF0E021096921F00401C9
:101500004FF0E0221161704770B504462546681E11
:10151000B0F1807F01D301200FE0681E4FF0E02181
:1015200048610F214FF0FF3000F028FB00204FF002
:10153000E021886107200861002070BD704700002D
:101540002DE9F0470446206805682068C6682068D1
:1015500047694FF00008C14605F00F08B8F1000FC9
:101560000AD105F0200038B106F0200020B1204655
:1015700000F0EAF9BDE8F087B8F1000F71D007F08C
:10158000010018B906F4907000286AD005F0010037
:1015900030B106F4807018B1E06B40F00100E063F8
:1015A00005F0040030B107F0010018B1E06B40F025
:1015B0000200E06305F0020030B107F0010018B14D
:1015C000E06B40F00400E06305F0080048B106F06D
:1015D000200010B907F0010018B1E06B40F00800DE
:1015E000E063E06B68B305F0200028B106F020004E
:1015F00010B1204600F0A8F920684069C0F38019B6
:10160000E06B00F0080010B9B9F1000F22D02046BD
:1016100000F07AF92068406900F04000B0B120681D
:10162000406920F0400021684861606B50B1184863
:10163000616B4863606BFEF7C7FF10B1606B416B75
:1016400088470CE02046FFF779FF08E02046FFF7C7
:1016500075FF04E02046FFF771FF0020E06389E793
:10166000FFE705F0800030B106F0800018B1204699
:1016700000F038FA7EE705F0400030B106F0400097
:1016800018B1204600F050F974E700BF72E700007F
:10169000F518000810B504460CB9012010BDA0696A
:1016A00000B100E000BF94F8390028B9002084F8A8
:1016B0003800204600F028F8242084F839002068FB
:1016C000C06820F400502168C860204600F08CF902
:1016D0002068006920F49040216808612068406912
:1016E00020F02A00216848612068C06840F400505A
:1016F0002168C8600020E063202084F8390084F865
:101700003A000020CAE7000010B586B00446284918
:10171000206888424AD100BF00BF2648806940F057
:101720000400244988610846806900F004000190A3
:1017300000BF00BF00BF00BF00BF0846806940F087
:10174000040088610846806900F00400019000BF31
:1017500000BF00BF00BF00BF0846806940F4804062
:1017600088610846806900F48040019000BF00BF96
:1017700000BF48150290022003900120049003202E
:10178000059002A90C48FFF703F84FF4806002901F
:101790000020039002A90848FEF7FAFF2520FFF772
:1017A000F0F9032211462520FFF7FBF906B010BD22
:1017B00000380140001002400008014010B5034607
:1017C00093F83A0020282FD101B10AB9012010BDA9
:1017D00000BF93F83800012801D10220F7E701206B
:1017E00083F8380000BF99629A85DA850020D863B3
:1017F000222083F83A0000BF002083F8380000BFA1
:101800001868C06840F480701C68E060186840691F
:1018100040F001001C6860611868C06840F020005A
:101820001C68E0600020D2E70220D0E71D4A016872
:10183000914236D11C49098801F4004189BB1A49FB
:10184000098801F4804171B1184909780A2903D047
:101850000021154A118024E01349098841F4004110
:10186000114A11801DE0114909780D2906D10E4950
:10187000098841F480410C4A118012E00B49097833
:10188000094A1288C2F30D02094B99540649098886
:10189000491C054A118011460988C72901DD00212C
:1018A00011807047003801400C0000200E0000201D
:1018B00024000020704700BFFEE700BFFEE770472E
:1018C00010B5FFF719FA10BD08B508490968C9082D
:1018D0004FF47A72B1FBF2F14143009100BF00BFB7
:1018E00000994A1E00920029F9D108BD000000208D
:1018F0007047704770B505466C6A0020E085E0844B
:101900002046FFF71BFE70BD0168C96821F4907185
:101910000268D1600168496921F0010102685161E2
:10192000202180F83A10704710B504462068C0683E
:1019300020F040002168C860202084F8390020464B
:10194000FFF7B8FF002010BD70B5044694F83A00C8
:10195000222847D1A068B0F5805F0CD1206950B92A
:101960000025A66A20684068C0F308003080A06A9D
:10197000801CA06215E0A56A0026A068B0F5805F13
:1019800003D0A06828B9206918B920684068287079
:1019900004E02068406800F07F002870A06A401CC6
:1019A000A062E08D401E80B2E085C8B92068C068A2
:1019B00020F020002168C8602068C06820F4807092
:1019C0002168C8602068406920F0010021684861F2
:1019D000202084F83A002046FFF728FF002070BD41
:1019E0000020FCE70220FAE770B504462168096987
:1019F00021F44051E2681143226811612269A16813
:101A00001143626941EA02052168C96841F20C622A
:101A1000914329432268D1602168496921F44071CA
:101A2000A2691143226851612D4A2168914202D175
:101A3000FFF74EFA01E0FFF73BFA00EBC00101EBC4
:101A4000001162689200B1FBF2F100EBC00202EB00
:101A5000001263689B00B2FBF3F26423B2FBF3F263
:101A600002EBC20303EB0212A1EB8201322202EB72
:101A700001116422B1FBF2F101F0F00100EBC002B0
:101A800002EB001263689B00B2FBF3F26423B2FB2B
:101A9000F3F201EB021200EBC00101EB00116368ED
:101AA0009B00B1FBF3F100EBC00303EB001366688E
:101AB000B600B3FBF6F36426B3FBF6F303EBC30601
:101AC00006EB0313A1EB8301322303EB0111642323
:101AD000B1FBF3F101F00F0111442268916070BD78
:101AE00000380140014691F83900212828D1886842
:101AF000B0F5805F0BD1086948B90A6A1088C0F355
:101B000008000B685860086A801C086205E00B6AD0
:101B1000581C086218780B685860C88C401E80B248
:101B2000C88458B90868C06820F080000B68D86085
:101B30000868C06840F040000B68D860002070471B
:101B40000220FCE710B50648FFF7FAFC00BF0122AF
:101B500004490348FFF732FE0028F8D110BD000009
:101B6000EC0000200E00002000BFFEE702480068E5
:101B7000C0F30220704700000CED00E010B5002813
:101B800004DB0A07130E054A135406E00A07140E75
:101B9000034A00F00F031B1FD45410BD00E400E003
:101BA00018ED00E000BF704710B5044600204FF06C
:101BB000E0210861FFF794FC2046E11704EB517126
:101BC000C1F3CF01014A118010BD000004000020C4
:101BD00070B504464FF47A7094FBF0F594FBF0F185
:101BE00000FB114603E0074800F00EF86D1E002DC3
:101BF000F9D12EB14FF47A7106FB01F000F004F830
:101C000070BD000040420F000146114A12884A434D
:101C10004FF0E0235A6100229A611A46126942F09D
:101C200001021A6100BF4FF0E022106900F00102CA
:101C30001AB100F48032002AF5D04FF0E022126988
:101C400022F001024FF0E0231A6100229A617047EE
:101C50000400002000BF054A126802F04002002A7A
:101C6000F9D0C2B2014B1B1D1A6070470038014009
:101C700000B585B000BF00BF3648806940F0400025
:101C8000344988610846806900F04000009000BF38
:101C900000BF00BF00BF00BF0846806940F04000A1
:101CA00088610846806900F04000009000BF00BFD6
:101CB00000BF00BF00BF0846806940F04000886157
:101CC0000846806900F04000009000BF00BF00BFE0
:101CD00000BF00BF0846806940F0040088610846E4
:101CE000806900F00400009000BF00BF00BF10201A
:101CF000019000200290022003900320049001A98B
:101D00001548FEF745FD08200190002002900120B3
:101D100003900320049001A90F48FEF739FD042029
:101D2000019000200290012003900320049001A95B
:101D30000948FEF72DFD01200190002002900220AD
:101D400003900320049001A90448FEF721FD05B08B
:101D500000BD0000001002400018014000080140D2
:101D600070B50446002514B101202C4908702B4899
:101D70000078002836D010212948FEF7A9FE012856
:101D80000FD008212648FEF7A3FE50B104212448B5
:101D9000FEF79EFE28B101212248FEF799FE012898
:101DA00020D10A20FFF714FF00201C4908701021E1
:101DB0001B48FEF78DFE012800D101250821184897
:101DC000FEF786FE00B9022504211548FEF780FEC5
:101DD00000B9032501211348FEF77AFE01281AD124
:101DE000042518E010210E48FEF772FE98B908216C
:101DF0000B48FEF76DFE01280DD104210848FEF7BF
:101E000067FE012807D101210648FEF761FE10B9DF
:101E1000012002490870284670BD0000190000200A
:101E2000001801400008014070B50446002609482A
:101E30000588408845430021084602F04FFD02F026
:101E4000F5FE00BF02E004480480761CAE42FAD3DF
:101E500070BD0000740100200008006C10B504463D
:101E600049488471002C45D1F020474908804FF43F
:101E7000A07048800846808845F21051884210D1F1
:101E80004FF43050404908814FF4285048814FF4B6
:101E90002C5088814FF4F07008804FF448704880CF
:101EA0001AE03948808841F6631188420DD12C2010
:101EB000354908812B2048812A2088814FF4F07011
:101EC00008804FF44870488006E02C202E49088195
:101ED0002A2048812B2088812B48808845F21031A8
:101EE00088424CD14FF4A070274908804FF4F0701D
:101EF000488044E04FF4A07023490880F0204880D7
:101F00000846808845F21051884210D14FF4305075
:101F10001D4908814FF4285048814FF42C50888186
:101F20004FF4487008804FF4F07048801AE016486B
:101F3000808841F6631188420DD12C201249088116
:101F40002A2048812B2088814FF4487008804FF464
:101F5000F070488006E02C200B4908812A20488137
:101F60002B2088810848808845F21031884206D1AC
:101F70004FF4F070044908804FF4A07048800020AE
:101F800002F094FB10BD00007401002070B50546FE
:101F90000E4614463146284602F0A0FC02F046FEEA
:101FA00001490C8070BD00000008006C10B5CF2006
:101FB00002F030FE002002F021FEC12002F01EFEE1
:101FC000302002F01BFEED2002F024FE642002F01F
:101FD00015FE032002F012FE122002F00FFE8120F7
:101FE00002F00CFEE82002F015FE852002F006FE4D
:101FF000102002F003FE7A2002F000FECB2002F057
:1020000009FE392002F0FAFD2C2002F0F7FD002035
:1020100002F0F4FD342002F0F1FD022002F0EEFDAA
:10202000F72002F0F7FD202002F0E8FDEA2002F0A0
:10203000F1FD002002F0E2FD002002F0DFFDC020F3
:1020400002F0E8FD1B2002F0D9FDC12002F0E2FD04
:10205000012002F0D3FDC52002F0DCFD302002F0AB
:10206000CDFD302002F0CAFDC72002F0D3FDB7201D
:1020700002F0C4FD362002F0CDFD482002F0BEFD86
:102080003A2002F0C7FD552002F0B8FDB12002F061
:10209000C1FD002002F0B2FD1A2002F0AFFDB62013
:1020A00002F0B8FD0A2002F0A9FDA22002F0A6FD70
:1020B000F22002F0AFFD002002F0A0FD262002F089
:1020C000A9FD012002F09AFDE02002F0A3FD0F20FF
:1020D00002F094FD2A2002F091FD282002F08EFDEE
:1020E000082002F08BFD0E2002F088FD082002F08F
:1020F00085FD542002F082FDA92002F07FFD4320DF
:1021000002F07CFD0A2002F079FD0F2002F076FD3E
:10211000002002F073FD002002F070FD002002F0AC
:102120006DFD002002F06AFDE12002F073FD002049
:1021300002F064FD152002F061FD172002F05EFD43
:10214000072002F05BFD112002F058FD062002F08E
:1021500055FD2B2002F052FD562002F04FFD3C2091
:1021600002F04CFD052002F049FD102002F046FD72
:102170000F2002F043FD3F2002F040FD3F2002F01F
:102180003DFD0F2002F03AFD2B2002F043FD002020
:1021900002F034FD002002F031FD012002F02EFD9E
:1021A0003F2002F02BFD2A2002F034FD002002F037
:1021B00025FD002002F022FD002002F01FFDEF208F
:1021C00002F01CFD112002F025FD7820FFF700FD34
:1021D000292002F01FFD10BD10B5ED2002F01AFD00
:1021E000012002F00BFDFE2002F008FDEE2002F0BF
:1021F00011FDDE2002F002FD212002F0FFFCF120A3
:1022000002F008FD012002F0F9FCDF2002F002FDDF
:10221000102002F0F3FCC42002F0FCFC8F2002F03E
:10222000EDFCC62002F0F6FC002002F0E7FCE22004
:1022300002F0E4FCE22002F0E1FCE22002F0DEFC2D
:10224000BF2002F0E7FCAA2002F0D8FCB02002F088
:10225000E1FC0D2002F0D2FC002002F0CFFC0D20AA
:1022600002F0CCFC002002F0C9FC112002F0C6FCF8
:10227000002002F0C3FC192002F0C0FC002002F094
:10228000BDFC212002F0BAFC002002F0B7FC2D209A
:1022900002F0B4FC002002F0B1FC3D2002F0AEFCE4
:1022A000002002F0ABFC5D2002F0A8FC002002F050
:1022B000A5FC5D2002F0A2FC002002F09FFCB120F2
:1022C00002F0A8FC802002F099FC002002F096FCAD
:1022D0008B2002F093FC002002F090FC962002F08C
:1022E0008DFC002002F08AFCB22002F093FC00205A
:1022F00002F084FC002002F081FC022002F07EFC4F
:10230000002002F07BFC032002F078FC002002F0A9
:1023100075FCB32002F07EFC002002F06FFC002070
:1023200002F06CFC002002F069FC002002F066FC68
:10233000002002F063FC002002F060FC002002F0AC
:102340005DFC002002F05AFC002002F057FC002047
:1023500002F054FC002002F051FC002002F04EFC80
:10236000002002F04BFC002002F048FC002002F0AC
:1023700045FC002002F042FC002002F03FFC00205F
:1023800002F03CFC002002F039FC002002F036FC98
:10239000002002F033FC002002F030FC002002F0AC
:1023A0002DFC002002F02AFCB42002F033FC8B202C
:1023B00002F024FC002002F021FC962002F01EFC1A
:1023C000002002F01BFCA12002F018FC002002F00B
:1023D00015FCB52002F01EFC022002F00FFC0020CC
:1023E00002F00CFC032002F009FC002002F006FCC5
:1023F000042002F003FC002002F000FCB62002F0F2
:1024000009FC002002F0FAFB002002F0F7FBB720E5
:1024100002F000FC002002F0F1FB002002F0EEFBD5
:102420003F2002F0EBFB002002F0E8FB5E2002F010
:10243000E5FB002002F0E2FB642002F0DFFB00205D
:1024400002F0DCFB8C2002F0D9FB002002F0D6FB6E
:10245000AC2002F0D3FB002002F0D0FBDC2002F025
:10246000CDFB002002F0CAFB702002F0C7FB002069
:1024700002F0C4FB902002F0C1FB002002F0BEFB82
:10248000EB2002F0BBFB002002F0B8FBDC2002F0E6
:10249000B5FB002002F0B2FBB82002F0BBFB00202D
:1024A00002F0ACFB002002F0A9FB002002F0A6FB2A
:1024B000002002F0A3FB002002F0A0FB002002F0AD
:1024C0009DFB002002F09AFB002002F097FBBA204F
:1024D00002F0A0FB242002F091FB002002F08EFB12
:1024E000002002F08BFB002002F088FBC12002F0EC
:1024F00091FB202002F082FB002002F07FFB5420A1
:1025000002F07CFB002002F079FBFF2002F076FB5A
:10251000002002F073FBC22002F07CFB0A2002F0D4
:102520006DFB002002F06AFB042002F067FB002034
:1025300002F064FBC32002F06DFB3C2002F05EFB66
:10254000002002F05BFB3A2002F058FB002002F072
:1025500055FB392002F052FB002002F04FFB3720E0
:1025600002F04CFB002002F049FB3C2002F046FB4D
:10257000002002F043FB362002F040FB002002F076
:102580003DFB322002F03AFB002002F037FB2F2007
:1025900002F034FB002002F031FB2C2002F02EFB75
:1025A000002002F02BFB292002F028FB002002F083
:1025B00025FB262002F022FB002002F01FFB242036
:1025C00002F01CFB002002F019FB242002F016FB95
:1025D000002002F013FB232002F010FB002002F089
:1025E0000DFB3C2002F00AFB002002F007FB362026
:1025F00002F004FB002002F001FB322002F0FEFAA0
:10260000002002F0FBFA2F2002F0F8FA002002F07E
:10261000F5FA2C2002F0F2FA002002F0EFFA29205D
:1026200002F0ECFA002002F0E9FA262002F0E6FAC5
:10263000002002F0E3FA242002F0E0FA002002F089
:10264000DDFA242002F0DAFA002002F0D7FA232083
:1026500002F0D4FA002002F0D1FAC42002F0DAFA33
:10266000622002F0CBFA002002F0C8FA052002F046
:10267000C5FA002002F0C2FA842002F0BFFA00205E
:1026800002F0BCFAF02002F0B9FA002002F0B6FA2B
:10269000182002F0B3FA002002F0B0FAA42002F0F1
:1026A000ADFA002002F0AAFA182002F0A7FA0020E2
:1026B00002F0A4FA502002F0A1FA002002F09EFAE3
:1026C0000C2002F09BFA002002F098FA172002F08A
:1026D00095FA002002F092FA952002F08FFA00207D
:1026E00002F08CFAF32002F089FA002002F086FA58
:1026F000E62002F083FA002002F080FAC52002F002
:1027000089FA322002F07AFA002002F077FA4420A7
:1027100002F074FA002002F071FA652002F06EFAFD
:10272000002002F06BFA762002F068FA002002F036
:1027300065FA882002F062FA002002F05FFAC620F3
:1027400002F068FA202002F059FA002002F056FA4E
:10275000172002F053FA002002F050FA012002F094
:102760004DFA002002F04AFAC72002F053FA002086
:1027700002F044FA002002F041FA002002F03EFA92
:10278000002002F03BFAC82002F044FA002002F0D8
:1027900035FA002002F032FA002002F02FFA002071
:1027A00002F02CFAC92002F035FA002002F026FAD5
:1027B000002002F023FA002002F020FA002002F0AC
:1027C0001DFA002002F01AFA002002F017FA002089
:1027D00002F014FA002002F011FA002002F00EFAC2
:1027E000002002F00BFA002002F008FA002002F0AC
:1027F00005FA002002F002FA002002F0FFF90020A2
:1028000002F0FCF9002002F0F9F9E02002F002FAEF
:10281000162002F0F3F9002002F0F0F91C2002F07B
:10282000EDF9002002F0EAF9212002F0E7F900209A
:1028300002F0E4F9362002F0E1F9002002F0DEF9BE
:10284000462002F0DBF9002002F0D8F9522002F015
:10285000D5F9002002F0D2F9642002F0CFF900206F
:1028600002F0CCF97A2002F0C9F9002002F0C6F992
:102870008B2002F0C3F9002002F0C0F9992002F089
:10288000BDF9002002F0BAF9A82002F0B7F9002043
:1028900002F0B4F9B92002F0B1F9002002F0AEF96B
:1028A000C42002F0ABF9002002F0A8F9CA2002F01F
:1028B000A5F9002002F0A2F9D22002F09FF9002031
:1028C00002F09CF9D92002F099F9002002F096F963
:1028D000E02002F093F9002002F090F9F32002F0DA
:1028E0008DF9002002F08AF9E12002F093F9162018
:1028F00002F084F9002002F081F91C2002F07EF938
:10290000002002F07BF9222002F078F9002002F08A
:1029100075F9362002F072F9002002F06FF94520B7
:1029200002F06CF9002002F069F9522002F066F919
:10293000002002F063F9642002F060F9002002F048
:102940005DF97A2002F05AF9002002F057F98B2045
:1029500002F054F9002002F051F9992002F04EF9EA
:10296000002002F04BF9A82002F048F9002002F004
:1029700045F9B92002F042F9002002F03FF9C420E5
:1029800002F03CF9002002F039F9CA2002F036F9D1
:10299000002002F033F9D22002F030F9002002F0DA
:1029A0002DF9D82002F02AF9002002F027F9E020C2
:1029B00002F024F9002002F021F9F32002F01EF9C0
:1029C000002002F01BF9E22002F024F9052002F0B9
:1029D00015F9002002F012F90B2002F00FF9002087
:1029E00002F00CF91B2002F009F9002002F006F9B0
:1029F000342002F003F9002002F000F9442002F034
:102A0000FDF8002002F0FAF84F2002F0F7F800205D
:102A100002F0F4F8612002F0F1F8002002F0EEF884
:102A2000792002F0EBF8002002F0E8F8882002F0AC
:102A3000E5F8002002F0E2F8972002F0DFF800202D
:102A400002F0DCF8A62002F0D9F8002002F0D6F857
:102A5000B72002F0D3F8002002F0D0F8C22002F034
:102A6000CDF8002002F0CAF8C72002F0C7F8002015
:102A700002F0C4F8D12002F0C1F8002002F0BEF844
:102A8000D62002F0BBF8002002F0B8F8DD2002F0FA
:102A9000B5F8002002F0B2F8F32002F0AFF8002001
:102AA00002F0ACF8E32002F0B5F8052002F0A6F839
:102AB000002002F0A3F80A2002F0A0F8002002F0A3
:102AC0009DF81C2002F09AF8002002F097F83320BD
:102AD00002F094F8002002F091F8442002F08EF801
:102AE000002002F08BF8502002F088F8002002F05D
:102AF00085F8622002F082F8002002F07FF878204A
:102B000002F07CF8002002F079F8882002F076F8D4
:102B1000002002F073F8972002F070F8002002F015
:102B20006DF8A62002F06AF8002002F067F8B720DE
:102B300002F064F8002002F061F8C22002F05EF8B2
:102B4000002002F05BF8C72002F058F8002002F0E5
:102B500055F8D12002F052F8002002F04FF8D520AD
:102B600002F04CF8002002F049F8DD2002F046F8AF
:102B7000002002F043F8F32002F040F8002002F0B9
:102B80003DF8E42002F046F8012002F037F800207A
:102B900002F034F8012002F031F8002002F02EF8A3
:102BA000022002F02BF8002002F028F82A2002F080
:102BB00025F8002002F022F83C2002F01FF8002047
:102BC00002F01CF84B2002F019F8002002F016F871
:102BD0005D2002F013F8002002F010F8742002F0DB
:102BE0000DF8002002F00AF8842002F007F8002017
:102BF00002F004F8932002F001F8002001F0FEFF3B
:102C0000A22001F0FBFF002001F0F8FFB32001F04B
:102C1000F5FF002001F0F2FFBE2001F0EFFF0020E1
:102C200001F0ECFFC42001F0E9FF002001F0E6FF15
:102C3000CD2001F0E3FF002001F0E0FFD32001F000
:102C4000DDFF002001F0DAFFDD2001F0D7FF0020DA
:102C500001F0D4FFF32001F0D1FF002001F0CEFFFE
:102C6000E52001F0D7FF002001F0C8FF002001F0AF
:102C7000C5FF002001F0C2FF002001F0BFFF0220CD
:102C800001F0BCFF002001F0B9FF292001F0B6FFE0
:102C9000002001F0B3FF3C2001F0B0FF002001F064
:102CA000ADFF4B2001F0AAFF002001F0A7FF5D203F
:102CB00001F0A4FF002001F0A1FF742001F09EFFAD
:102CC000002001F09BFF842001F098FF002001F01C
:102CD00095FF932001F092FF002001F08FFFA220CA
:102CE00001F08CFF002001F089FFB32001F086FF86
:102CF000002001F083FFBE2001F080FF002001F0E2
:102D00007DFFC42001F07AFF002001F077FFCD2085
:102D100001F074FF002001F071FFD32001F06EFF7D
:102D2000002001F06BFFDC2001F068FF002001F0C3
:102D300065FFF32001F062FF002001F05FFFE62055
:102D400001F068FF112001F059FF002001F056FF4B
:102D5000342001F053FF002001F050FF562001F015
:102D60004DFF002001F04AFF762001F047FF0020D0
:102D700001F044FF772001F041FF002001F03EFF09
:102D8000662001F03BFF002001F038FF882001F0B1
:102D900035FF002001F032FF992001F02FFF0020C5
:102DA00001F02CFFBB2001F029FF002001F026FFDD
:102DB000992001F023FF002001F020FF662001F0A0
:102DC0001DFF002001F01AFF552001F017FF002021
:102DD00001F014FF552001F011FF002001F00EFF5B
:102DE000452001F00BFF002001F008FF432001F017
:102DF00005FF002001F002FF442001F0FFFE00204B
:102E000001F0FCFEE72001F005FF322001F0F6FEA4
:102E1000002001F0F3FE552001F0F0FE002001F04B
:102E2000EDFE762001F0EAFE002001F0E7FE6620CC
:102E300001F0E4FE002001F0E1FE672001F0DEFE7B
:102E4000002001F0DBFE672001F0D8FE002001F039
:102E5000D5FE872001F0D2FE002001F0CFFE9920A0
:102E600001F0CCFE002001F0C9FEBB2001F0C6FE3F
:102E7000002001F0C3FE992001F0C0FE002001F007
:102E8000BDFE772001F0BAFE002001F0B7FE44201D
:102E900001F0B4FE002001F0B1FE562001F0AEFEBC
:102EA000002001F0ABFE232001F0A8FE002001F07D
:102EB000A5FE332001F0A2FE002001F09FFE452078
:102EC00001F09CFE002001F099FEE82001F0A2FE36
:102ED000002001F093FE002001F090FE992001F007
:102EE0008DFE002001F08AFE872001F087FE002081
:102EF00001F084FE882001F081FE002001F07EFEBA
:102F0000772001F07BFE002001F078FE662001F0C2
:102F100075FE002001F072FE882001F06FFE002097
:102F200001F06CFEAA2001F069FE002001F066FEAF
:102F3000BB2001F063FE002001F060FE992001F04B
:102F40005DFE002001F05AFE662001F057FE0020D1
:102F500001F054FE552001F051FE002001F04EFE1C
:102F6000552001F04BFE002001F048FE442001F006
:102F700045FE002001F042FE442001F03FFE00200B
:102F800001F03CFE552001F039FE002001F036FE34
:102F9000E92001F03FFEAA2001F030FE002001F000
:102FA0002DFE002001F02AFE002001F027FE002067
:102FB00001F030FEAA2001F021FECF2001F02AFE10
:102FC000002001F01BFE002001F018FE002001F09F
:102FD00015FE002001F012FE002001F00FFE00207F
:102FE00001F00CFE002001F009FE002001F006FEB9
:102FF000002001F003FE002001F000FE002001F09F
:10300000FDFD002001F0FAFD002001F0F7FD002099
:1030100001F0F4FD002001F0F1FD002001F0EEFDD3
:10302000002001F0EBFDF02001F0F4FD002001F0A4
:10303000E5FD502001F0E2FD002001F0DFFD002061
:1030400001F0DCFD002001F0D9FDF32001F0E2FDEC
:10305000002001F0D3FDF92001F0DCFD062001F095
:10306000CDFD102001F0CAFD292001F0C7FD002090
:1030700001F0C4FD3A2001F0CDFD552001F0BEFD68
:10308000112001F0C7FD6420FEF7A2FD292001F008
:10309000C1FD352001F0BEFD002001F0AFFD512043
:1030A00001F0B8FDFF2001F0A9FD532001F0B2FDB1
:1030B0002C2001F0A3FD552001F0ACFD822001F091
:1030C0009DFD2C2001F0A6FD10BD10B555214FF43B
:1030D000704001F0B5FDAA214FF2010001F0B0FDF2
:1030E00052214FF2020001F0ABFD08214FF2030024
:1030F00001F0A6FD01214FF2040001F0A1FD0D2118
:103100004FF4304001F09CFD0D214BF2010001F025
:1031100097FD0D214BF2020001F092FD34214FF496
:10312000364001F08DFD34214BF2016001F088FD45
:1031300034214BF2026001F083FD0D214FF4314048
:1031400001F07EFD0D214BF2011001F079FD0D2102
:103150004BF2021001F074FD34214FF4374001F0BE
:103160006FFD34214BF2017001F06AFD34214BF206
:10317000027001F065FD00214FF4324001F060FD66
:1031800000214BF2012001F05BFD00214BF20220F7
:1031900001F056FD24214FF4384001F051FD242167
:1031A0004BF6010001F04CFD24214BF6020001F02A
:1031B00047FD01214FF43F4001F042FD0F214FF444
:1031C000334001F03DFD0F214BF2013001F038FD9D
:1031D0000F214BF2023001F033FD34214FF439401E
:1031E00001F02EFD34214BF6011001F029FD3421B0
:1031F0004BF6021001F024FD08214FF4354001F098
:103200001FFD08214BF2015001F01AFD08214BF27D
:10321000025001F015FD03214FF4424001F010FD72
:1032200024214FF43A4001F00BFD24214BF60120FC
:1032300001F006FD24214BF6022001F001FD0021E2
:103240004FF43C4001F0FCFC78214BF6014001F0CA
:10325000F7FC00214BF6024001F0F2FC00214FF494
:103260003D4001F0EDFC78214BF6015001F0E8FC07
:1032700000214BF6025001F0E3FC00214FF43E40E8
:1032800001F0DEFC64214BF6016001F0D9FC002165
:103290004FF4514001F0D4FC33214DF2011001F004
:1032A000CFFC00214DF2021001F0CAFC34214DF296
:1032B000031001F0C5FC00214DF2041001F0C0FC28
:1032C0003A214DF2051001F0BBFC00214DF2061031
:1032D00001F0B6FC4A214DF2071001F0B1FC0021CB
:1032E0004DF2081001F0ACFC5C214DF2091001F028
:1032F000A7FC00214DF20A1001F0A2FC81214DF241
:103300000B1001F09DFC00214DF20C1001F098FC17
:10331000A6214DF20D1001F093FC00214DF20E108C
:1033200001F08EFCE5214DF20F1001F089FC012126
:103330004DF2101001F084FC13214DF2111001F038
:103340007FFC01214DF2121001F07AFC54214DF264
:10335000131001F075FC01214DF2141001F070FC06
:1033600082214DF2151001F06BFC01214DF2161077
:1033700001F066FCCA214DF2171001F061FC022138
:103380004DF2181001F05CFC00214DF2191001F013
:1033900057FC02214DF21A1001F052FC01214DF2AE
:1033A0001B1001F04DFC02214DF21C1001F048FCF5
:1033B00034214DF21D1001F043FC02214DF21E108C
:1033C00001F03EFC67214DF21F1001F039FC022193
:1033D0004DF2201001F034FC84214DF2211001F057
:1033E0002FFC02214DF2221001F02AFCA4214DF203
:1033F000231001F025FC02214DF2241001F020FCE5
:10340000B7214DF2251001F01BFC02214DF22610D0
:1034100001F016FCCF214DF2271001F011FC022122
:103420004DF2281001F00CFCDE214DF2291001F0C4
:1034300007FC02214DF22A1001F002FCF2214DF2AC
:103440002B1001F0FDFB02214DF22C1001F0F8FBD6
:10345000FE214DF22D1001F0F3FB03214DF22E1051
:1034600001F0EEFB10214DF22F1001F0E9FB0321DA
:103470004DF2301001F0E4FB33214DF2311001F038
:10348000DFFB03214DF2321001F0DAFB6D214DF22A
:10349000331001F0D5FB00214FF4524001F0D0FB76
:1034A00033214DF2012001F0CBFB00214DF202202F
:1034B00001F0C6FB34214DF2032001F0C1FB0021D5
:1034C0004DF2042001F0BCFB3A214DF2052001F041
:1034D000B7FB00214DF2062001F0B2FB4A214DF26C
:1034E000072001F0ADFB00214DF2082001F0A8FB00
:1034F0005C214DF2092001F0A3FB00214DF20A20CE
:1035000001F09EFB81214DF20B2001F099FB00217F
:103510004DF20C2001F094FBA6214DF20D2001F09C
:103520008FFB00214DF20E2001F08AFBE5214DF2C8
:103530000F2001F085FB01214DF2102001F080FBEE
:1035400013214DF2112001F07BFB01214DF21220DD
:1035500001F076FB54214DF2132001F071FB0121A3
:103560004DF2142001F06CFB82214DF2152001F088
:1035700067FB01214DF2162001F062FBCA214DF2DA
:10358000172001F05DFB02214DF2182001F058FBDD
:1035900000214DF2192001F053FB02214DF21A20B7
:1035A00001F04EFB01214DF21B2001F049FB0221ED
:1035B0004DF21C2001F044FB34214DF21D2001F09E
:1035C0003FFB02214DF21E2001F03AFB67214DF234
:1035D0001F2001F035FB02214DF2202001F030FBCD
:1035E00084214DF2212001F02BFB02214DF22220FB
:1035F00001F026FBA4214DF2232001F021FB022142
:103600004DF2242001F01CFBB7214DF2252001F0E2
:1036100017FB02214DF2262001F012FBCF214DF2C3
:10362000272001F00DFB02214DF2282001F008FBBC
:10363000DE214DF2292001F003FB02214DF22A2068
:1036400001F0FEFAF2214DF22B2001F0F9FA0221ED
:103650004DF22C2001F0F4FAFE214DF22D2001F064
:10366000EFFA03214DF22E2001F0EAFA10214DF27B
:103670002F2001F0E5FA03214DF2302001F0E0FAAD
:1036800033214DF2312001F0DBFA03214DF23220DB
:1036900001F0D6FA6D214DF2332001F0D1FA00216C
:1036A0004FF4534001F0CCFA33214DF2013001F0D8
:1036B000C7FA00214DF2023001F0C2FA34214DF276
:1036C000033001F0BDFA00214DF2043001F0B8FAE8
:1036D0003A214DF2053001F0B3FA00214DF20630E7
:1036E00001F0AEFA4A214DF2073001F0A9FA0021AB
:1036F0004DF2083001F0A4FA5C214DF2093001F0DE
:103700009FFA00214DF20A3001F09AFA81214DF220
:103710000B3001F095FA00214DF20C3001F090FAD7
:10372000A6214DF20D3001F08BFA00214DF20E3042
:1037300001F086FAE5214DF20F3001F081FA012106
:103740004DF2103001F07CFA13214DF2113001F0EE
:1037500077FA01214DF2123001F072FA54214DF244
:10376000133001F06DFA01214DF2143001F068FAC6
:1037700082214DF2153001F063FA01214DF216302D
:1037800001F05EFACA214DF2173001F059FA022118
:103790004DF2183001F054FA00214DF2193001F0C9
:1037A0004FFA02214DF21A3001F04AFA01214DF28E
:1037B0001B3001F045FA02214DF21C3001F040FAB5
:1037C00034214DF21D3001F03BFA02214DF21E3042
:1037D00001F036FA67214DF21F3001F031FA022173
:1037E0004DF2203001F02CFA84214DF2213001F00D
:1037F00027FA02214DF2223001F022FAA4214DF2E3
:10380000233001F01DFA02214DF2243001F018FAA4
:10381000B7214DF2253001F013FA02214DF2263086
:1038200001F00EFACF214DF2273001F009FA022102
:103830004DF2283001F004FADE214DF2293001F07A
:10384000FFF902214DF22A3001F0FAF9F2214DF28E
:103850002B3001F0F5F902214DF22C3001F0F0F996
:10386000FE214DF22D3001F0EBF903214DF22E3007
:1038700001F0E6F910214DF22F3001F0E1F90321BA
:103880004DF2303001F0DCF933214DF2313001F0EE
:10389000D7F903214DF2323001F0D2F96D214DF20A
:1038A000333001F0CDF900214FF4544001F0C8F954
:1038B00033214DF2014001F0C3F900214DF20240E5
:1038C00001F0BEF934214DF2034001F0B9F90021B5
:1038D0004DF2044001F0B4F93A214DF2054001F0F7
:1038E000AFF900214DF2064001F0AAF94A214DF24C
:1038F000074001F0A5F900214DF2084001F0A0F9C0
:103900005C214DF2094001F09BF900214DF20A4083
:1039100001F096F981214DF20B4001F091F900215F
:103920004DF20C4001F08CF9A6214DF20D4001F052
:1039300087F900214DF20E4001F082F9E5214DF2A8
:103940000F4001F07DF901214DF2104001F078F9AE
:1039500013214DF2114001F073F901214DF2124093
:1039600001F06EF954214DF2134001F069F9012183
:103970004DF2144001F064F982214DF2154001F03E
:103980005FF901214DF2164001F05AF9CA214DF2BA
:10399000174001F055F902214DF2184001F050F99D
:1039A00000214DF2194001F04BF902214DF21A406D
:1039B00001F046F901214DF21B4001F041F90221CD
:1039C0004DF21C4001F03CF934214DF21D4001F054
:1039D00037F902214DF21E4001F032F967214DF214
:1039E0001F4001F02DF902214DF2204001F028F98D
:1039F00084214DF2214001F023F902214DF22240B1
:103A000001F01EF9A4214DF2234001F019F9022121
:103A10004DF2244001F014F9B7214DF2254001F098
:103A20000FF902214DF2264001F00AF9CF214DF2A3
:103A3000274001F005F902214DF2284001F000F97C
:103A4000DE214DF2294001F0FBF802214DF22A401F
:103A500001F0F6F8F2214DF22B4001F0F1F80221CD
:103A60004DF22C4001F0ECF8FE214DF22D4001F01A
:103A7000E7F803214DF22E4001F0E2F810214DF25B
:103A80002F4001F0DDF803214DF2304001F0D8F86D
:103A900033214DF2314001F0D3F803214DF2324091
:103AA00001F0CEF86D214DF2334001F0C9F800214C
:103AB0004FF4554001F0C4F833214DF2015001F0AC
:103AC000BFF800214DF2025001F0BAF834214DF256
:103AD000035001F0B5F800214DF2045001F0B0F8A8
:103AE0003A214DF2055001F0ABF800214DF206509D
:103AF00001F0A6F84A214DF2075001F0A1F800218B
:103B00004DF2085001F09CF85C214DF2095001F093
:103B100097F800214DF20A5001F092F881214DF200
:103B20000B5001F08DF800214DF20C5001F088F897
:103B3000A6214DF20D5001F083F800214DF20E50F8
:103B400001F07EF8E5214DF20F5001F079F80121E6
:103B50004DF2105001F074F813214DF2115001F0A4
:103B60006FF801214DF2125001F06AF854214DF224
:103B7000135001F065F801214DF2145001F060F886
:103B800082214DF2155001F05BF801214DF21650E3
:103B900001F056F8CA214DF2175001F051F80221F8
:103BA0004DF2185001F04CF800214DF2195001F07F
:103BB00047F802214DF21A5001F042F801214DF26E
:103BC0001B5001F03DF802214DF21C5001F038F875
:103BD00034214DF21D5001F033F802214DF21E50F8
:103BE00001F02EF867214DF21F5001F029F8022153
:103BF0004DF2205001F024F884214DF2215001F0C3
:103C00001FF802214DF2225001F01AF8A4214DF2C2
:103C1000235001F015F802214DF2245001F010F864
:103C2000B7214DF2255001F00BF802214DF226503C
:103C300001F006F8CF214DF2275001F001F80221E2
:103C40004DF2285000F0FCFFDE214DF2295000F02B
:103C5000F7FF02214DF22A5000F0F2FFF2214DF25F
:103C60002B5000F0EDFF02214DF22C5000F0E8FF48
:103C7000FE214DF22D5000F0E3FF03214DF22E50B6
:103C800000F0DEFF10214DF22F5000F0D9FF03218C
:103C90004DF2305000F0D4FF33214DF2315000F09E
:103CA000CFFF03214DF2325000F0CAFF6D214DF2DB
:103CB000335000F0C5FF00214FF4564000F0C0FF24
:103CC00033214DF2016000F0BBFF00214DF2026094
:103CD00000F0B6FF34214DF2036000F0B1FF002187
:103CE0004DF2046000F0ACFF3A214DF2056000F0A7
:103CF000A7FF00214DF2066000F0A2FF4A214DF21D
:103D0000076000F09DFF00214DF2086000F098FF71
:103D10005C214DF2096000F093FF00214DF20A6032
:103D200000F08EFF81214DF20B6000F089FF002131
:103D30004DF20C6000F084FFA6214DF20D6000F002
:103D40007FFF00214DF20E6000F07AFFE5214DF279
:103D50000F6000F075FF01214DF2106000F070FF60
:103D600013214DF2116000F06BFF01214DF2126042
:103D700000F066FF54214DF2136000F061FF012155
:103D80004DF2146000F05CFF82214DF2156000F0EE
:103D900057FF01214DF2166000F052FFCA214DF28B
:103DA000176000F04DFF02214DF2186000F048FF4F
:103DB00000214DF2196000F043FF02214DF21A601C
:103DC00000F03EFF01214DF21B6000F039FF02219F
:103DD0004DF21C6000F034FF34214DF21D6000F004
:103DE0002FFF02214DF21E6000F02AFF67214DF2E5
:103DF0001F6000F025FF02214DF2206000F020FF3F
:103E000084214DF2216000F01BFF02214DF222605F
:103E100000F016FFA4214DF2236000F011FF0221F3
:103E20004DF2246000F00CFFB7214DF2256000F048
:103E300007FF02214DF2266000F002FFCF214DF274
:103E4000276000F0FDFE02214DF2286000F0F8FE30
:103E5000DE214DF2296000F0F3FE02214DF22A60CE
:103E600000F0EEFEF2214DF22B6000F0E9FE02219F
:103E70004DF22C6000F0E4FEFE214DF22D6000F0CA
:103E8000DFFE03214DF22E6000F0DAFE10214DF22C
:103E90002F6000F0D5FE03214DF2306000F0D0FE1F
:103EA00033214DF2316000F0CBFE03214DF2326040
:103EB00000F0C6FE6D214DF2336000F0C1FE5521C9
:103EC0004FF4704000F0BCFEAA214FF2010000F058
:103ED000B7FE52214FF2020000F0B2FE08214FF26D
:103EE000030000F0ADFE00214FF2040000F0A8FE38
:103EF000CC214FF4314000F0A3FE00214BF2011021
:103F000000F09EFE05214FF4364000F099FE70212E
:103F10004FF4374000F094FE70214BF2017000F036
:103F20008FFE01214FF4384000F08AFE03214BF64A
:103F3000010000F085FE03214BF6020000F080FE38
:103F400003214BF6030000F07BFE02214FF43C40BE
:103F500000F076FE00214BF6014000F071FE0021DA
:103F60004BF6024000F06CFED0214FF4494000F0C7
:103F700067FE02214CF6011000F062FE50214CF663
:103F8000021000F05DFE50214CF6031000F058FEC8
:103F900050214CF6041000F053FE00214FF4545011
:103FA00000F04EFE55214FF4685000F049FE4FF4EA
:103FB000885000F02FFE7820FDF726FE4FF42450A5
:103FC00000F028FE10BD10B5E22000F023FE1D20F9
:103FD00000F014FE022000F011FE042000F00EFE9E
:103FE0006420FDF711FEE02000F014FE012000F037
:103FF00005FE0A20FDF7ECFDE02000F00BFE03209B
:1040000000F0FCFD0C20FDF7E3FD012000F002FEB6
:104010000A20FDF7DDFDE62000F0FCFD2F2000F07A
:10402000EDFDFF2000F0EAFDFF2000F0E7FDB020ED
:1040300000F0F0FD202000F0E1FD002000F0DEFDAA
:10404000032000F0DBFD40F21F3000F0D7FD01201F
:1040500000F0D4FD40F2DF1000F0D0FD002000F0B1
:10406000CDFDB42000F0D6FD042000F0C7FD40F2E5
:104070001F4000F0C3FD002000F0C0FD2E2000F026
:10408000BDFD002000F0BAFD002000F0B7FD0020CB
:1040900000F0B4FD002000F0B1FDB62000F0BAFD44
:1040A000022000F0ABFD4FF4037000F0A7FD0020EC
:1040B00000F0A4FD172000F0A1FD152000F09EFDEA
:1040C000002000F09BFD002000F098FDF02000F0A3
:1040D000A1FD032000F092FD292000F09BFDD020DF
:1040E00000F098FD002000F089FDBE2000F092FD58
:1040F000052000F083FDFE2000F080FD012000F08F
:104100007DFD002000F07AFD002000F077FD00200A
:1041100000F074FDB82000F07DFD032000F06EFD7E
:10412000012000F06BFDBA2000F074FD012000F0CA
:1041300065FD10BD10B5112000F06CFD7820FDF775
:1041400047FD362000F066FD002000F057FD3A20C4
:1041500000F060FD052000F051FDB22000F05AFD96
:104160000C2000F04BFD0C2000F048FD002000F07A
:1041700045FD332000F042FD332000F03FFDB72025
:1041800000F048FD352000F039FDBB2000F042FD75
:10419000322000F033FDC02000F03CFD0C2000F088
:1041A0002DFDC22000F036FD012000F027FDC320C8
:1041B00000F030FD102000F021FDC42000F02AFDA9
:1041C000202000F01BFDC62000F024FD0F2000F091
:1041D00015FDD02000F01EFDA42000F00FFDA12051
:1041E00000F00CFDE02000F015FDD02000F006FDF1
:1041F000002000F003FD022000F000FD072000F089
:10420000FDFC0A2000F0FAFC282000F0F7FC322028
:1042100000F0F4FC442000F0F1FC422000F0EEFC41
:10422000062000F0EBFC0E2000F0E8FC122000F06D
:10423000E5FC142000F0E2FC172000F0DFFCE12098
:1042400000F0E8FCD02000F0D9FC002000F0D6FC03
:10425000022000F0D3FC072000F0D0FC0A2000F080
:10426000CDFC282000F0CAFC312000F0C7FC54200F
:1042700000F0C4FC472000F0C1FC0E2000F0BEFCA2
:104280001C2000F0BBFC172000F0B8FC1B2000F045
:10429000B5FC1E2000F0B2FC2A2000F0BBFC002080
:1042A00000F0ACFC002000F0A9FC002000F0A6FC0F
:1042B000EF2000F0A3FC2B2000F0ACFC002000F06D
:1042C0009DFC002000F09AFC012000F097FC3F20AC
:1042D00000F094FC292000F09DFC10BD00B593B0C7
:1042E00000BF00BFDE48806940F48070DC4988610F
:1042F0000846806900F48070009000BF00BF00BFD6
:1043000000BF00BF0846806940F020008861084671
:10431000806900F02000009000BF00BF00BF00BF18
:1043200000BF0846806940F0200088610846806927
:1043300000F02000009000BF00BF00BF00BF00BF22
:104340000846806940F4807088610846806900F4FE
:104350008070009000BF00BF00BF00BF00BF0846D4
:10436000806940F0080088610846806900F0080014
:10437000009000BF00BF00BF88140F900220109073
:1043800001201190032012900FA9B648FCF700FA03
:1043900020200F900FA9B448FCF7FAF910200F90D5
:1043A0000FA9B148FCF7F4F901200F900FA9AD480F
:1043B000FCF7EEF901200F9010900FA9AB48FCF725
:1043C000E7F94FF02040AA490860AA484860062053
:1043D00088600021A648C1601021416100218161EF
:1043E000C16141624FF4805181620021C1624FF48A
:1043F000804101630021416381630020089009909E
:104400000F200A9000200E9001900290012003904E
:104410000020079001AA08A99548FCF7E5FF322083
:10442000FDF7D6FBD32000F0F5FB00F033F99249FD
:10443000888000F02FF99049888000F02BF98E4990
:104440008880084680884FF6FF7101EA00208A497B
:10445000888000F01FF98849898808438649888048
:104460000846808849F2413188427DD0042000F01E
:10447000D1FB00F00FF98049888000F00BF97E49EC
:10448000888000F007F97C498880084680884FF6CC
:10449000FF7101EA00207849888000F0FBF8764936
:1044A00089880843744988800846808848F25251B8
:1044B000884203D147F289706F4988806E488088AE
:1044C00047F289718842D0D0D42000F0A3FB00F0DD
:1044D000E1F86949888000F0DDF86749888000F0DC
:1044E000D9F865498880084680884FF6FF7101EA4F
:1044F00000206149888000F0CDF85F498988084331
:104500005D4988800846808845F21031884262D033
:1045100055214FF4704000F093FBAA214FF20100A7
:1045200000F08EFB52214FF2020000F089FB0821BF
:104530004FF2030000F084FB01214FF2040000F071
:104540007FFB4FF4454000F065FB00F0A3F84A49BB
:104550008880084680884FF6FF7101EA00204649AE
:1045600088804CF2015000E035E000F053FB00F091
:1045700091F84149898808433F4988800520FDF723
:1045800027FB3D48808845F21051884223D0A12066
:1045900000F040FB00F07EF83749888000F07AF8A0
:1045A00035498880084680884FF6FF7101EA00206F
:1045B0003149888000F06EF82F49898808432E49D8
:1045C00088800846808845F26171884203D141F6AF
:1045D0006310294988802848818828A0FBF71CFEA1
:1045E0002548808847F28971884202D1FFF7A2FDF1
:1045F00025E02148808849F24131884202D1FDF707
:10460000D5FC1CE01C48808845F21031884202D15C
:10461000FDF7E2FD13E01848808845F2105188420A
:1046200002D1FEF752FD0AE01348808841F663117B
:10463000884204D1FFF7C7FC642000F0B5FA0020DF
:10464000FDF70CFC00BF012211460848FCF752FAA6
:1046500000BF4FF6FF70FDF7E7FB13B000BD000091
:10466000001002400020014000140140000C0140F5
:104670002C010020040100A0740100204C434420C0
:1046800049443A25780D0A0000BF011EA0F101003F
:10469000FBD1704708B50220FFF7F6FF02480088FB
:1046A0000090BDF8000008BD0008006CF0B505469C
:1046B0000024002788488079012805D18648808811
:1046C00041F66311884208D183488079F0B9824865
:1046D000808841F66311884218D1082D15D2DFE891
:1046E00005F00406080A0C0E101206250DE0072539
:1046F0000BE0042509E0052507E0012505E000257C
:1047000003E0032501E0022500BF00BF082D1CD2F5
:10471000DFE805F00406090C0F12151800BF14E0BD
:1047200044F0800411E044F040040EE044F0C00482
:104730000BE044F0200408E044F0600405E044F09D
:10474000A00402E044F0E00400BF00BF3627624846
:10475000808845F21051884200D13F025E4880882F
:1047600049F24131884205D05B48808847F289711F
:10477000884201D144F008042146384600F060FA2E
:104780005548808841F6631188421DD004F020000E
:1047900068B15148008850494988884214DA4E4827
:1047A000068840884C490880084646800CE04A4804
:1047B000008849494988884206DD4748068840887C
:1047C00045490880084646804348808845F2105194
:1047D000884252D14049488900F01CFA002000F07C
:1047E0000DFA3D494989491C88B200F013FA0020AE
:1047F00000F004FA38494989891C88B200F00AFAA5
:1048000035490988491EC1F30F2000F0F7F93249F4
:104810004989C91C88B200F0FDF92F490978491E61
:10482000C8B200F0EBF92C49888900F0F3F90020B8
:1048300000F0E4F928498989491C88B200F0EAF9B6
:10484000002000F0DBF924498989891C88B200F036
:10485000E1F921494988491EC1F30F2000F0CEF942
:104860001D498989C91C88B200F0D4F91A49897890
:10487000491EC8B200F0C2F92DE01749488900F07E
:10488000C9F9002000F0BAF9002000F0B7F9124988
:104890000988491EC1F30F2000F0B0F90E490978CC
:1048A000491EC8B200F0AAF90B49888900F0B2F994
:1048B000002000F0A3F9002000F0A0F90649498883
:1048C000491EC1F30F2000F099F903498978491E68
:1048D000C8B200F093F9F0BD7401002010B5024693
:1048E0000C464548808841F66311884247D14248CA
:1048F0008079A8B940480088401E801A82B23E499B
:10490000488900F087F9002000F078F9002000F0D5
:1049100075F9101200F072F9D0B200F06FF916E0DC
:104920003549488900F076F9101200F067F9D0B2E5
:1049300000F064F930490988491EC1F30F2000F0E6
:104940005DF92D490978491EC8B200F057F92A4986
:10495000888900F05FF9201200F050F9E0B200F011
:104960004DF925494988491EC1F30F2000F046F949
:1049700021498978491EC8B200F040F93AE01E4842
:10498000808845F21051884220D11B49488900F0A7
:1049900041F9101200F032F917494989491C88B2CF
:1049A00000F038F9D0B200F029F91349888900F0F5
:1049B00031F9201200F022F90F498989491C88B287
:1049C00000F028F9E0B200F019F913E00A4948892B
:1049D00000F020F9101200F011F9D0B200F00EF939
:1049E0000549888900F016F9201200F007F9E0B2B5
:1049F00000F004F910BD0000740100202DE9FC4F07
:104A000080460E4615461C46B34600200190009095
:104A10002046E31704EB5373DB1021464FEAE47C96
:104A200004EB5C7C4FEAEC0CA4EBCC0CBCF1000F6B
:104A300002D04FF0010C01E04FF0000C634422461D
:104A400004EBD27C4FEA6C0C03FB0CF3DBB201935A
:104A5000A5F12000C5B20C2C06D0102C0BD0182CC0
:104A60000ED0202C18D112E005EB45002D4901EBAA
:104A70008000009012E02C4800EB051000900DE043
:104A800005EBC500294901EB8000009006E02848AD
:104A900000EB8510009001E0BDE8FC8F00BF00270F
:104AA0003AE0009810F807904FF0000A2EE009F065
:104AB000800028B1314640460C9AFDF767FA07E0BE
:104AC0000B9828B91B48314602684046FDF75EFA4C
:104AD0004FEA49604FEA1069701C86B21648408858
:104AE000B04200DCD8E7A6EB0B00A0420AD15E463C
:104AF00008F101001FFA80F80F480088404500DCEB
:104B0000CAE706E00AF1010000F0FF0ABAF1080F57
:104B1000CDDB00BF781CC7B201988742C1DB00BF64
:104B2000BAE70000DC51000850560008405C00085D
:104B30009C69000820000020740100202DE9FC4F32
:104B400004460D4690469946DDE90C7A0B9E04F02A
:104B5000FF0B08EB04001FFA80F809EB05001FFAB1
:104B600080F917E0444502DB5C46A81985B24D4543
:104B700000DB15E00020CDE9000A3A7833462946EB
:104B80002046FFF73BFF304606EBD07104EB610196
:104B90008CB27F1C38787E2802DC38782028E1DA55
:104BA00000BFBDE8FC8F00002DE9F0470446BE20A1
:104BB00000F030F8052000F021F8204600F0F1F96F
:104BC00007464FF066320C4B00F0FEF9054600F048
:104BD000BBF91FFA80F9484600F010F8012000F0F8
:104BE0000DF8FF2000F00AF8002000F007F8002080
:104BF00000F004F8BDE8F0876666044001B5BDF832
:104C000000000090BDF800000149088008BD0000C8
:104C10000008006C01B5BDF800000090BDF8000070
:104C20000149088008BD0000FE07006C02480089A9
:104C3000024908807047000074010020FE07006CE4
:104C4000024A1080921C118070470000FE07006C21
:104C500000B585B000BF00BF1E48806940F0080065
:104C60001C4988610846806900F00800009000BF78
:104C700000BF00BF00BF00BF0846806940F0400091
:104C800088610846806900F04000009000BF00BFC6
:104C900000BF202001900120029003900320049087
:104CA00001A90D48FBF774FD2020019001A90B48D4
:104CB000FBF76EFD00BF012220210748FBF71AFF1A
:104CC00000BF00BF012220210448FBF713FF00BFF3
:104CD00005B000BD00100240000C0140001801406A
:104CE0000EB500240025FBF711FF4FF4E01000F093
:104CF000DBF84820FCF758FF4FF4E13000F008F9EA
:104D0000FFF7A6FFFFF7EAFAFCF7B2FF00F09EF804
:104D10004FF4784033A110221346CDE900210290D0
:104D2000C82232211E20FFF709FF4FF478402FA13F
:104D300010221346CDE900210290C82246211E20F0
:104D4000FFF7FCFE4FF478402BA110221346CDE96B
:104D500000210290C8225A211E20FFF7EFFE4FF4D7
:104D6000784029A110221346CDE900210290C822E3
:104D70006E211E20FFF7E2FE4FF4784028A110229A
:104D80001346CDE900210290C82282211E20FFF7A0
:104D9000D5FE26E00020FCF7E3FF0546012D0FD1EC
:104DA00000BF002220212448FBF7A4FE00BF00F032
:104DB00047F800BF012220211F48FBF79BFE00BFE0
:104DC000142094FBF0F100FB114028B900BF202112
:104DD0001A48FBF785FE00BF0A20FCF7F9FE601CAD
:104DE000C4B2D7E753544D3332000000534C45450D
:104DF000502054455354000041544F4D40414C49BC
:104E0000454E54454B0000004B4559303A456E74B1
:104E1000657220534C454550204D4F4445000000DD
:104E20004B45595F55503A4578697420534C454578
:104E300050204D4F4445000000180140000C014037
:104E400010B501210020FBF7FFFE10BD00B585B0B5
:104E500000BF00BF1148806940F004000F4988611D
:104E60000846806900F00400009000BF00BF00BF4A
:104E7000012001900A480290022003900320049030
:104E800001A90848FBF784FC022211460620FBF723
:104E900088FE0620FBF775FE05B000BD001002403D
:104EA000000011100008014030B58FB00546012404
:104EB000282105A8FBF71CFA14216846FBF718FA0D
:104EC00001200590000406900020079002200C901D
:104ED000C1030D910E9505A8FCF754F804460CB1DA
:104EE00000BFFEE70F2000900220019000200290FA
:104EF0004FF4806003900020049002216846FBF785
:104F00000BFF04460CB100BFFEE70FB030BD000040
:104F100010B5044609480A49086008464460002163
:104F20008160C160016181610C214161FCF7B2FBCC
:104F3000012204490248FCF741FC10BD0038014041
:104F4000EC0000200E0000204FEA1153A3F580630F
:104F5000D3F11E03A8BFD3F1200C08DB4FF00042B1
:104F600042EAC12252EA505232FA03F07047094233
:104F70000BD4102BC4BF0020704703F5787CBCF124
:104F8000FF3F05D04FF0FF3070474FF000007047F3
:104F900070B500F0C3F800BF49922480002070472C
:104FA000F0E7B0FA80F310FA03F10AD0C3F11D0361
:104FB00003F580634FEA41504FEA035202EBD121DF
:104FC00070474FF000007047DFF848C170B51CEA29
:104FD000111E1EBF1CEA13159EEA0C0F95EA0C0F5A
:104FE00000F06F8081EA030423EA4C134EEAD47E7A
:104FF00021EA4C1141F4801143F48013AE44A1FB2B
:10500000024CA0FB0365AEF17F7E361955EB0C0513
:10501000A1FB034C4CF10003A0FB021C16EB0C0699
:10502000654153F10003094218BF46F0010613F42D
:10503000007F0BD14FEA03314FEA0530340341EAD8
:10504000155140EA16506FF003020AE04FEAC321FF
:105050004FEAC520F40241EA555140EA56506FF03C
:10506000020202EB2E4201EB025585EACE710AD014
:105070005FEA440C18BF24F0004450F1000041F1F5
:10508000000120EAD47040F2FE7C624500D270BD7F
:10509000A84214BF4FF080444FF04044002E08BF98
:1050A0000024BEF1806FA8BFA1F1C041BDE87040EF
:1050B00080F282804FF0000001F1C04101F0004118
:1050C00070479EEA0C0F0CEA131518BF95EA0C0FF7
:1050D00006D04FF0000081EA030E0EF0004170BDD3
:1050E00000F01CF88900013E00F007B800F009B894
:1050F0004FEA430C5FEA5C5C08D081EA030100F0F0
:105100005BB84FEA410C5FEA5C5CF6D14FF00000FF
:10511000014970470000FF070000F87F0EF1020E02
:105120002EF0030E5EF8046B364205D4012A43EBE1
:10513000030515F5001F12D8012841EB010C1CF5E1
:10514000001F0CD80ED14FEAD17C15F5001F0CEBD7
:105150004C0C0CF1020C08BF4CEBD37C04E04FF07C
:10516000080C01E04FEAD37C0CEB4C0526FA05F65F
:1051700006F00706B6F1040C06D20EEB860CBDE86D
:1051800070404CF0010C6047DFE80CF0090B0202A4
:105190004FF000414FF00000A1F5002170BD19460D
:1051A0001046012851EB010418BFD4F5001484BF48
:1051B000002001F0004170BD0808A0F500114FEA81
:1051C00031017047000000000000000001020304EC
:1051D00006070809000000000102030400000000A7
:1051E0000000000000000000000000003F40000040
:1051F00000000000000030004000300040000000CF
:1052000009000BC03D000BC03D00090018C0244040
:105210007FE0224031800000180024C01B000D8078
:105220003240018003801C4027401C800740004022
:1052300010006000000000000000000000000000FE
:1052400000001F80204040200000402020401F80A0
:1052500000000000090006001F8006000900000091
:10526000040004003F8004000400000000100060FF
:10527000000000000000000004000400040004001E
:1052800004000000000000400000000000000000DA
:10529000002001C006003800400000001F802040B0
:1052A000204020401F800000000010403FC0004010
:1052B0000000000018C02140224024401840000097
:1052C00010802040244024401B80000002000D007C
:1052D00011003FC0014000003C8024402440244095
:1052E000238000001F8024402440344003800000BD
:1052F0003000200027C03800200000001B80244020
:10530000244024401B8000001C0022C02240224078
:105310001F800000000000000840000000000000A6
:105320000000000004600000000000000000040015
:105330000A0011002080404009000900090009000E
:105340000900000000004040208011000A00040015
:105350001800200023402400180000001F80204077
:10536000274029401F400000004007C039000F00BF
:1053700001C0004020403FC0244024401B8000006A
:105380001F802040204020403080000020403FC04F
:10539000204020401F80000020403FC024402E407D
:1053A00030C0000020403FC024402E0030000000EC
:1053B0000F001080204022403380020020403FC078
:1053C000040004003FC02040204020403FC0204057
:1053D000204000000060202020203FC0200020004E
:1053E00020403FC024400B0030C0204020403FC040
:1053F00020400040004000C03FC03C0003C03C00D3
:105400003FC0000020403FC00C4023003FC02000B0
:105410001F802040204020401F80000020403FC0CF
:1054200024402400180000001F802140214020E07B
:105430001FA0000020403FC02440260019C00040AB
:1054400018C0244024402240318000003000204019
:105450003FC020403000000020003F80004000405E
:105460003F80200020003E0001C0070038002000DF
:10547000380007C03C0007C038000000204039C099
:10548000060039C0204000002000384007C03840E6
:1054900020000000304021C02640384020C00000DD
:1054A000000000007FE0402040200000000070006D
:1054B0000C000380004000000000402040207FE0FE
:1054C000000000000000200040002000000000005C
:1054D000001000100010001000100010000000006C
:1054E0004000000000000000000002800540054070
:1054F00003C0004020003FC004400440038000007F
:1055000000000380044004400640000000000380C7
:10551000044024403FC00040000003800540054097
:1055200003400000000004401FC02440244020002D
:10553000000002E0055005500650042020403FC006
:105540000440040003C000400000044027C00040A5
:105550000000000000100010041027E00000000010
:1055600020403FC00140070004C0044020402040CC
:105570003FC000400040000007C0040007C0040016
:1055800003C00000044007C00440040003C0004002
:10559000000003800440044003800000041007F072
:1055A00004500440038000000000038004400450C5
:1055B00007F00010044007C002400400040000008F
:1055C000000006400540054004C000000000040043
:1055D0001F80044000400000040007800040044099
:1055E00007C000400400070004C00180060004005A
:1055F000060001C0070001C006000000044006C00C
:10560000010006C0044000000410071004E00180FF
:10561000060004000000044005C0064004400000ED
:105620000000000004007BE04020000000000000BB
:105630000000FFF000000000000040207BE00400BC
:1056400000000000400080004000200020004000DA
:10565000000000000000000000000000000000004A
:105660000000000000001FCC000C00000000000043
:1056700000000800300060000800300060000000FA
:10568000022003FC1E20022003FC1E20022000003A
:1056900000000E1811043FFF10840C780000000079
:1056A0000F0010840F3800C00778188400780000BD
:1056B00000780F8410C411240E9800E400840008C0
:1056C00008006800700000000000000000000000FA
:1056D00000000000000007E018182004400200004D
:1056E000000040022004181807E00000000000003D
:1056F0000240024001800FF00180024002400000A1
:105700000080008000800FF8008000800080000092
:105710000001000D000E000000000000000000006D
:1057200000000080008000800080008000800080F9
:105730000000000C000C0000000000000000000051
:10574000000000060018006001800600180020001C
:10575000000007F0080810041004080807F0000013
:105760000000080408041FFC0004000400000000FE
:1057700000000E0C10141024104411840E0C0000B4
:1057800000000C1810041104110412880C700000A1
:10579000000000E00320042408241FFC0024000073
:1057A00000001F981084110411041088107000006C
:1057B000000007F008881104110418880070000028
:1057C00000001C00100010FC13001C001000000062
:1057D00000000E3811441084108411440E3800006B
:1057E00000000700088C10441044088807F00000EF
:1057F000000000000000030C030C0000000000008B
:105800000000000000010106000000000000000090
:10581000000000800140022004100808100400006D
:10582000022002200220022002200220022000008A
:10583000000010040808041002200140008000004D
:1058400000000E001200100C106C10800F00000001
:1058500003E00C1813E4142417C4082807D0000030
:105860000004003C03C41C40074000E4001C00048A
:1058700010041FFC1104110411040E8800700000B4
:1058800003E00C1810041004100410081C10000091
:1058900010041FFC100410041004080807F0000096
:1058A00010041FFC1104110417C410040818000090
:1058B00010041FFC1104110017C0100008000000A4
:1058C00003E00C181004100410441C780040000081
:1058D00010041FFC10840080008010841FFC100442
:1058E0000000100410041FFC10041004000000004D
:1058F00000030001100110011FFE10001000000045
:1059000010041FFC110403801464181C1004000010
:1059100010041FFC1004000400040004000C00002C
:1059200010041FFC1F0000FC1F001FFC10040000DF
:1059300010041FFC0C04030000E010181FFC1000F2
:1059400007F00808100410041004080807F000000D
:1059500010041FFC10841080108010800F000000C5
:1059600007F0081810241024101C080A07F2000081
:1059700010041FFC1104110011C011300E0C0004A2
:1059800000000E1C11041084108410441C38000008
:105990001800100010041FFC100410001800000074
:1059A00010001FF810040004000410041FF8100079
:1059B00010001E0011E0001C007013801C0010007D
:1059C0001FC0103C00E01F0000E0103C1FC00000A2
:1059D0001004180C163401C001C01634180C100441
:1059E00010001C00130400FC13041C001000000035
:1059F0000804101C1064108413041C041018000008
:105A00000000000000007FFE400240024002000053
:105A1000000030000C0003800060001C0003000048
:105A200000004002400240027FFE00000000000033
:105A30000000000020004000400040002000000066
:105A4000000100010001000100010001000100014E
:105A500000004000400020000000000000000000A6
:105A600000000098012401440144014400FC0004AA
:105A700010001FFC00880104010400880070000071
:105A80000000007000880104010401040088000087
:105A90000000007000880104010411081FFC0004CC
:105AA000000000F8014401440144014400C8000022
:105AB0000000010401040FFC11041104110018007E
:105AC000000000D601290129012901C901060000B1
:105AD00010041FFC008401000100010400FC00040C
