:020000040800F2
:10000000E80900202D020008251D00081D1D00081C
:10001000211D0008750700086D2100080000000080
:10002000000000000000000000000000511D00085A
:10003000790700080000000043020008450200089C
:10004000470200084702000847020008470200086C
:10005000470200084702000847020008470200085C
:10006000470200084702000847020008470200084C
:10007000470200084702000847020008470200083C
:10008000470200084702000847020008470200082C
:10009000470200084702000847020008470200081C
:1000A000470200084702000847020008470200080C
:1000B0004702000847020008551D000847020008D3
:1000C00047020008470200084702000847020008EC
:1000D00047020008F1200008152100084702000827
:1000E00047020008470200084702000847020008CC
:1000F00047020008470200084702000847020008BC
:1001000047020008470200084702000847020008AB
:10011000470200084702000847020008470200089B
:10012000470200084702000847020008470200088B
:1001300000F002F800F06BF80AA090E8000C82448E
:100140008344AAF10107DA4501D100F060F8AFF26B
:10015000090EBAE80F0013F0010F18BFFB1A43F0A5
:1001600001031847F09B0000109C00000A444FF068
:10017000000C10F8013B13F0070408BF10F8014B06
:100180001D1108BF10F8015B641E05D010F8016B4B
:10019000641E01F8016BF9D113F0080F1EBF10F8AF
:1001A000014BAD1C0C1B09D16D1E58BF01F801CBD2
:1001B000FAD505E014F8016B01F8016B6D1EF9D555
:1001C0009142D6D37047000000230024002500266A
:1001D000103A28BF78C1FBD8520728BF30C148BFAA
:1001E0000B607047642900F09F80752900F09C80A7
:1001F000782900F0D580632900F05082732900F03F
:100200005582002070471FB51FBD10B510BD00F00E
:100210007FFA1146FFF7F7FF05F0DAF800F09DFAD4
:1002200003B4FFF7F2FF03BC01F0C5FF09488047A4
:1002300009480047FEE7FEE7FEE7FEE7FEE7FEE7C8
:10024000FEE7FEE7FEE7FEE704480549054A064BE0
:1002500070470000531D000831010008E80300202A
:10026000E8090020E8050020E805002070470000AC
:100270000FB4044910B503AA029800F01BFA10BC91
:100280005DF814FB0800002070B50446856900681D
:10029000C10601D5302600E02026C00707D070BD7A
:1002A000D4E9012130469047206A401C20626D1E2F
:1002B000F6D570BD70B5044685690078C00707D1D2
:1002C00070BDD4E9012120209047206A401C2062A3
:1002D0006D1EF6D570BD70B50C460546012A05D0D9
:1002E0002878800600D5EA69002302E0012305E0B2
:1002F0005B1C934202D2E05C0028F9D1A869E618A1
:10030000C01AA861286A184428622846FFF7BCFF73
:1003100004E0D5E9012114F8010B9047B442F8D369
:100320002846FFF7C7FF70BD2DE9F04106460024BF
:1003300010687529314616A510D0AFF3008000284B
:1003400002DA404213A507E031688A0701D512A5F9
:1003500002E0490704D511A5012401E0AFF30080B4
:1003600000210A2206F1240709E0B0FBF2FCB0FBF1
:10037000F2F302FB1C00303078541846491C002868
:10038000F3D123462A463046BDE8F04100F023B9B8
:10039000000000002D0000002B00000020000000E5
:1003A00070B504460D4621461068AFF300802188E1
:1003B000090502D50F4A7A4402E00E4A7A440E3209
:1003C000002104F1240305E000F00F060009965D0A
:1003D0005E54491C0028F7D120780023000704D57B
:1003E000702D02D009B1022311322046BDE87040C1
:1003F00000F0F1B87E9800002DE9F05F89460446D0
:100400004FF0000ADFF874B1FB44C0F820A020468A
:10041000E1688847002874D0252806D0D4E9012156
:100420009047206A401C2062F1E700265F46204684
:10043000E16888472028054607DB312D05D2781969
:1004400010F8200C08B10643F1E7B00701D526F0FB
:100450000406C4F81CA00027C4F818A02A2D09D04F
:10046000284601F0A1FE38B304EB8708303DC8F8F8
:10047000185019E059F8041B204604EB87029161DB
:10048000E1688847012F054618D1E069002820DA85
:1004900026F020061DE0D8F8180000EB800005EBE0
:1004A00040003038C8F818002046E1688847054603
:1004B00001F07AFE0028EED1012F0AD02E2D08D1AE
:1004C0002046E16888477F1C0546022F46F020063B
:1004D000C4DBA069002803DA404246F00106A061AF
:1004E000F00701D026F010066C2D0BD0682D09D036
:1004F0004C2D39D06A2D35D0742D35D07A2D33D08E
:1005000016E038E0E1682F4620468847B8420546A5
:1005100009D16C2F26D04FF48060E1680643204655
:100520008847054604E06C2F1AD04FF480700643CC
:100530000DB3A5F14100192802D8203546F4006614
:100540004A462946204626604E46FFF74BFE80B1BC
:1005500001280BD0F61D26F0070000F1080956E728
:100560004020E4E78020D8E70020D6E706F1040920
:100570004DE7284652E7206ABDE8F09F54980000F6
:100580004FF0000200B5134694469646203922BF2C
:10059000A0E80C50A0E80C50B1F12001BFF4F7AF77
:1005A000090728BFA0E80C5048BF0CC05DF804EB59
:1005B000890028BF40F8042B08BF704748BF20F8C7
:1005C000022B11F0804F18BF00F8012B70477047C5
:1005D0007047704770472DE9F0470D46994692469F
:1005E000044600F124080168880604D5E06921F07A
:1005F0001001216000E00120A84201DD471B00E05E
:100600000027A1697A1902EB0900081AA061207875
:10061000C00602D42046FFF737FE002608E0D4E9E2
:1006200001211AF806009047206A401C761C2062BF
:100630004E45F4DB2078C0060AD52046FFF724FE9D
:1006400006E0D4E9012130209047206A401C206256
:10065000381EA7F10107F4DC07E0D4E9012118F8FE
:1006600005009047206A401C2062281EA5F1010564
:10067000F3DC2046FFF71EFE2078000602D502209C
:10068000BDE8F0870120FBE710B5436913B1AFF374
:10069000008001E0FFF71FFE012010BD127800F17D
:1006A00024010A7000224A700122EDE711684FF020
:1006B000FF32E9E7074B70B50D467B4400F011F8B7
:1006C0000446284600F020F810B14FF0FF3070BD0E
:1006D000204670BDAB1B000001694A1C026108780E
:1006E000704700B58FB0CDE9013100210591054972
:1006F0007944CDE9031011466846FFF77DFE0FB03F
:1007000000BD0000E5FFFFFF007B00F080007047A8
:10071000754600F02BF8AE4605006946534620F0BA
:100720000700854618B020B5FFF78EFDBDE82040D4
:100730004FF000064FF000074FF000084FF0000B9D
:1007400021F00701AC46ACE8C009ACE8C009ACE850
:10075000C009ACE8C0098D46704710B50446AFF338
:1007600000802046BDE81040FFF75ABD00487047A2
:100770008803002000BFFEE77047000070B5044604
:10078000B3F5804F13D1D1E9000540EA05108D681B
:1007900040EA05208D6928438D8940EA054054F8D8
:1007A0002250064E3540284344F8220003E06FF003
:1007B000704044F82200002070BD00000000F0CF1F
:1007C00070B50246086852F8200020F001000E685B
:1007D00042F826008868082801D1402300E0002361
:1007E000486818438E683043CE6830430E69304302
:1007F0004E693043CE6930430E6A30434E6A30430F
:100800008E6A3043CE6A30430E6B40EA0604886934
:100810000443486B0443074D45F4806545F4E025E7
:10082000086852F82000A84320430E6842F82600CA
:10083000002070BD7FFB080010B50346D1E900041D
:1008400040EA04108C6840EA04208C8940EA0444A1
:10085000088A401E44EA0054087D801E44EA006075
:100860008C692043541C53F8244004F04044204336
:10087000541C43F82400002010BD000070B504464D
:10088000002594F82100022803D00420A06301254C
:10089000C1E02068006820F00E0021680860206830
:1008A000006820F00100216808605C4920688842E7
:1008B00052D95A4978392068884201D1012047E04D
:1008C000564964392068884201D1102040E05349DC
:1008D00050392068884201D1801539E04F493C39B0
:1008E0002068884201D1801432E04C4928392068C0
:1008F000884202D14FF480302AE0484914392068F8
:10090000884202D14FF4801022E044492068884296
:1009100001D140041CE042492068884201D10120F5
:1009200016E03F4914312068884201D110200FE0C1
:100930003B4928312068884201D1801508E03849B8
:100940003C312068884201D1801401E04FF48030AE
:100950003349091F086051E03049783920688842DE
:1009600001D1012047E02D4964392068884201D136
:10097000102040E0294950392068884201D1801573
:1009800039E026493C392068884201D1801432E0A0
:10099000224928392068884202D14FF480302AE069
:1009A0001E4914392068884202D14FF4801022E099
:1009B0001A492068884201D140041CE01849206887
:1009C000884201D1012016E015491431206888427F
:1009D00001D110200FE0124928312068884201D14E
:1009E000801508E00E493C312068884201D180140E
:1009F00001E04FF48030094980394860012084F8D3
:100A0000210000BF002084F8200000BF606B10B1FF
:100A10002046616B8847284670BD00008000024078
:100A2000080402402DE9F847024600239C467BE17A
:100A30004FF0010808FA03F4D1F8008008EA040036
:100A4000A0427DD1DFF8F4A2D1F80480A8EB0A0916
:100A5000D0453AD014DCB8F1030F50D009DCB8F11E
:100A6000000F31D0B8F1010F1CD0B8F1020F49D1FD
:100A700020E0B8F1110F18D0B8F1120F42D11EE0EA
:100A8000B9F5881F25D006DCB9F5803F20D0B9F52F
:100A9000801F37D11AE0B9F5001F18D0B9F5041F2F
:100AA00030D117E0D1F80CC02DE0D1F80C8008F15E
:100AB000040C28E0D1F80C8008F1080C23E0D1F8F0
:100AC0000C8008F10C0C1EE000BF00BF00BF00BF8F
:100AD00000BF00BFD1F80880B8F1000F02D14FF07D
:100AE000040C0BE0D1F80880B8F1010F03D14FF0EE
:100AF000080C146102E04FF0080C546103E04FF061
:100B0000000C00E000BF00BFFF2801D8904601E0C4
:100B100002F104084646FF2802D84FEA830803E0A2
:100B2000A3F108084FEA88084746D6F800804FF03E
:100B30000F0909FA07F928EA09080CFA07F900E091
:100B40007AE048EA0908C6F80080D1F8048008F085
:100B50008058B8F1805F6FD100BFDFF8E481D8F82A
:100B6000188048F00108DFF8D891C9F81880C84605
:100B7000D8F8188008F00108CDF8008000BF00BF49
:100B80004FEAB9384FEA930958F829504FEA837869
:100B90004FEA18794FF00F0808FA09F825EA080516
:100BA000DFF8A081424502D14FF0000824E0DFF8D1
:100BB0009881424502D14FF001081DE0DFF88C8199
:100BC000424502D14FF0020816E0DFF88481424529
:100BD00002D14FF003080FE0DFF87881424502D1DF
:100BE0004FF0040808E0DFF87081424502D14FF071
:100BF000050801E04FF006084FEA83794FEA1979BA
:100C000008FA09F848EA0505DFF850814FEA930928
:100C100048F82950D1F8048008F48038B8F5803FAE
:100C20000BD1DFF83C81D8F8008048EA0008DFF8F3
:100C30003091C9F800800AE075E0DFF82481D8F827
:100C4000008028EA0008DFF81891C9F80080D1F880
:100C5000048008F40038B8F5003F0ED1DFF80081B9
:100C600008F10408D8F8008048EA0008DFF8F0909E
:100C700009F10409C9F800800DE0DFF8E48008F10B
:100C80000408D8F8008028EA0008DFF8D49009F1B9
:100C90000409C9F80080D1F8048008F48018B8F578
:100CA000801F0ED1DFF8B88008F10808D8F800805E
:100CB00048EA0008DFF8A89009F10809C9F800809F
:100CC0000DE0DFF89C8008F10808D8F8008028EAD9
:100CD0000008DFF88C9009F10809C9F80080D1F804
:100CE000048008F40018B8F5001F0ED1DFF87080FA
:100CF00008F10C08D8F8008048EA0008DFF8609096
:100D000009F10C09C9F800800DE0DFF8548008F102
:100D10000C08D8F8008028EA0008DFF8449009F1B0
:100D20000C09C9F800805B1CD1F8008028FA03F890
:100D3000B8F1000F7FF47CAEBDE8F8870000111019
:100D40000010024000080140000C0140001001406A
:100D50000014014000180140001C0140080001403F
:100D600000040140024693680B400BB1012000E0F3
:100D70000020704710B5C26821EA020302EA0104AC
:100D800043EA0443036110BD0AB1016101E00B04B1
:100D900003617047014800687047000010000020A0
:100DA00010B50848006840F01000064908600520AA
:100DB00000F080F80F2000F007F800F02BF800207A
:100DC00010BD00000020024070B504460E480078B7
:100DD0004FF47A71B1FBF0F00C490968B1FBF0F502
:100DE000284600F073FC08B1012070BD102C07D21A
:100DF00000222146501E00F01EF80548046001E064
:100E00000120F2E70020F0E7180000200000002099
:100E100014000020704701460846002809DB00F056
:100E20001F0301229A4043099B0003F1E023C3F80A
:100E3000002100BF70472DE9F05F80460D46164641
:100E4000002701F095F9074639462A46334601F056
:100E50000700C0F1070ABAF1040F02D94FF0040AE3
:100E600001E0C0F1070AD14600F1040ABAF1070F08
:100E700002D24FF0000A01E0A0F1030AD4464FF07D
:100E8000010A0AFA09FAAAF1010A0AEA020A0AFAA6
:100E90000CFA4FF0010B0BFA0CFBABF1010B0BEA58
:100EA000030B4AEA0B042146404601F069F9BDE80C
:100EB000F09F000000BF00F00702064B19684FF6D4
:100EC000FF031940044B0B4343EA0221014B196015
:100ED00000BF70470CED00E00000FA0570B5044655
:100EE0000D460CB9012070BD5A48006800F007009B
:100EF000A8420ED25748006820F007002843554901
:100F000008600846006800F00700A84201D00120F0
:100F1000E9E7207800F0020002281DD1207800F0D7
:100F20000400042805D14C48406840F4E0604A4978
:100F30004860207800F00800082805D1464840683D
:100F400040F46050444948604348406820F0F00055
:100F5000A168084340494860207800F0010078B358
:100F60006068012806D13C48006800F4003090B960
:100F70000120B8E76068022806D13748006800F011
:100F8000007040B90120AEE73348006800F002006D
:100F900008B90120A7E73048406820F003006168E5
:100FA00008432D494860FFF7F5FE064609E0FFF7C4
:100FB000F1FE801B41F28831884202D9032092E77A
:100FC00007E02548406800F00C006168B0EB810F35
:100FD000EDD12048006800F00700A8420ED91D4856
:100FE000006820F0070028431A4908600846006896
:100FF00000F00700A84201D0012074E7207800F03B
:101000000400042807D11448406820F4E060E16837
:10101000084311494860207800F00800082808D1EA
:101020000D48406820F46050216940EAC1000A4937
:10103000486000F03FF808494968C1F30311074AC6
:10104000515CC8400649086006480068FFF7BCFECE
:10105000002048E70020024000100240A06C000879
:1010600000000020140000200148006870470000C4
:101070000000002000B5FFF7F7FF04494968C1F3FD
:101080000221034A515CC84000BD0000001002402C
:10109000B06C000800B5FFF7E7FF04494968C1F3E9
:1010A000C221034A515CC84000BD0000001002404C
:1010B000B06C0008F0B585B00FF26C0C9CE8E01045
:1010C00001A8A0E8E0101CA52D68009500210022D1
:1010D000002300240020194D696801F00C05F5B1CA
:1010E000042D02D0082D19D101E0154819E001ADF9
:1010F000C1F38346AC5D01F4803555B10F4D6D6889
:10110000C5F340451DF805200D4D6543B5FBF2F3D1
:1011100002E00C4D04FB05F3184602E000BF08484E
:1011200000BF00BF05B0F0BD0203040506070809B3
:101130000A0B0C0D0E0F10100102000000100240EF
:1011400000127A0000093D00F8B504460CB90120F0
:10115000F8BD207800F00100002878D0F8484068F9
:1011600000F00C0004280CD0F548406800F00C009A
:10117000082811D1F248406800F48030B0F5803F73
:101180000AD1EF48006800F4003000285FD06068A2
:1011900000285CD10120DBE700BF6068B0F5803F2C
:1011A00006D1E748006840F48030E549086028E04F
:1011B000606858B9E248006820F48030E04908606F
:1011C0000846006820F4802008601AE06068B0F5E6
:1011D000A02F0BD1DA48006840F48020D84908607D
:1011E0000846006840F4803008600AE0D44800688F
:1011F00020F48030D24908600846006820F480203E
:10120000086000BF606888B1FFF7C4FD054606E0CE
:10121000FFF7C0FD401B642801D9032098E7C848A8
:10122000006800F400300028F2D010E0FFF7B2FDB3
:10123000054606E0FFF7AEFD401B642801D90320F8
:1012400086E7BF48006800F400300028F2D120781B
:1012500000F00200022857D1B948406800F00C00A5
:1012600050B1B748406800F00C00082818D1B448C5
:10127000406800F4803098B9B148006800F002007E
:1012800020B12069012801D0012061E7AC48006845
:1012900020F0F800616940EAC100A949086033E024
:1012A0002069E8B10120A7490860FFF773FD0546F2
:1012B00006E0FFF76FFD401B022801D9032047E736
:1012C0009F48006800F002000028F2D09C480068A7
:1012D00020F0F800616940EAC1009949086013E014
:1012E000002098490860FFF755FD054606E0FFF726
:1012F00051FD401B022801D9032029E790480068CE
:1013000000F002000028F2D1207800F00800082840
:101310002DD1A069B8B101208B490860FFF73AFDD3
:10132000054606E0FFF736FD401B022801D90320E1
:101330000EE78348406A00F002000028F2D0012046
:1013400000F0F2FC13E000207F490860FFF722FD67
:10135000054606E0FFF71EFD401B022801D90320C9
:10136000F6E67748406A00F002000028F2D12078C3
:1013700000F00400042873D100277148C06900F010
:10138000805070B900BF6E48C06940F080506C4911
:10139000C8610846C06900F08050009000BF00BFDF
:1013A00001276A48006800F48070B0B96748006897
:1013B00040F4807065490860FFF7ECFC054606E0E4
:1013C000FFF7E8FC401B642801D90320C0E65F4812
:1013D000006800F480700028F2D000BFE0680128A7
:1013E00006D15748006A40F001005549086227E0DD
:1013F000E06858B95248006A20F00100504908627C
:101400000846006A20F00400086219E0E068052838
:101410000BD14B48006A40F0040049490862084675
:10142000006A40F0010008620AE04548006A20F0C6
:101430000100434908620846006A20F0040008627F
:1014400000BFE068A0B1FFF7A5FC054609E0FFF783
:10145000A1FC401B41F28831884202D9032077E683
:1014600022E03748006A00F002000028EFD012E0C6
:10147000FFF790FC054608E0FFF78CFC401B41F2AB
:101480008831884201D9032062E62D48006A00F0C5
:1014900002000028F0D1012F05D12948C06920F0B1
:1014A00080502749C86100BFE069C8B3244840683C
:1014B00000F00C00082860D0E069022848D1002024
:1014C00020490866FFF766FC054606E0FFF762FC68
:1014D000401B022801D903203AE61948006800F0B1
:1014E00000700028F2D1206AB0F5803F07D114487F
:1014F000406820F40030A168084311494860D4E9ED
:10150000080108430E49496821F4741108430C4945
:10151000486001200B490866FFF73CFC054607E0E0
:101520003DE0FFF737FC401B022801D903200FE6FE
:101530000348006800F000700028F2D02FE000009F
:10154000001002400000424280044242007000400D
:10155000002014490866FFF71DFC054606E0FFF76A
:1015600019FC401B022801D90320F1E50E48006850
:1015700000F000700028F2D111E0E069012800D1EC
:10158000E6E50948466806F48031206A814204D1C4
:1015900006F47011606A814201D00120D8E5002074
:1015A000D6E50000000042420010024070B504463B
:1015B0000E4615461CB1A069B0F5807F01D101200F
:1015C00070BD94F8410028B9002084F840002046FE
:1015D00000F020F804F108012068FFF7F1F8314627
:1015E000A2682068FFF728F92946236BD4E9010295
:1015F000FFF7C4F8A168206850F8210040F001000E
:10160000A268216841F82200012084F841000020EE
:10161000D6E7000010B586B0044600BF1E484069FA
:1016200040F480701C4948610846406900F48070AD
:10163000019000BF00BF00BF0846806940F0200055
:1016400088610846806900F02000019000BF00BF5B
:1016500000BF0846806940F0400088610846806904
:1016600000F04000019000BF00BF4CF203700290F8
:1016700002200390012004900320059002A907484E
:10168000FFF7D0F94FF68070029002A90448FFF7E7
:10169000C9F906B010BD000000100240001401405E
:1016A00000180140042808D14FF0E021096941F0F9
:1016B00004014FF0E022116107E04FF0E0210969D9
:1016C00021F004014FF0E0221161704770B504462B
:1016D0002546681EB0F1807F01D301200FE0681E0F
:1016E0004FF0E02148610F214FF0FF3000F048FD3E
:1016F00000204FF0E021886107200861002070BDC4
:1017000010B504460CB9012010BD94F83D0028B96D
:10171000002084F83C00204600F025F8022084F8E0
:101720003D00211D206800F037FB012084F84600B1
:1017300000BF84F83E0001213F20015540200155A3
:101740004120015500BF00BF012084F84200432022
:101750000155442001554520015500BF012084F862
:101760003D000020D0E77047014691F83D00012878
:1017700001D001207047022081F83D000868C06850
:1017800040F001000B68D860164B0868984213D0EF
:10179000154B086898420FD00868B0F1804F0BD005
:1017A000124B0868984207D0114B0868984203D042
:1017B000104B086898420CD10868806800F0070256
:1017C000062A0CD00868006840F001000B68186019
:1017D00005E00868006840F001000B681860002010
:1017E000C8E70000002C0140003401400004004024
:1017F00000080040000C0040704700002DE9F04751
:101800000446206805682068C668206847694FF06C
:101810000008C14605F00F08B8F1000F0AD105F025
:10182000200038B106F0200020B1204600F02CFB4B
:10183000BDE8F087B8F1000F71D007F0010018B9CA
:1018400006F4907000286AD005F0010030B106F46B
:10185000807018B1E06B40F00100E06305F0040017
:1018600030B107F0010018B1E06B40F00200E06316
:1018700005F0020030B107F0010018B1E06B40F054
:101880000400E06305F0080048B106F0200010B93C
:1018900007F0010018B1E06B40F00800E063E06B76
:1018A00068B305F0200028B106F0200010B12046F2
:1018B00000F0EAFA20684069C0F38019E06B00F09C
:1018C000080010B9B9F1000F22D0204600F0BCFA90
:1018D0002068406900F04000B0B12068406920F005
:1018E000400021684861606B50B11848616B4863E3
:1018F000606BFEF7C3FF10B1606B416B88470CE073
:101900002046FFF779FF08E02046FFF775FF04E067
:101910002046FFF771FF0020E06389E7FFE705F04D
:10192000800030B106F0800018B1204600F07AFB4C
:101930007EE705F0400030B106F0400018B12046C7
:1019400000F092FA74E700BF72E70000351E00084D
:1019500010B504460CB9012010BDA06900B100E02B
:1019600000BF94F8390028B9002084F838002046D8
:1019700000F028F8242084F839002068C06820F49A
:1019800000502168C860204600F0CEFA2068006947
:1019900020F49040216808612068406920F02A0006
:1019A000216848612068C06840F400502168C86020
:1019B0000020E063202084F8390084F83A000020F9
:1019C000CAE7000010B586B004462849206888425E
:1019D0004AD100BF00BF2648806940F00400244976
:1019E00088610846806900F00400019000BF00BFD4
:1019F00000BF00BF00BF0846806940F00400886156
:101A00000846806900F00400019000BF00BF00BFDD
:101A100000BF00BF0846806940F4804088610846E6
:101A2000806900F48040019000BF00BF00BF4815EE
:101A3000029002200390012004900320059002A947
:101A40000C48FEF7EFFF4FF48060029000200390F7
:101A500002A90848FEF7E6FF2520FFF7DCF903227C
:101A600011462520FFF7E7F906B010BD0038014008
:101A700000100240000801402DE9F84F04460E46D0
:101A8000174699464FF0000A94F83A0020285DD195
:101A900006B117B90120BDE8F88F00BF94F83800EF
:101AA000012801D10220F6E7012084F8380000BFA8
:101AB0000020E063222084F83A00FFF76BF98246A9
:101AC000A785E785A068B0F5805F04D1206910B9CB
:101AD0000025B04602E035464FF0000800BF002068
:101AE00084F8380000BF29E0534600222021204618
:101AF000CDF8009000F0C6FA08B10320CBE745B955
:101B000020684068C0F30800A8F8000008F1020847
:101B100011E0A068B0F5805F03D0A06828B9206903
:101B200018B920684068287004E02068406800F018
:101B30007F0028706D1CE08D401EE085E08D002840
:101B4000D2D1202084F83A000020A4E70220A2E7A6
:101B500010B5034693F83A0020282FD101B10AB9F5
:101B6000012010BD00BF93F83800012801D10220E8
:101B7000F7E7012083F8380000BF99629A85DA857B
:101B80000020D863222083F83A0000BF002083F8A9
:101B9000380000BF1868C06840F480701C68E060BE
:101BA0001868406940F001001C6860611868C068EE
:101BB00040F020001C68E0600020D2E70220D0E75F
:101BC0001D4A0168914236D11C49098801F400413F
:101BD00089BB1A49098801F4804171B11849097813
:101BE0000A2903D00021154A118024E013490988ED
:101BF00041F40041114A11801DE0114909780D2975
:101C000006D10E49098841F480410C4A118012E046
:101C10000B490978094A1288C2F30D02094B9954FD
:101C200006490988491C054A118011460988C729B7
:101C300001DD002111807047003801400C000020B8
:101C40000E000020600100202DE9F84F04460E46EA
:101C5000174699464FF0000A94F8390020285AD1C7
:101C600006B117B90120BDE8F88F00BF94F838001D
:101C7000012801D10220F6E7012084F8380000BFD6
:101C80000020E063212084F83900FFF783F88246C2
:101C9000A784E784A068B0F5805F04D1206910B9FB
:101CA0000025B04602E035464FF0000800BF002096
:101CB00084F8380000BF1BE05346002280212046F4
:101CC000CDF8009000F0DEF908B10320CBE745B96C
:101CD000B8F80000C0F308002168486008F1020865
:101CE00003E02878216848606D1CE08C401EE08489
:101CF000E08C0028E0D15346002240212046CDF858
:101D0000009000F0BFF908B10320ACE7202084F870
:101D100039000020A7E70220A5E7704700BFFEE7D3
:101D200000BFFEE77047000008B508490968C90808
:101D30004FF47A72B1FBF2F14143009100BF00BF52
:101D400000994A1E00920029F9D108BD0000002028
:101D50007047704710B50E480068C06800F0010079
:101D600078B10C4908698047002009490968486230
:101D700000BF642006490968C86264210448C16044
:101D800000BF6FF0010002490968086110BD000042
:101D9000400300206C00002010B50268204B9842E0
:101DA0000ED0204B98420BD0B0F1804F08D01E4B84
:101DB000984205D01D4B984202D01D4B984203D14A
:101DC00022F070024B681A43154B98420ED0154B07
:101DD00098420BD0B0F1804F08D0134B984205D0F9
:101DE000124B984202D0124B984203D122F4407217
:101DF000CB681A4322F080034C6943EA0402026074
:101E00008B68C3620B688362054B984202D0054B16
:101E1000984201D10B6903630123436110BD0000A7
:101E2000002C014000340140000400400008004044
:101E3000000C004070B505466C6A0020E085E08427
:101E40002046FFF7D9FC70BD0168C96821F4907184
:101E50000268D1600168496921F00101026851619D
:101E6000202180F83A10704710B504462068C068F9
:101E700020F040002168C860202084F83900204606
:101E8000FFF74BFF002010BD70B5044694F83A00F0
:101E9000222847D1A068B0F5805F0CD1206950B9E5
:101EA0000025A66A20684068C0F308003080A06A58
:101EB000801CA06215E0A56A0026A068B0F5805FCE
:101EC00003D0A06828B9206918B920684068287034
:101ED00004E02068406800F07F002870A06A401C81
:101EE000A062E08D401E80B2E085C8B92068C0685D
:101EF00020F020002168C8602068C06820F480704D
:101F00002168C8602068406920F0010021684861AC
:101F1000202084F83A002046FFF752FE002070BDD2
:101F20000020FCE70220FAE770B504462168096941
:101F300021F44051E2681143226811612269A168CD
:101F40001143626941EA02052168C96841F20C62E5
:101F5000914329432268D1602168496921F4407185
:101F6000A2691143226851612D4A2168914202D130
:101F7000FFF790F801E0FFF77DF800EBC00101EBFF
:101F8000001162689200B1FBF2F100EBC00202EBBB
:101F9000001263689B00B2FBF3F26423B2FBF3F21E
:101FA00002EBC20303EB0212A1EB8201322202EB2D
:101FB00001116422B1FBF2F101F0F00100EBC0026B
:101FC00002EB001263689B00B2FBF3F26423B2FBE6
:101FD000F3F201EB021200EBC00101EB00116368A8
:101FE0009B00B1FBF3F100EBC00303EB0013666849
:101FF000B600B3FBF6F36426B3FBF6F303EBC306BC
:1020000006EB0313A1EB8301322303EB01116423DD
:10201000B1FBF3F101F00F0111442268916070BD32
:1020200000380140014691F83900212828D18868FC
:10203000B0F5805F0BD1086948B90A6A1088C0F30F
:1020400008000B685860086A801C086205E00B6A8B
:10205000581C086218780B685860C88C401E80B203
:10206000C88458B90868C06820F080000B68D86040
:102070000868C06840F040000B68D86000207047D6
:102080000220FCE72DE9F04104460D46174698462C
:10209000069E21E0701CF8B12EB1FEF77BFEA0EB8E
:1020A0000800B04218D92068C06820F4D0702168B8
:1020B000C8602068406920F0010021684861202044
:1020C00084F8390084F83A0000BF002084F8380012
:1020D00000BF0320BDE8F081206800682840A842C6
:1020E00001D1012000E00020B842D3D00020F1E768
:1020F00010B50648FFF782FB00BF012204490348E0
:10210000FFF726FD0028F8D110BD000028020020AE
:102110000E00002008B5114800680068C0F34010A8
:10212000D8B14FF47A73012269460C48FFF7A4FC3A
:1021300000BF20210A48FEF71DFE00BF09480078B5
:1021400040280ADA9DF800000749064A12788854A8
:1021500004480078401C0349087008BDC0020020F4
:10216000000C0140250000200003002000BFFEE716
:1021700002480068C0F30220704700000CED00E048
:1021800010B5002804DB0A07130E054A135406E0B5
:102190000A07140E034A00F00F031B1FD45410BD8E
:1021A00000E400E018ED00E030380A2801D20120F8
:1021B00070470020704700BF7047000010B504460C
:1021C00000204FF0E0210861FFF76CFA2046E1178C
:1021D00004EB5171C1F3CF01014A118010BD000021
:1021E0000400002070B504464FF47A7094FBF0F5BB
:1021F00094FBF0F100FB114603E0074800F00EF8F5
:102200006D1E002DF9D12EB14FF47A7106FB01F04D
:1022100000F004F870BD000040420F000146114A72
:1022200012884A434FF0E0235A6100229A611A460D
:10223000126942F001021A6100BF4FF0E0221069FA
:1022400000F001021AB100F48032002AF5D04FF0FC
:10225000E022126922F001024FF0E0231A6100220D
:102260009A6170470400002000BF054A126802F01E
:102270004002002AF9D0C2B2014B1B1D1A60704700
:102280000038014000B585B000BF00BF3648806906
:1022900040F04000344988610846806900F0400001
:1022A000009000BF00BF00BF00BF00BF08468069AC
:1022B00040F0400088610846806900F040000090CE
:1022C00000BF00BF00BF00BF00BF0846806940F0EC
:1022D000400088610846806900F04000009000BF1F
:1022E00000BF00BF00BF00BF0846806940F0040087
:1022F00088610846806900F00400009000BF00BFBC
:1023000000BF1020019000200290022003900320C3
:10231000049001A91548FEF785FB082001900020D4
:102320000290012003900320049001A90F48FEF7BA
:1023300079FB0420019000200290012003900320EB
:10234000049001A90948FEF76DFB012001900020CF
:102350000290022003900320049001A90448FEF794
:1023600061FB05B000BD00000010024000180140F4
:102370000008014070B50446002514B101202C4925
:1023800008702B480078002836D010212948FEF725
:10239000E9FC01280FD008212648FEF7E3FC50B1E4
:1023A00004212448FEF7DEFC28B101212248FEF773
:1023B000D9FC012820D10A20FFF714FF00201C4976
:1023C000087010211B48FEF7CDFC012800D1012523
:1023D00008211848FEF7C6FC00B90225042115485B
:1023E000FEF7C0FC00B9032501211348FEF7BAFC33
:1023F00001281AD1042518E010210E48FEF7B2FC7E
:1024000098B908210B48FEF7ADFC01280DD1042135
:102410000848FEF7A7FC012807D101210648FEF76E
:10242000A1FC10B9012002490870284670BD0000C7
:1024300024000020001801400008014070B5044647
:10244000002609480588408845430021084602F0D7
:102450005BFD02F063FF00BF02E004480480761CCD
:10246000AE42FAD370BD0000B00200200008006C3C
:1024700010B5044649488471002C45D1F0204749E5
:1024800008804FF4A07048800846808845F21051BB
:10249000884210D14FF43050404908814FF4285001
:1024A00048814FF42C5088814FF4F07008804FF42D
:1024B000487048801AE03948808841F663118842A4
:1024C0000DD12C20354908812B2048812A20888174
:1024D0004FF4F07008804FF44870488006E02C20DC
:1024E0002E4908812A2048812B2088812B4880880A
:1024F00045F2103188424CD14FF4A0702749088032
:102500004FF4F070488044E04FF4A07023490880F5
:10251000F02048800846808845F21051884210D14A
:102520004FF430501D4908814FF4285048814FF432
:102530002C5088814FF4487008804FF4F070488028
:102540001AE01648808841F6631188420DD12C208C
:10255000124908812A2048812B2088814FF4487035
:1025600008804FF4F070488006E02C200B49088169
:102570002A2048812B2088810848808845F2103124
:10258000884206D14FF4F070044908804FF4A070DF
:102590004880002002F0A0FB10BD0000B002002027
:1025A00070B505460E4614463146284602F0ACFC8E
:1025B00002F0B4FE01490C8070BD00000008006C00
:1025C00010B5CF2002F09EFE002002F08FFEC12049
:1025D00002F08CFE302002F089FEED2002F092FE27
:1025E000642002F083FE032002F080FE122002F03D
:1025F0007DFE812002F07AFEE82002F083FE852035
:1026000002F074FE102002F071FE7A2002F06EFEDD
:10261000CB2002F077FE392002F068FE2C2002F079
:1026200065FE002002F062FE342002F05FFE022010
:1026300002F05CFEF72002F065FE202002F056FE5C
:10264000EA2002F05FFE002002F050FE002002F0BF
:102650004DFEC02002F056FE1B2002F047FEC120B6
:1026600002F050FE012002F041FEC52002F04AFEB9
:10267000302002F03BFE302002F038FEC72002F08E
:1026800041FEB72002F032FE362002F03BFE482029
:1026900002F02CFE3A2002F035FE552002F026FE14
:1026A000B12002F02FFE002002F020FE1A2002F0DE
:1026B0001DFEB62002F026FE0A2002F017FEA22020
:1026C00002F014FEF22002F01DFE002002F00EFEC9
:1026D000262002F017FE012002F008FEE02002F0A2
:1026E00011FE0F2002F002FE2A2002F0FFFD28203A
:1026F00002F0FCFD082002F0F9FD0E2002F0F6FDCC
:10270000082002F0F3FD542002F0F0FDA92002F0B1
:10271000EDFD432002F0EAFD0A2002F0E7FD0F2064
:1027200002F0E4FD002002F0E1FD002002F0DEFDF9
:10273000002002F0DBFD002002F0D8FDE12002F0D5
:10274000E1FD002002F0D2FD152002F0CFFD1720A0
:1027500002F0CCFD072002F0C9FD112002F0C6FDF9
:10276000062002F0C3FD2B2002F0C0FD562002F02F
:10277000BDFD3C2002F0BAFD052002F0B7FD10209F
:1027800002F0B4FD0F2002F0B1FD3F2002F0AEFDDB
:102790003F2002F0ABFD0F2002F0A8FD2B2002F03D
:1027A000B1FD002002F0A2FD002002F09FFD0120FB
:1027B00002F09CFD3F2002F099FD2A2002F0A2FDCC
:1027C000002002F093FD002002F090FD002002F0B6
:1027D0008DFDEF2002F08AFD112002F093FD78209C
:1027E000FFF700FD292002F08DFD10BD10B5ED2092
:1027F00002F088FD012002F079FDFE2002F076FD56
:10280000EE2002F07FFDDE2002F070FD212002F0BC
:102810006DFDF12002F076FD012002F067FDDF2062
:1028200002F070FD102002F061FDC42002F06AFD8C
:102830008F2002F05BFDC62002F064FD002002F054
:1028400055FDE22002F052FDE22002F04FFDE220B1
:1028500002F04CFDBF2002F055FDAA2002F046FD1B
:10286000B02002F04FFD0D2002F040FD002002F0EC
:102870003DFD0D2002F03AFD002002F037FD112051
:1028800002F034FD002002F031FD192002F02EFD8F
:10289000002002F02BFD212002F028FD002002F094
:1028A00025FD2D2002F022FD002002F01FFD3D201D
:1028B00002F01CFD002002F019FD5D2002F016FD63
:1028C000002002F013FD5D2002F010FD002002F058
:1028D0000DFDB12002F016FD802002F007FD002062
:1028E00002F004FD8B2002F001FD002002F0FEFC4E
:1028F000962002F0FBFC002002F0F8FCB22002F06F
:1029000001FD002002F0F2FC002002F0EFFC0220AA
:1029100002F0ECFC002002F0E9FC032002F0E6FCEF
:10292000002002F0E3FCB32002F0ECFC002002F0F7
:10293000DDFC002002F0DAFC002002F0D7FC0020D1
:1029400002F0D4FC002002F0D1FC002002F0CEFC0A
:10295000002002F0CBFC002002F0C8FC002002F0B6
:10296000C5FC002002F0C2FC002002F0BFFC0020E9
:1029700002F0BCFC002002F0B9FC002002F0B6FC22
:10298000002002F0B3FC002002F0B0FC002002F0B6
:10299000ADFC002002F0AAFC002002F0A7FC002001
:1029A00002F0A4FC002002F0A1FC002002F09EFC3A
:1029B000002002F09BFC002002F098FCB42002F002
:1029C000A1FC8B2002F092FC002002F08FFC9620EC
:1029D00002F08CFC002002F089FCA12002F086FCB1
:1029E000002002F083FCB52002F08CFC022002F0F3
:1029F0007DFC002002F07AFC032002F077FC00202E
:102A000002F074FC042002F071FC002002F06EFC65
:102A1000B62002F077FC002002F068FC002002F0F3
:102A200065FCB72002F06EFC002002F05FFC002085
:102A300002F05CFC3F2002F059FC002002F056FC42
:102A40005E2002F053FC002002F050FC642002F0F3
:102A50004DFC002002F04AFC8C2002F047FC0020D4
:102A600002F044FCAC2002F041FC002002F03EFCED
:102A7000DC2002F03BFC002002F038FC702002F069
:102A800035FC002002F032FC902002F02FFC0020E8
:102A900002F02CFCEB2002F029FC002002F026FCC6
:102AA000DC2002F023FC002002F020FCB82002F021
:102AB00029FC002002F01AFC002002F017FC002084
:102AC00002F014FC002002F011FC002002F00EFCC9
:102AD000002002F00BFC002002F008FC002002F0B5
:102AE00005FCBA2002F00EFC242002F0FFFB0020BF
:102AF00002F0FCFB002002F0F9FB002002F0F6FBE4
:102B0000C12002F0FFFB202002F0F0FB002002F0C9
:102B1000EDFB542002F0EAFB002002F0E7FBFF206F
:102B200002F0E4FB002002F0E1FBC22002F0EAFB2D
:102B30000A2002F0DBFB002002F0D8FB042002F0A8
:102B4000D5FB002002F0D2FBC32002F0DBFB3C20CF
:102B500002F0CCFB002002F0C9FB3A2002F0C6FBD9
:102B6000002002F0C3FB392002F0C0FB002002F07D
:102B7000BDFB372002F0BAFB002002F0B7FB3C207F
:102B800002F0B4FB002002F0B1FB362002F0AEFBF5
:102B9000002002F0ABFB322002F0A8FB002002F084
:102BA000A5FB2F2002F0A2FB002002F09FFB2C20AF
:102BB00002F09CFB002002F099FB292002F096FB1A
:102BC000002002F093FB262002F090FB002002F090
:102BD0008DFB242002F08AFB002002F087FB2420DA
:102BE00002F084FB002002F081FB232002F07EFB38
:102BF000002002F07BFB3C2002F078FB002002F07A
:102C000075FB362002F072FB002002F06FFB3220D1
:102C100002F06CFB002002F069FB2F2002F066FB43
:102C2000002002F063FB2C2002F060FB002002F089
:102C30005DFB292002F05AFB002002F057FB262002
:102C400002F054FB002002F051FB242002F04EFB66
:102C5000002002F04BFB242002F048FB002002F091
:102C600045FB232002F042FB002002F03FFBC42082
:102C700002F048FB622002F039FB002002F036FB34
:102C8000052002F033FB002002F030FB842002F02C
:102C90002DFB002002F02AFBF02002F027FB002091
:102CA00002F024FB182002F021FB002002F01EFBA2
:102CB000A42002F01BFB002002F018FB182002F0F9
:102CC00015FB002002F012FB502002F00FFB002049
:102CD00002F00CFB0C2002F009FB002002F006FBC6
:102CE000172002F003FB002002F000FB952002F009
:102CF000FDFA002002F0FAFAF32002F0F7FA0020C1
:102D000002F0F4FAE62002F0F1FA002002F0EEFA06
:102D1000C52002F0F7FA322002F0E8FA002002F0B3
:102D2000E5FA442002F0E2FA002002F0DFFA652022
:102D300002F0DCFA002002F0D9FA762002F0D6FA8E
:102D4000002002F0D3FA882002F0D0FA002002F02E
:102D5000CDFAC62002F0D6FA202002F0C7FA0020F1
:102D600002F0C4FA172002F0C1FA002002F0BEFA05
:102D7000012002F0BBFA002002F0B8FAC72002F0EE
:102D8000C1FA002002F0B2FA002002F0AFFA0020EF
:102D900002F0ACFA002002F0A9FAC82002F0B2FA60
:102DA000002002F0A3FA002002F0A0FA002002F0B6
:102DB0009DFA002002F09AFAC92002F0A3FA00203E
:102DC00002F094FA002002F091FA002002F08EFA4C
:102DD000002002F08BFA002002F088FA002002F0B6
:102DE00085FA002002F082FA002002F07FFA00202B
:102DF00002F07CFA002002F079FA002002F076FA64
:102E0000002002F073FA002002F070FA002002F0B5
:102E10006DFA002002F06AFA002002F067FAE02062
:102E200002F070FA162002F061FA002002F05EFA59
:102E30001C2002F05BFA002002F058FA212002F078
:102E400055FA002002F052FA362002F04FFA002024
:102E500002F04CFA462002F049FA002002F046FA4D
:102E6000522002F043FA002002F040FA642002F0FF
:102E70003DFA002002F03AFA7A2002F037FA0020F8
:102E800002F034FA8B2002F031FA002002F02EFA20
:102E9000992002F02BFA002002F028FAA82002F074
:102EA00025FA002002F022FAB92002F01FFA0020D1
:102EB00002F01CFAC42002F019FA002002F016FAFF
:102EC000CA2002F013FA002002F010FAD22002F019
:102ED0000DFA002002F00AFAD92002F007FA0020C9
:102EE00002F004FAE02002F001FA002002F0FEF9FC
:102EF000F32002F0FBF9002002F0F8F9E12002F0E3
:102F000001FA162002F0F2F9002002F0EFF91C207D
:102F100002F0ECF9002002F0E9F9222002F0E6F9D3
:102F2000002002F0E3F9362002F0E0F9002002F080
:102F3000DDF9452002F0DAF9002002F0D7F952203D
:102F400002F0D4F9002002F0D1F9642002F0CEF9A9
:102F5000002002F0CBF97A2002F0C8F9002002F03C
:102F6000C5F98B2002F0C2F9002002F0BFF99920C8
:102F700002F0BCF9002002F0B9F9A82002F0B6F97D
:102F8000002002F0B3F9B92002F0B0F9002002F0FD
:102F9000ADF9C42002F0AAF9002002F0A7F9CA2076
:102FA00002F0A4F9002002F0A1F9D22002F09EF96B
:102FB000002002F09BF9D82002F098F9002002F0DE
:102FC00095F9E02002F092F9002002F08FF9F32049
:102FD00002F08CF9002002F089F9E22002F092F967
:102FE000052002F083F9002002F080F90B2002F0A6
:102FF0007DF9002002F07AF91B2002F077F9002019
:1030000002F074F9342002F071F9002002F06EF938
:10301000442002F06BF9002002F068F94F2002F022
:1030200065F9002002F062F9612002F05FF90020EA
:1030300002F05CF9792002F059F9002002F056F90B
:10304000882002F053F9002002F050F9972002F096
:103050004DF9002002F04AF9A62002F047F90020BD
:1030600002F044F9B72002F041F9002002F03EF9E5
:10307000C22002F03BF9002002F038F9C72002F02C
:1030800035F9002002F032F9D12002F02FF90020AA
:1030900002F02CF9D62002F029F9002002F026F9DE
:1030A000DD2002F023F9002002F020F9F32002F0E5
:1030B0001DF9002002F01AF9E32002F023F905209F
:1030C00002F014F9002002F011F90A2002F00EF9C2
:1030D000002002F00BF91C2002F008F9002002F099
:1030E00005F9332002F002F9002002F0FFF8442035
:1030F00002F0FCF8002002F0F9F8502002F0F6F897
:10310000002002F0F3F8622002F0F0F8002002F054
:10311000EDF8782002F0EAF8002002F0E7F88820C5
:1031200002F0E4F8002002F0E1F8972002F0DEF867
:10313000002002F0DBF8A62002F0D8F8002002F010
:10314000D5F8B72002F0D2F8002002F0CFF8C22064
:1031500002F0CCF8002002F0C9F8C72002F0C6F84F
:10316000002002F0C3F8D12002F0C0F8002002F0E5
:10317000BDF8D52002F0BAF8002002F0B7F8DD2043
:1031800002F0B4F8002002F0B1F8F32002F0AEF83B
:10319000002002F0ABF8E42002F0B4F8012002F0C5
:1031A000A5F8002002F0A2F8012002F09FF800200C
:1031B00002F09CF8022002F099F8002002F096F844
:1031C0002A2002F093F8002002F090F83C2002F050
:1031D0008DF8002002F08AF84B2002F087F80020DA
:1031E00002F084F85D2002F081F8002002F07EF801
:1031F000742002F07BF8002002F078F8842002F0BE
:1032000075F8002002F072F8932002F06FF80020A9
:1032100002F06CF8A22002F069F8002002F066F8D3
:10322000B32002F063F8002002F060F8BE2002F044
:103230005DF8002002F05AF8C42002F057F8002090
:1032400002F054F8CD2002F051F8002002F04EF8C0
:10325000D32002F04BF8002002F048F8DD2002F005
:1032600045F8002002F042F8F32002F03FF8002079
:1032700002F03CF8E52002F045F8002002F036F8B4
:10328000002002F033F8002002F030F8002002F0B5
:103290002DF8022002F02AF8002002F027F8292059
:1032A00002F024F8002002F021F83C2002F01EF881
:1032B000002002F01BF84B2002F018F8002002F06A
:1032C00015F85D2002F012F8002002F00FF87420CB
:1032D00002F00CF8002002F009F8842002F006F851
:1032E000002002F003F8932002F000F8002001F023
:1032F000FDFFA22001F0FAFF002001F0F7FFB3204C
:1033000001F0F4FF002001F0F1FFBE2001F0EEFF1C
:10331000002001F0EBFFC42001F0E8FF002001F0E5
:10332000E5FFCD2001F0E2FF002001F0DFFFD32018
:1033300001F0DCFF002001F0D9FFDC2001F0D6FF16
:10334000002001F0D3FFF32001F0D0FF002001F0B6
:10335000CDFFE62001F0D6FF112001F0C7FF0020CD
:1033600001F0C4FF342001F0C1FF002001F0BEFFD6
:10337000562001F0BBFF002001F0B8FF762001F0DD
:10338000B5FF002001F0B2FF772001F0AFFF002071
:1033900001F0ACFF662001F0A9FF002001F0A6FFBC
:1033A000882001F0A3FF002001F0A0FF992001F088
:1033B0009DFF002001F09AFFBB2001F097FF002045
:1033C00001F094FF992001F091FF002001F08EFFA1
:1033D000662001F08BFF002001F088FF552001F0EE
:1033E00085FF002001F082FF552001F07FFF0020C3
:1033F00001F07CFF452001F079FF002001F076FF0D
:10340000432001F073FF002001F070FF442001F021
:103410006DFF002001F06AFFE72001F073FF32200A
:1034200001F064FF002001F061FF552001F05EFF14
:10343000002001F05BFF762001F058FF002001F032
:1034400055FF662001F052FF002001F04FFF67207A
:1034500001F04CFF002001F049FF672001F046FF1A
:10346000002001F043FF872001F040FF002001F021
:103470003DFF992001F03AFF002001F037FFBB200B
:1034800001F034FF002001F031FF992001F02EFF00
:10349000002001F02BFF772001F028FF002001F031
:1034A00025FF442001F022FF002001F01FFF5620DD
:1034B00001F01CFF002001F019FF232001F016FF8E
:1034C000002001F013FF332001F010FF002001F075
:1034D0000DFF452001F00AFF002001F007FFE82062
:1034E00001F010FF002001F001FF002001F0FEFEBE
:1034F000992001F0FBFE002001F0F8FE872001F08A
:10350000F5FE002001F0F2FE882001F0EFFE002021
:1035100001F0ECFE772001F0E9FE002001F0E6FE6C
:10352000662001F0E3FE002001F0E0FE882001F0BB
:10353000DDFE002001F0DAFEAA2001F0D7FE002017
:1035400001F0D4FEBB2001F0D1FE002001F0CEFE40
:10355000992001F0CBFE002001F0C8FE662001F0AA
:10356000C5FE002001F0C2FE552001F0BFFE002084
:1035700001F0BCFE552001F0B9FE002001F0B6FEBE
:10358000442001F0B3FE002001F0B0FE442001F021
:10359000ADFE002001F0AAFE552001F0A7FE00209C
:1035A00001F0A4FEE92001F0ADFEAA2001F09EFE8C
:1035B000002001F09BFE002001F098FE002001F0A9
:1035C00095FE002001F09EFEAA2001F08FFECF2084
:1035D00001F098FE002001F089FE002001F086FE37
:1035E000002001F083FE002001F080FE002001F0A9
:1035F0007DFE002001F07AFE002001F077FE002021
:1036000001F074FE002001F071FE002001F06EFE5A
:10361000002001F06BFE002001F068FE002001F0A8
:1036200065FE002001F062FE002001F05FFE002038
:1036300001F05CFE002001F059FEF02001F062FE76
:10364000002001F053FE502001F050FE002001F058
:103650004DFE002001F04AFE002001F047FEF3205D
:1036600001F050FE002001F041FEF92001F04AFE79
:10367000062001F03BFE102001F038FE292001F069
:1036800035FE002001F032FE3A2001F03BFE5520CD
:1036900001F02CFE112001F035FE6420FEF7A2FDA2
:1036A000292001F02FFE352001F02CFE002001F032
:1036B0001DFE512001F026FEFF2001F017FE5320D1
:1036C00001F020FE2C2001F011FE552001F01AFE21
:1036D000822001F00BFE2C2001F014FE10BD10B56D
:1036E00055214FF4704001F023FEAA214FF2010052
:1036F00001F01EFE52214FF2020001F019FE0821D6
:103700004FF2030001F014FE01214FF2040001F01A
:103710000FFE0D214FF4304001F00AFE0D214BF257
:10372000010001F005FE0D214BF2020001F000FE48
:1037300034214FF4364001F0FBFD34214BF201609F
:1037400001F0F6FD34214BF2026001F0F1FD0D2194
:103750004FF4314001F0ECFD0D214BF2011001F06E
:10376000E7FD0D214BF2021001F0E2FD34214FF490
:10377000374001F0DDFD34214BF2017001F0D8FD3E
:1037800034214BF2027001F0D3FD00214FF432409E
:1037900001F0CEFD00214BF2012001F0C9FD002116
:1037A0004BF2022001F0C4FD24214FF4384001F017
:1037B000BFFD24214BF6010001F0BAFD24214BF698
:1037C000020001F0B5FD01214FF43F4001F0B0FDD2
:1037D0000F214FF4334001F0ABFD0F214BF20130CC
:1037E00001F0A6FD0F214BF2023001F0A1FD3421C2
:1037F0004FF4394001F09CFD34214BF6011001F0EB
:1038000097FD34214BF6021001F092FD08214FF490
:10381000354001F08DFD08214BF2015001F088FD8B
:1038200008214BF2025001F083FD03214FF4424086
:1038300001F07EFD24214FF43A4001F079FD24216E
:103840004BF6012001F074FD24214BF6022001F01B
:103850006FFD00214FF43C4001F06AFD78214BF6EA
:10386000014001F065FD00214BF6024001F060FDD2
:1038700000214FF43D4001F05BFD78214BF60150F3
:1038800001F056FD00214BF6025001F051FD0021E0
:103890004FF43E4001F04CFD64214BF6016001F015
:1038A00047FD00214FF4514001F042FD33214DF21C
:1038B000011001F03DFD00214DF2021001F038FD34
:1038C00034214DF2031001F033FD00214DF20410BC
:1038D00001F02EFD3A214DF2051001F029FD0021E5
:1038E0004DF2061001F024FD4A214DF2071001F0BF
:1038F0001FFD00214DF2081001F01AFD5C214DF270
:10390000091001F015FD00214DF20A1001F010FD23
:1039100081214DF20B1001F00BFD00214DF20C1036
:1039200001F006FDA6214DF20D1001F001FD002170
:103930004DF20E1001F0FCFCE5214DF20F1001F0EC
:10394000F7FC01214DF2101001F0F2FC13214DF2B1
:10395000111001F0EDFC01214DF2121001F0E8FC14
:1039600054214DF2131001F0E3FC01214DF214102B
:1039700001F0DEFC82214DF2151001F0D9FC01218D
:103980004DF2161001F0D4FCCA214DF2171001F0CF
:10399000CFFC02214DF2181001F0CAFC00214DF2BB
:1039A000191001F0C5FC02214DF21A1001F0C0FC03
:1039B00001214DF21B1001F0BBFC02214DF21C1045
:1039C00001F0B6FC34214DF21D1001F0B1FC0221D2
:1039D0004DF21E1001F0ACFC67214DF21F1001F0FA
:1039E000A7FC02214DF2201001F0A2FC84214DF22F
:1039F000211001F09DFC02214DF2221001F098FCF3
:103A0000A4214DF2231001F093FC02214DF2241069
:103A100001F08EFCB7214DF2251001F089FC022146
:103A20004DF2261001F084FCCF214DF2271001F059
:103A30007FFC02214DF2281001F07AFCDE214DF2CC
:103A4000291001F075FC02214DF22A1001F070FCE2
:103A5000F2214DF22B1001F06BFC02214DF22C10E3
:103A600001F066FCFE214DF22D1001F061FC0321F6
:103A70004DF22E1001F05CFC10214DF22F1001F0E0
:103A800057FC03214DF2301001F052FC33214DF26E
:103A9000311001F04DFC03214DF2321001F048FCD1
:103AA0006D214DF2331001F043FC00214FF45240E0
:103AB00001F03EFC33214DF2012001F039FC0021E0
:103AC0004DF2022001F034FC34214DF2032001F0CC
:103AD0002FFC00214DF2042001F02AFC3A214DF286
:103AE000052001F025FC00214DF2062001F020FC0C
:103AF0004A214DF2072001F01BFC00214DF2082065
:103B000001F016FC5C214DF2092001F011FC0021AE
:103B10004DF20A2001F00CFC81214DF20B2001F046
:103B200007FC00214DF20C2001F002FCA6214DF211
:103B30000D2001F0FDFB00214DF20E2001F0F8FBFD
:103B4000E5214DF20F2001F0F3FB01214DF2102091
:103B500001F0EEFB13214DF2112001F0E9FB0121F0
:103B60004DF2122001F0E4FB54214DF2132001F03C
:103B7000DFFB01214DF2142001F0DAFB82214DF22E
:103B8000152001F0D5FB01214DF2162001F0D0FBEC
:103B9000CA214DF2172001F0CBFB02214DF2182073
:103BA00001F0C6FB00214DF2192001F0C1FB0221FA
:103BB0004DF21A2001F0BCFB01214DF21B2001F057
:103BC000B7FB02214DF21C2001F0B2FB34214DF273
:103BD0001D2001F0ADFB02214DF21E2001F0A8FBDB
:103BE00067214DF21F2001F0A3FB02214DF220209E
:103BF00001F09EFB84214DF2212001F099FB02216E
:103C00004DF2222001F094FBA4214DF2232001F07B
:103C10008FFB02214DF2242001F08AFBB7214DF2E7
:103C2000252001F085FB02214DF2262001F080FBCA
:103C3000CF214DF2272001F07BFB02214DF22820FD
:103C400001F076FBDE214DF2292001F071FB02210B
:103C50004DF22A2001F06CFBF2214DF22B2001F0F5
:103C600067FB02214DF22C2001F062FBFE214DF298
:103C70002D2001F05DFB03214DF22E2001F058FBB9
:103C800010214DF22F2001F053FB03214DF2302083
:103C900001F04EFB33214DF2312001F049FB0321AD
:103CA0004DF2322001F044FB6D214DF2332001F042
:103CB0003FFB00214FF4534001F03AFB33214DF21A
:103CC000013001F035FB00214DF2023001F030FBF4
:103CD00034214DF2033001F02BFB00214DF2043072
:103CE00001F026FB3A214DF2053001F021FB0021C5
:103CF0004DF2063001F01CFB4A214DF2073001F075
:103D000017FB00214DF2083001F012FB5C214DF24F
:103D1000093001F00DFB00214DF20A3001F008FBE3
:103D200081214DF20B3001F003FB00214DF20C30EC
:103D300001F0FEFAA6214DF20D3001F0F9FA002152
:103D40004DF20E3001F0F4FAE5214DF20F3001F0A2
:103D5000EFFA01214DF2103001F0EAFA13214DF291
:103D6000113001F0E5FA01214DF2123001F0E0FAD4
:103D700054214DF2133001F0DBFA01214DF21430E1
:103D800001F0D6FA82214DF2153001F0D1FA01216D
:103D90004DF2163001F0CCFACA214DF2173001F085
:103DA000C7FA02214DF2183001F0C2FA00214DF29B
:103DB000193001F0BDFA02214DF21A3001F0B8FAC3
:103DC00001214DF21B3001F0B3FA02214DF21C30FB
:103DD00001F0AEFA34214DF21D3001F0A9FA0221B2
:103DE0004DF21E3001F0A4FA67214DF21F3001F0B0
:103DF0009FFA02214DF2203001F09AFA84214DF20F
:103E0000213001F095FA02214DF2223001F090FAB2
:103E1000A4214DF2233001F08BFA02214DF224301F
:103E200001F086FAB7214DF2253001F081FA022126
:103E30004DF2263001F07CFACF214DF2273001F00F
:103E400077FA02214DF2283001F072FADE214DF2AC
:103E5000293001F06DFA02214DF22A3001F068FAA2
:103E6000F2214DF22B3001F063FA02214DF22C3099
:103E700001F05EFAFE214DF22D3001F059FA0321D6
:103E80004DF22E3001F054FA10214DF22F3001F096
:103E90004FFA03214DF2303001F04AFA33214DF24E
:103EA000313001F045FA03214DF2323001F040FA91
:103EB0006D214DF2333001F03BFA00214FF45440B4
:103EC00001F036FA33214DF2014001F031FA0021C0
:103ED0004DF2024001F02CFA34214DF2034001F082
:103EE00027FA00214DF2044001F022FA3A214DF266
:103EF000054001F01DFA00214DF2064001F018FACC
:103F00004A214DF2074001F013FA00214DF208401A
:103F100001F00EFA5C214DF2094001F009FA00218E
:103F20004DF20A4001F004FA81214DF20B4001F0FC
:103F3000FFF900214DF20C4001F0FAF9A6214DF2F3
:103F40000D4001F0F5F900214DF20E4001F0F0F9BD
:103F5000E5214DF20F4001F0EBF901214DF2104047
:103F600001F0E6F913214DF2114001F0E1F90121D0
:103F70004DF2124001F0DCF954214DF2134001F0F2
:103F8000D7F901214DF2144001F0D2F982214DF20E
:103F9000154001F0CDF901214DF2164001F0C8F9AC
:103FA000CA214DF2174001F0C3F902214DF2184029
:103FB00001F0BEF900214DF2194001F0B9F90221DA
:103FC0004DF21A4001F0B4F901214DF21B4001F00D
:103FD000AFF902214DF21C4001F0AAF934214DF253
:103FE0001D4001F0A5F902214DF21E4001F0A0F99B
:103FF00067214DF21F4001F09BF902214DF2204054
:1040000001F096F984214DF2214001F091F902214D
:104010004DF2224001F08CF9A4214DF2234001F031
:1040200087F902214DF2244001F082F9B7214DF2C7
:10403000254001F07DF902214DF2264001F078F98A
:10404000CF214DF2274001F073F902214DF22840B3
:1040500001F06EF9DE214DF2294001F069F90221EB
:104060004DF22A4001F064F9F2214DF22B4001F0AB
:104070005FF902214DF22C4001F05AF9FE214DF278
:104080002D4001F055F903214DF22E4001F050F979
:1040900010214DF22F4001F04BF903214DF2304039
:1040A00001F046F933214DF2314001F041F903218D
:1040B0004DF2324001F03CF96D214DF2334001F0F8
:1040C00037F900214FF4554001F032F933214DF218
:1040D000015001F02DF900214DF2025001F028F9B4
:1040E00034214DF2035001F023F900214DF2045028
:1040F00001F01EF93A214DF2055001F019F90021A5
:104100004DF2065001F014F94A214DF2075001F02A
:104110000FF900214DF2085001F00AF95C214DF22F
:10412000095001F005F900214DF20A5001F000F9A3
:1041300081214DF20B5001F0FBF800214DF20C50A3
:1041400001F0F6F8A6214DF20D5001F0F1F8002132
:104150004DF20E5001F0ECF8E5214DF20F5001F058
:10416000E7F801214DF2105001F0E2F813214DF271
:10417000115001F0DDF801214DF2125001F0D8F894
:1041800054214DF2135001F0D3F801214DF2145097
:1041900001F0CEF882214DF2155001F0C9F801214D
:1041A0004DF2165001F0C4F8CA214DF2175001F03B
:1041B000BFF802214DF2185001F0BAF800214DF27B
:1041C000195001F0B5F802214DF21A5001F0B0F883
:1041D00001214DF21B5001F0ABF802214DF21C50B1
:1041E00001F0A6F834214DF21D5001F0A1F8022192
:1041F0004DF21E5001F09CF867214DF21F5001F066
:1042000097F802214DF2205001F092F884214DF2EE
:10421000215001F08DF802214DF2225001F088F872
:10422000A4214DF2235001F083F802214DF22450D5
:1042300001F07EF8B7214DF2255001F079F8022106
:104240004DF2265001F074F8CF214DF2275001F0C5
:104250006FF802214DF2285001F06AF8DE214DF28C
:10426000295001F065F802214DF22A5001F060F862
:10427000F2214DF22B5001F05BF802214DF22C504F
:1042800001F056F8FE214DF22D5001F051F80321B6
:104290004DF22E5001F04CF810214DF22F5001F04C
:1042A00047F803214DF2305001F042F833214DF22E
:1042B000315001F03DF803214DF2325001F038F851
:1042C0006D214DF2335001F033F800214FF4564088
:1042D00001F02EF833214DF2016001F029F80021A0
:1042E0004DF2026001F024F834214DF2036001F038
:1042F0001FF800214DF2046001F01AF83A214DF246
:10430000056001F015F800214DF2066001F010F88B
:104310004A214DF2076001F00BF800214DF20860D0
:1043200001F006F85C214DF2096001F001F800216E
:104330004DF20A6000F0FCFF81214DF20B6000F0AD
:10434000F7FF00214DF20C6000F0F2FFA6214DF2C4
:104350000D6000F0EDFF00214DF20E6000F0E8FF6F
:10436000E5214DF20F6000F0E3FF01214DF21060F6
:1043700000F0DEFF13214DF2116000F0D9FF0121A2
:104380004DF2126000F0D4FF54214DF2136000F0A2
:10439000CFFF01214DF2146000F0CAFF82214DF2DF
:1043A000156000F0C5FF01214DF2166000F0C0FF5E
:1043B000CA214DF2176000F0BBFF02214DF21860D8
:1043C00000F0B6FF00214DF2196000F0B1FF0221AC
:1043D0004DF21A6000F0ACFF01214DF21B6000F0BD
:1043E000A7FF02214DF21C6000F0A2FF34214DF224
:1043F0001D6000F09DFF02214DF21E6000F098FF4D
:1044000067214DF21F6000F093FF02214DF2206002
:1044100000F08EFF84214DF2216000F089FF02211F
:104420004DF2226000F084FFA4214DF2236000F0E1
:104430007FFF02214DF2246000F07AFFB7214DF298
:10444000256000F075FF02214DF2266000F070FF3C
:10445000CF214DF2276000F06BFF02214DF2286062
:1044600000F066FFDE214DF2296000F061FF0221BD
:104470004DF22A6000F05CFFF2214DF22B6000F05B
:1044800057FF02214DF22C6000F052FFFE214DF249
:104490002D6000F04DFF03214DF22E6000F048FF2B
:1044A00010214DF22F6000F043FF03214DF23060E8
:1044B00000F03EFF33214DF2316000F039FF03215F
:1044C0004DF2326000F034FF6D214DF2336000F0A8
:1044D0002FFF55214FF4704000F02AFFAA214FF220
:1044E000010000F025FF52214FF2020000F020FFF2
:1044F00008214FF2030000F01BFF00214FF20400DF
:1045000000F016FFCC214FF4314000F011FF0021E4
:104510004BF2011000F00CFF05214FF4364000F083
:1045200007FF70214FF4374000F002FF70214BF27B
:10453000017000F0FDFE01214FF4384000F0F8FE5C
:1045400003214BF6010000F0F3FE03214BF60200BD
:1045500000F0EEFE03214BF6030000F0E9FE02211D
:104560004FF43C4000F0E4FE00214BF6014000F027
:10457000DFFE00214BF6024000F0DAFED0214FF4BE
:10458000494000F0D5FE02214CF6011000F0D0FEAB
:1045900050214CF6021000F0CBFE50214CF60310D7
:1045A00000F0C6FE50214CF6041000F0C1FE0021C0
:1045B0004FF4545000F0BCFE55214FF4685000F009
:1045C000B7FE4FF4885000F09DFE7820FDF726FEE0
:1045D0004FF4245000F096FE10BD10B5E22000F01C
:1045E00091FE1D2000F082FE022000F07FFE0420DC
:1045F00000F07CFE6420FDF711FEE02000F082FE5A
:10460000012000F073FE0A20FDF7ECFDE02000F031
:1046100079FE032000F06AFE0C20FDF7E3FD012087
:1046200000F070FE0A20FDF7DDFDE62000F06AFED6
:104630002F2000F05BFEFF2000F058FEFF2000F06E
:1046400055FEB02000F05EFE202000F04FFE00205E
:1046500000F04CFE032000F049FE40F21F3000F055
:1046600045FE012000F042FE40F2DF1000F03EFE69
:10467000002000F03BFEB42000F044FE042000F0D7
:1046800035FE40F21F4000F031FE002000F02EFE0B
:104690002E2000F02BFE002000F028FE002000F06D
:1046A00025FE002000F022FE002000F01FFEB620B4
:1046B00000F028FE022000F019FE4FF4037000F015
:1046C00015FE002000F012FE172000F00FFE15204E
:1046D00000F00CFE002000F009FE002000F006FEB5
:1046E000F02000F00FFE032000F000FE292000F073
:1046F00009FED02000F006FE002000F0F7FDBE20ED
:1047000000F000FE052000F0F1FDFE2000F0EEFDBF
:10471000012000F0EBFD002000F0E8FD002000F09B
:10472000E5FD002000F0E2FDB82000F0EBFD0320E5
:1047300000F0DCFD012000F0D9FDBA2000F0E2FD20
:10474000012000F0D3FD10BD10B5112000F0DAFDFE
:104750007820FDF747FD362000F0D4FD002000F062
:10476000C5FD3A2000F0CEFD052000F0BFFDB220CF
:1047700000F0C8FD0C2000F0B9FD0C2000F0B6FDE3
:10478000002000F0B3FD332000F0B0FD332000F036
:10479000ADFDB72000F0B6FD352000F0A7FDBB2031
:1047A00000F0B0FD322000F0A1FDC02000F0AAFD15
:1047B0000C2000F09BFDC22000F0A4FD012000F0C1
:1047C00095FDC32000F09EFD102000F08FFDC42059
:1047D00000F098FD202000F089FDC62000F092FD39
:1047E0000F2000F083FDD02000F08CFDA42000F00D
:1047F0007DFDA12000F07AFDE02000F083FDD020B7
:1048000000F074FD002000F071FD022000F06EFD4C
:10481000072000F06BFD0A2000F068FD282000F062
:1048200065FD322000F062FD442000F05FFD422073
:1048300000F05CFD062000F059FD0E2000F056FD52
:10484000122000F053FD142000F050FD172000F05E
:104850004DFDE12000F056FDD02000F047FD002086
:1048600000F044FD022000F041FD072000F03EFD75
:104870000A2000F03BFD282000F038FD312000F038
:1048800035FD542000F032FD472000F02FFD0E20B2
:1048900000F02CFD1C2000F029FD172000F026FD63
:1048A0001B2000F023FD1E2000F020FD2A2000F038
:1048B00029FD002000F01AFD002000F017FD002067
:1048C00000F014FDEF2000F011FD2B2000F01AFD88
:1048D000002000F00BFD002000F008FD012000F09A
:1048E00005FD3F2000F002FD292000F00BFD10BD6A
:1048F00000B593B000BF00BFDE48806940F480700F
:10490000DC4988610846806900F48070009000BF2F
:1049100000BF00BF00BF00BF0846806940F0200014
:1049200088610846806900F02000009000BF00BF49
:1049300000BF00BF00BF0846806940F020008861CA
:104940000846806900F02000009000BF00BF00BF53
:1049500000BF00BF0846806940F480708861084647
:10496000806900F48070009000BF00BF00BF00BFEE
:1049700000BF0846806940F00800886108468069E9
:1049800000F00800009000BF00BF00BF88140F9027
:104990000220109001201190032012900FA9B64818
:1049A000FCF740F820200F900FA9B448FCF73AF824
:1049B00010200F900FA9B148FCF734F801200F9098
:1049C0000FA9AD48FCF72EF801200F9010900FA909
:1049D000AB48FCF727F84FF02040AA490860AA48E6
:1049E0004860062088600021A648C160102141610E
:1049F00000218161C16141624FF4805181620021D7
:104A0000C1624FF480410163002141638163002052
:104A1000089009900F200A9000200E9001900290BB
:104A2000012003900020079001AA08A99548FCF7EF
:104A3000BDFD3220FDF7D6FBD32000F063FC00F073
:104A40003FF99249888000F03BF99049888000F056
:104A500037F98E498880084680884FF6FF7101EA51
:104A600000208A49888000F02BF98849898808430A
:104A7000864988800846808849F2413188427DD045
:104A8000042000F03FFC00F01BF98049888000F012
:104A900017F97E49888000F013F97C498880084620
:104AA00080884FF6FF7101EA00207849888000F085
:104AB00007F97649898808437449888008468088C0
:104AC00048F25251884203D147F289706F49888079
:104AD0006E48808847F289718842D0D0D42000F097
:104AE00011FC00F0EDF86949888000F0E9F86749A9
:104AF000888000F0E5F865498880084680884FF690
:104B0000FF7101EA00206149888000F0D9F85F490F
:104B1000898808435D4988800846808845F21031BD
:104B2000884262D055214FF4704000F001FCAA2168
:104B30004FF2010000F0FCFB52214FF2020000F0A6
:104B4000F7FB08214FF2030000F0F2FB01214FF2C6
:104B5000040000F0EDFB4FF4454000F0D3FB00F003
:104B6000AFF84A498880084680884FF6FF7101EA0D
:104B70000020464988804CF2015000E035E000F00A
:104B8000C1FB00F09DF84149898808433F4988806E
:104B90000520FDF727FB3D48808845F210518842EB
:104BA00023D0A12000F0AEFB00F08AF837498880BE
:104BB00000F086F835498880084680884FF6FF71F6
:104BC00001EA00203149888000F07AF82F4989886D
:104BD00008432E4988800846808845F261718842E2
:104BE00003D141F66310294988802848818828A08C
:104BF000FBF73EFB2548808847F28971884202D145
:104C0000FFF7A2FD25E02148808849F24131884222
:104C100002D1FDF7D5FC1CE01C48808845F210311C
:104C2000884202D1FDF7E2FD13E01848808845F282
:104C30001051884202D1FEF752FD0AE013488088E5
:104C400041F66311884204D1FFF7C7FC642000F0ED
:104C500023FB0020FDF70CFC00BF01221146084891
:104C6000FCF792F800BF4FF6FF70FDF7E7FB13B0BB
:104C700000BD00000010024000200140001401406F
:104C8000000C014068020020040100A0B0020020D6
:104C90004C43442049443A25780D0A0000BF011EC8
:104CA000A0F10100FBD1704710B50246012000E0E1
:104CB00050430B1EA1F10104E1B2F9D110BD000077
:104CC00008B50220FFF7EAFF024800880090BDF80F
:104CD000000008BD0008006CF0B505460024002760
:104CE00088488079012805D18648808841F663117B
:104CF000884208D183488079F0B98248808841F69B
:104D00006311884218D1082D15D2DFE805F004069A
:104D1000080A0C0E101206250DE007250BE00425ED
:104D200009E0052507E0012505E0002503E003254E
:104D300001E0022500BF00BF082D1CD2DFE805F00E
:104D40000406090C0F12151800BF14E044F080048B
:104D500011E044F040040EE044F0C0040BE044F0E5
:104D6000200408E044F0600405E044F0A00402E000
:104D700044F0E00400BF00BF36276248808845F257
:104D80001051884200D13F025E48808849F241318B
:104D9000884205D05B48808847F28971884201D1FA
:104DA00044F008042146384600F0C2FA554880888D
:104DB00041F6631188421DD004F0200068B15148CB
:104DC000008850494988884214DA4E48068840884D
:104DD0004C490880084646800CE04A48008849490A
:104DE0004988884206DD474806884088454908804A
:104DF000084646804348808845F21051884252D187
:104E00004049488900F07EFA002000F06FFA3D49E1
:104E10004989491C88B200F075FA002000F066FA52
:104E200038494989891C88B200F06CFA35490988EB
:104E3000491EC1F30F2000F059FA32494989C91CB3
:104E400088B200F05FFA2F490978491EC8B200F015
:104E50004DFA2C49888900F055FA002000F046FAF6
:104E600028498989491C88B200F04CFA002000F0DA
:104E70003DFA24498989891C88B200F043FA214906
:104E80004988491EC1F30F2000F030FA1D49898975
:104E9000C91C88B200F036FA1A498978491EC8B28E
:104EA00000F024FA2DE01749488900F02BFA002081
:104EB00000F01CFA002000F019FA12490988491E76
:104EC000C1F30F2000F012FA0E490978491EC8B24A
:104ED00000F00CFA0B49888900F014FA002000F069
:104EE00005FA002000F002FA06494988491EC1F37C
:104EF0000F2000F0FBF903498978491EC8B200F081
:104F0000F5F9F0BDB002002010B502460C46454848
:104F1000808841F66311884247D142488079A8B918
:104F200040480088401E801A82B23E49488900F0FD
:104F3000E9F9002000F0DAF9002000F0D7F91012AA
:104F400000F0D4F9D0B200F0D1F916E03549488923
:104F500000F0D8F9101200F0C9F9D0B200F0C6F98B
:104F600030490988491EC1F30F2000F0BFF92D49CF
:104F70000978491EC8B200F0B9F92A49888900F0B9
:104F8000C1F9201200F0B2F9E0B200F0AFF9254902
:104F90004988491EC1F30F2000F0A8F921498978FA
:104FA000491EC8B200F0A2F93AE01E48808845F2D6
:104FB0001051884220D11B49488900F0A3F91012F2
:104FC00000F094F917494989491C88B200F09AF910
:104FD000D0B200F08BF91349888900F093F92012C0
:104FE00000F084F90F498989491C88B200F08AF9D8
:104FF000E0B200F07BF913E00A49488900F082F939
:10500000101200F073F9D0B200F070F905498889E8
:1050100000F078F9201200F069F9E0B200F066F9CA
:1050200010BD0000B00200202DE9FC4F80460E4666
:1050300015461C46B3460020019000902046E31719
:1050400004EB5373DB1021464FEAE47C04EB5C7CF9
:105050004FEAEC0CA4EBCC0CBCF1000F02D04FF0EB
:10506000010C01E04FF0000C6344224604EBD27CBB
:105070004FEA6C0C03FB0CF3DBB20193A5F12000AB
:10508000C5B20C2C06D0102C0BD0182C0ED0202C16
:1050900018D112E005EB45002D4901EB800000908E
:1050A00012E02C4800EB051000900DE005EBC50068
:1050B000294901EB8000009006E0284800EB8510AC
:1050C000009001E0BDE8FC8F00BF00273AE00098A7
:1050D00010F807904FF0000A2EE009F0800028B188
:1050E000314640460C9AFDF75BFA07E00B9828B969
:1050F0001B48314602684046FDF752FA4FEA4960C4
:105100004FEA1069701C86B216484088B04200DC35
:10511000D8E7A6EB0B00A0420AD15E4608F10100D9
:105120001FFA80F80F480088404500DCCAE706E017
:105130000AF1010000F0FF0ABAF1080FCDDB00BF51
:10514000781CC7B201988742C1DB00BFBAE70000F4
:10515000B86C00082C7100081C77000878840008DF
:1051600020000020B00200202DE9FC4F04460D462F
:1051700090469946DDE90C7A0B9E04F0FF0B08EB94
:1051800004001FFA80F809EB05001FFA80F917E008
:10519000444502DB5C46A81985B24D4500DB15E0AD
:1051A0000020CDE9000A3A78334629462046FFF729
:1051B0003BFF304606EBD07104EB61018CB27F1CE3
:1051C00038787E2802DC38782028E1DA00BFBDE894
:1051D000FC8F2DE9FF4F85B0064693461F46DDE95B
:1051E0001389129C00200490002550E0781B401E7B
:1051F000C1B20A20FFF758FDBBFBF0F00A21B0FB5B
:10520000F1F201FB120A049860BB781EA84229DD66
:10521000BAF1000F24D108F0800080B108F001003D
:1052200004EBD471491001FB0561CDE90009039439
:1052300088B2234630220699FFF7F6FE0FE008F009
:10524000010004EBD471491001FB0561CDE90009AF
:10525000039488B2234620220699FFF7E5FE14E066
:105260000120049008F0010004EBD471491001FB07
:105270000561CDE90009039488B20AF13001CAB290
:1052800023460699FFF7D0FE00BF681CC5B2BD4299
:10529000ACDB09B0BDE8F08F2DE9F0470446BE2035
:1052A00000F030F8052000F021F8204601F0E7FB7F
:1052B00007464FF066320C4B01F0F4FB054601F057
:1052C000B1FB1FFA80F9484600F010F8012000F009
:1052D0000DF8FF2000F00AF8002000F007F8002089
:1052E00000F004F8BDE8F0876666044001B5BDF83B
:1052F00000000090BDF800000149088008BD0000D2
:105300000008006C01B5BDF800000090BDF8000079
:105310000149088008BD0000FE07006C02480089B2
:105320000249088070470000B0020020FE07006CB0
:10533000024A1080921C118070470000FE07006C2A
:1053400000B585B000BF00BF1E48806940F008006E
:105350001C4988610846806900F00800009000BF81
:1053600000BF00BF00BF00BF0846806940F040009A
:1053700088610846806900F04000009000BF00BFCF
:1053800000BF202001900120029003900320049090
:1053900001A90D48FBF746FB2020019001A90B480D
:1053A000FBF740FB00BF012220210748FBF7ECFC84
:1053B00000BF00BF012220210448FBF7E5FC00BF2D
:1053C00005B000BD00100240000C01400018014073
:1053D00086B0002400250026FBF7E2FC4FF4E01025
:1053E00000F0ECF94820FCF7E9FE4FF4E13000F062
:1053F00019FA6B48416848208847FFF7A1FFFFF77B
:1054000077FAFCF73FFF4FF4E13000F0FFF84FF47C
:10541000784064A110221346CDE900210290C822F1
:1054200032211E20FFF7A0FE4FF478405FA110222A
:105430001346CDE900210290C82246211E20FFF725
:1054400093FE4FF478405CA110221346CDE9002171
:105450000290C8225A211E20FFF786FE4FF47840A2
:1054600059A110221346CDE900210290C8226E21D5
:105470001E20FFF779FE4FF4784056A11022134604
:10548000CDE900210290C82282211E20FFF76CFE88
:105490004FF4784051A110221346CDE9002102902B
:1054A000C82296211E20FFF75FFE4FF478404EA1E0
:1054B00010221346CDE900210290C822BE211E20F1
:1054C000FFF752FE6AE00020FCF754FF05909DF8BC
:1054D000140001281AD1002412E003A804551F204B
:1054E00080211022CDE90021029003A90A5D1E212E
:1054F00001EB44100323AA21FFF76BFE601CC4B22A
:10550000052CEADB052103A800F036F905A903A85C
:1055100000F00CF99DF8140050B39DF81400052814
:1055200001DD0520059000BF20213348FBF722FC58
:1055300000BF0A20FCF756FE002415E01F20802142
:105540001022CDE90021029003A90A5D1E2101EB82
:1055500044100323D221FFF73CFE03A8015D27A0DE
:10556000FAF786FE601CC4B29DF814008442E5DBA5
:10557000681CC5B20A20FCF735FE142D0ED100259B
:10558000701CC6B21F20802110220323CDE9002108
:105590000290324682214E20FFF71BFE93E7000067
:1055A0006C00002053544D33320000005253343805
:1055B000352054455354000041544F4D40414C490F
:1055C000454E54454B0000004B4559303A53656EEB
:1055D00064000000436F756E743A000053656E649A
:1055E00020446174613A0000526563656976652004
:1055F000446174613A000000000C014025640D0A0A
:1056000000000000014608687047000010B586B031
:10561000044600BF00BF4048806940F020003E497A
:1056200088610846806900F02000019000BF00BF3B
:1056300000BF00BF00BF0846806940F004008861D9
:105640000846806900F00400019000BF00BF00BF61
:1056500000BF00BF0846806940F00400886108462A
:10566000806900F00400019000BF00BF00BF00BFD0
:1056700000BF0846C06940F40030C8610846C069F0
:1056800000F40030019000BF00BF00BF0420029072
:1056900002200390012004900320059002A91F48D6
:1056A000FBF7C0F9082002900020039002A91B48D4
:1056B000FBF7B8F9802002900120039004900320AA
:1056C000059002A91648FBF7ADF91648164908607F
:1056D0000846446000218160C160016181610C2144
:1056E0004161FCF735F910480068C06840F02000BF
:1056F0000D490968C8602620FBF78DFB032211467F
:105700002620FBF798FB00BF002280210448FBF70E
:105710003BFB00BF06B010BD001002400008014076
:105720000014014000440040C00200202DE9F04177
:1057300007460D460E4806780024002028700A20EF
:10574000FCF750FD0A48007886420FD176B100BFC1
:1057500004E00848005D3855601CC4B2B442F8DB70
:10576000034800782870002001490870BDE8F081E6
:10577000250000200003002070B504460D4600BF40
:10578000012280210A48FBF7FFFA00BF4FF47A7329
:105790002A4621460748FCF757FA002006490870B8
:1057A00000BF002280210248FBF7EEFA00BF70BD67
:1057B00000140140C00200202500002030B58FB049
:1057C00005460124282105A8FAF7DAFE14216846C7
:1057D000FAF7D6FE012005900004069000200790FD
:1057E00002200C90C1030D910E9505A8FBF7ACFCAF
:1057F00004460CB100BFFEE70F200090022001908C
:10580000002002904FF48060039000200490022159
:105810006846FBF763FB04460CB100BFFEE70FB020
:1058200030BD000010B5044609480A490860084622
:10583000446000218160C160016181610C2141618E
:10584000FCF786F8012204490248FCF781F910BDF3
:1058500000380140280200200E00002030B595B02D
:10586000054613AB12AA09A9284600F03FFA0446E0
:1058700014B1204615B030BD0020149026E0224916
:1058800009689DF8502001EBC20113AB11AA4868CA
:1058900001A900F02BFA04460CB12046EAE709A959
:1058A00001A800F0AFFC60B99DF844009DF84810D5
:1058B000884201DD0220DDE79DF85000124988751D
:1058C0000AE09DF85000401CC0B214900E48007DC4
:1058D0009DF850108842D2DC00BF0B48007D9DF837
:1058E0005010884201D10420C4E714A9284600F0D2
:1058F000DDFA04460CB12046BCE79DF85000024991
:1059000048750020B6E700006C0000202DE9F0414A
:105910009AB09C48847D007DA04202DC1AB0BDE8AC
:10592000F0819849096801EBC40106AB07AA4868F1
:1059300008A900F0DBF908A993A0FAF799FC002662
:1059400044E09048008B0121B1400840D8B12221A9
:105950008FA0FAF78DFC304600F042FB89492431D4
:10596000471839468BA0FAF783FC222188A0FAF762
:105970007FFC304600F034FB82492431084410A9F2
:1059800041F8260018E0304600F02AFB7D4924311A
:10599000085810A941F826007A48C07D30B910A8EF
:1059A00050F826107CA0FAF763FC05E010A850F828
:1059B00026107AA0FAF75CFC9DF81C00401EB0424D
:1059C00002D078A0FAF754FC701CC6B29DF81C00F7
:1059D0008642B6DB74A0FAF74BFC01F007F8694881
:1059E000407D0B280DD2DFE800F0060D151E273292
:1059F0003F4E5F7287006349096851F83400804761
:105A0000054690E05F4A126852F8341010988847B3
:105A1000054688E05B4B1B6853F83420DDE9100134
:105A2000904705467FE0574F3F6857F8343010A83D
:105A300007C89847054676E0DFF848C1DCF800C0A3
:105A40005CF8347010A80FC8B84705466BE014988E
:105A5000DFF830C10090DCF800C05CF8347010A8AA
:105A60000FC8B84705465EE0DDE91401DFF814C150
:105A7000CDE90001DCF800C05CF8347010A80FC854
:105A8000B84705464FE0DDE914121698DFF8F4C078
:105A9000CDE900120290DCF800C05CF8347010A868
:105AA0000FC8B84705463EE0DDE91423DDE91610CE
:105AB000DFF8D0C0CDE90023CDE90210DCF800C04A
:105AC0005CF8347010A80FC8B84705462BE0DDE934
:105AD0001523DDE91710CDE90123CDE90310149852
