:020000040800F2
:1000000028080020D5010008DD1900085D17000848
:1000100081190008D9040008F51D0008000000003F
:10002000000000000000000000000000E1190008CE
:10003000DB04000800000000DF190008E3190008D5
:10004000EF010008EF010008EF010008EF010008D0
:10005000EF010008EF010008EF010008EF010008C0
:10006000EF010008EF010008EF010008EF010008B0
:10007000EF010008EF010008EF010008EF010008A0
:10008000EF010008EF010008EF010008EF01000890
:10009000EF010008EF010008EF010008EF01000880
:1000A000EF010008391A0008EF010008EF0100080D
:1000B000EF010008EF010008EF010008EF01000860
:1000C000EF010008EF010008EF010008EF01000850
:1000D000EF010008EF010008851D0008EF0100088E
:1000E000EF010008EF010008EF010008EF01000830
:1000F000EF010008EF010008EF010008EF01000820
:10010000EF010008EF010008EF010008EF0100080F
:10011000EF010008EF010008EF010008EF010008FF
:10012000EF010008EF010008EF010008EF010008EF
:1001300000F002F800F03FF80AA090E8000C8244BA
:100140008344AAF10107DA4501D100F034F8AFF297
:10015000090EBAE80F0013F0010F18BFFB1A43F0A5
:1001600001031847741F0000941F0000103A24BFB9
:1001700078C878C1FAD8520724BF30C830C144BF0C
:1001800004680C607047000000230024002500264E
:10019000103A28BF78C1FBD8520728BF30C148BFEA
:1001A0000B607047642900F07780002070471FB50E
:1001B0001FBD10B510BD00F05DF91146FFF7F7FF48
:1001C00001F036FE00F07BF903B4FFF7F2FF03BC49
:1001D00001F021FE0948804709480047FEE7FEE795
:1001E000FEE7FEE7FEE7FEE7FEE7FEE7FEE7FEE7E7
:1001F00004480549054A064B70470000351A0008B7
:1002000031010008280200202808002028040020CE
:1002100028040020704700000FB4044910B503AA59
:10022000029800F0F9F810BC5DF814FB04000020FF
:100230002DE9F0410E460446002020622046E16888
:10024000884730B3252805D0D4E901219047206A9A
:10025000401CF2E7E168204600278847050018D0D7
:10026000A5F14100192802D820354FF40067324625
:10027000294620462760FFF795FF40B1012804D0AA
:10028000F61D26F007060836D8E7361DD6E72846BD
:10029000DAE7206ABDE8F0812DE9F0410646002446
:1002A00010687529314616A510D0AFF300800028DC
:1002B00002DA404213A507E031688A0701D512A58A
:1002C00002E0490704D511A5012401E0AFF3008045
:1002D00000210A2206F1240709E0B0FBF2FCB0FB82
:1002E000F2F302FB1C00303078541846491C0028F9
:1002F000F3D123462A463046BDE8F04100F033B83A
:10030000000000002D0000002B0000002000000075
:100310004FF0000200B5134694469646203922BF9E
:10032000A0E80C50A0E80C50B1F12001BFF4F7AFE9
:10033000090728BFA0E80C5048BF0CC05DF804EBCB
:10034000890028BF40F8042B08BF704748BF20F839
:10035000022B11F0804F18BF00F8012B7047704737
:100360007047704770472DE9F0470D469946924611
:10037000044600F124080168880604D5E06921F0EC
:100380001001216000E00120A84201DD471B00E0D0
:100390000027A1697A1902EB0900081AA0612078E8
:1003A000C00602D42046AFF30080002608E0D4E95E
:1003B00001211AF806009047206A401C761C206232
:1003C0004E45F4DB2078C0060AD52046AFF3008006
:1003D00006E0D4E9012130209047206A401C2062C9
:1003E000381EA7F10107F4DC07E0D4E9012118F871
:1003F00005009047206A401C2062281EA5F10105D7
:10040000F3DC2046AFF300802078000602D50220FE
:10041000BDE8F0870120FBE7074B70B50D467B4434
:1004200000F011F80446284600F020F810B14FF013
:10043000FF3070BD204670BDF719000001694A1CED
:1004400002610878704700B58FB0CDE90131002115
:10045000059105497944CDE9031011466846FFF737
:10046000E7FE0FB000BD0000E5FFFFFF007B00F0DE
:1004700080007047754600F02BF8AE4605006946CF
:10048000534620F00700854618B020B5FFF7B0FEB0
:10049000BDE820404FF000064FF000074FF0000885
:1004A0004FF0000B21F00701AC46ACE8C009ACE806
:1004B000C009ACE8C009ACE8C0098D46704710B56A
:1004C0000446AFF300802046BDE81040FFF77CBE35
:1004D00000487047C8010020FEE77047704710B51C
:1004E00090F821100022022905D00421816380F8B0
:1004F0002020012010BD01680B6823F00E030B6063
:1005000001680B6823F001030B6090F84030C46B66
:10051000012101FA03F3636080F8211080F82020A4
:10052000104610BD2DE9F05F90F82110002402293B
:1005300003D004218163012485E001680A6822F068
:100540000E020A6001680A6822F001020A603F4E4A
:100550003E4FB215DFF8F4C0DFF8F090DFF8ECA002
:10056000DFF8E8B0DFF8E4E00168783F1301150236
:10057000ACF1640CA9F15009AAF13C0AABF1280BCB
:10058000AEF1140E4FF48018B14227D9B9420ED003
:10059000614512D049451DD0514518D0594518D054
:1005A000714501D1424615E0294EB14201D10122E7
:1005B00010E0274E1436B14201D110220AE0244E39
:1005C0002836B14206D0224A3C32914201D11A4625
:1005D00000E02A461E49091F0A602BE0B94213D0E9
:1005E000614517D0494522D051451DD059451DD0F0
:1005F000714501D142461AE0B14202D14FF08072FA
:1006000015E0134EB14201D1012210E0104E143614
:10061000B14201D110220AE00D4E2836B14206D077
:100620000B4A3C32914201D11A4600E02A46074962
:1006300080394A60012180F82110002180F82010C3
:10064000416B01B188472046BDE8F09F8000024021
:10065000080402402DE9F84FDFF8C891002409F1A1
:10066000040A0AF1040B23460F270BF1040ED1E014
:100670000125A54006EA0502AA4276D1DFF8A8C105
:100680004E68A6EB0C0866452BD00DDC032E34D04B
:1006900005DC36B3012E19D0022E2FD11BE0112E0E
:1006A00016D0122E2AD119E0B8F5881F19D006DC11
:1006B000B8F5803F15D0B8F5801F1FD111E0B8F50F
:1006C000001F0ED0B8F5041F18D10AE0CB6815E062
:1006D000CB681B1D12E0CB6808330FE0CB680C33EE
:1006E0000CE08B682BB1012B4FF0080303D0456160
:1006F00004E0042302E0056100E00023FF2A01D8A2
:10070000064601E000F104064FEA840501D9A5F18F
:100710002005D6F8008007FA05FC28EA0C0803FA41
:1007200005F548EA0508C6F800804D68ED0070D56B
:100730003E4DAE6946F00106AE61AD6924F0030698
:1007400005F0010500953A4D06EB050CDCF8085064
:10075000A607360F07FA06F825EA0805DFF8D48061
:10076000404503D14FF0000825E052E0DFF8C88093
:10077000404502D14FF001081DE0DFF8C080404540
:1007800002D14FF0020816E0DFF8B480404502D1F4
:100790004FF003080FE0DFF8AC80404502D14FF086
:1007A000040808E0DFF8A080404502D14FF00508BA
:1007B00001E04FF0060808FA06F848EA0508CCF808
:1007C00008804D68D9F80060ED034D4601D5164309
:1007D00000E096432E604D68DAF80060AD035546A0
:1007E00001D5164300E096432E604D68DBF80060AB
:1007F000ED025D4601D5164300E096432E604D683C
:10080000DEF80060AD02754601D5164300E0964360
:100810002E60641C0A681646E2407FF429AFBDE8EA
:10082000F88F000000040140000011100010024089
:100830000000014000080140000C01400010014090
:100840000014014000180140001C01400AB1016180
:1008500070470904FBE7000001488068704700000A
:1008600008000020024881680278114481607047C6
:1008700008000020074810B5016841F01001016030
:10088000032000F075F8002000F006F800F024F8CE
:10089000002010BD0020024070B50D4D04464FF4FD
:1008A0007A712878B1FBF0F00A490968B1FBF0F0E1
:1008B00000F0ECFA48B9102C07D200222146501E55
:1008C00000F036F800206C6070BD012070BD0000A3
:1008D00008000020140000200C4808B5816941F090
:1008E00001018161816901F001010091C16941F05B
:1008F0008051C161C06900F0805000900448416897
:1009000021F0E06141F00071416008BD001002403B
:1009100000000140002809DB00F01F020121914086
:100920004009800000F1E020C0F80011704700008D
:10093000F0B40E4B1B680C46C3F30223C3F107054A
:10094000042D00D90425191D072901D2002300E038
:10095000DB1E012606FA05F1491E214099409E4002
:10096000761E16403143F0BC01F045BA0CED00E0B4
:10097000064900F0070208684FF6FF03184040EAF6
:100980000220034A10430860704700000CED00E0AD
:100990000000FA052DE9F0470F46050061D0434EEF
:1009A000306800F00700B84209D2306820F0070034
:1009B00038433060306800F00700B84251D12868F1
:1009C0003B4C810712D5400703D5606840F4E060D6
:1009D00060602878000703D5606840F4605060606C
:1009E0006068A96820F0F000084360602878C007BC
:1009F00028D06868012810D02168022810D0890703
:100A000000292EDA616821F0030101436160FFF7DC
:100A100023FF804641F288390DE021688903EFE722
:100A20008901EDE7FFF718FFA0EB0801494502D95E
:100A30000320BDE8F0876068696800F00C00B0EB47
:100A4000810FEFD1306800F00700B8420BD9306851
:100A500020F0070038433060306800F00700B842EB
:100A600001D00120E5E72878400705D56068E968EE
:100A700020F4E060084360602878000706D56068CD
:100A8000296920F4605040EAC100606000F038F845
:100A90006168084AC1F30311515CC8400649086007
:100AA00006480068FFF7F8FE0020C2E70020024079
:100AB00000100240C01E0008140000200C0000209E
:100AC0000448054900684968044AC1F30221515CA1
:100AD000C84070471400002000100240D01E0008DB
:100AE0000448054900684968044AC1F3C221515CC1
:100AF000C84070471400002000100240D01E0008BB
:100B000012A185B00FC98DE80F0014A0144A006827
:100B100004905168134801F00C03042B10D0082BEB
:100B20000ED1C1F38343C9031DF803000AD55168F0
:100B300004AAC1F34041515C0A4A5043B0FBF1F0B2
:100B400005B0704708494843FAE70000020304056E
:100B5000060708090A0B0C0D0E0F10100102000009
:100B60000010024000127A0000093D002DE9F84F04
:100B7000040070D02078C04DC00749D06868C0F329
:100B80008100012807D06868C0F38100022809D1DC
:100B90006868C00306D52868800339D560680028D6
:100BA000E7D035E06068B0F5803F0BD010B1B0F50C
:100BB000A02F11D0286820F480302860286820F405
:100BC000802002E0286840F480302860606890B19E
:100BD000FFF742FE06460AE0286840F480202860BD
:100BE000F0E700BFFFF738FE801B642873D8286841
:100BF0008003F7D50CE0FFF72FFE064605E000BFA7
:100C0000FFF72AFE801B6428F0D828688003F7D4F9
:100C100020789A4E80074FF001094FF0000839D52F
:100C2000686810F00C0F07D06868C0F381000228D4
:100C300009D16868C00306D42868800714D52069E4
:100C4000012808D110E02069B0B1C6F80090FFF784
:100C500003FE074605E00AE1FFF7FEFDC01B022880
:100C6000C4D828688007F7D52868616920F0F800A3
:100C700040EAC10028600DE0C6F80080FFF7ECFDF7
:100C8000074604E0FFF7E8FDC01B022823D82868C8
:100C90008007F7D4207800072CD57948A169D9B10D
:100CA000C0F80090FFF7D8FD074604E0FFF7D4FD39
:100CB000C01B02280FD8686A8007F7D571484FF427
:100CC000FA510068B0FBF1F0009000BF0098411E9F
:100CD0000091FAD20EE080E0C0F80080FFF7BCFD82
:100CE000074604E0FFF7B8FDC01B022875D8686A04
:100CF0008007F7D42078400760D5E8690027C00056
:100D000008D4E86940F08050E861E869012700F004
:100D1000805000905C480168C90513D4016883467F
:100D200041F480710160FFF797FD824606E000BF45
:100D3000FFF792FDA0EB0A0064284ED8DBF8000014
:100D4000C005F5D5E06801280AD008B1052813D000
:100D5000286A20F001002862286A20F0040002E0DE
:100D6000286A40F001002862E06841F2883B98B1AF
:100D7000FFF772FD82460BE0286A40F0040028620B
:100D8000EEE700BFFFF768FDA0EB0A0159455AD80E
:100D9000286A8007F6D50CE0FFF75EFD824605E085
:100DA000FFF75AFDA0EB0A0159454CD8286A800785
:100DB000F6D41FB1E86920F08050E861E06988B39B
:100DC0006968C1F38101022944D00228C6F8608015
:100DD00004D0FFF741FD044638E034E0FFF73CFD66
:100DE000074604E0FFF738FDC01B02282BD828680F
:100DF0008001F7D4206AB0F5803F05D16868A1680A
:100E000020F4003008436860D4E9080108436968A9
:100E100021F4741108436860C6F86090FFF71CFD68
:100E2000044606E025E000BFFFF716FD001B022880
:100E300009D828688001F7D51BE000BFFFF70CFD3B
:100E4000001B022802D90320BDE8F88F2868800122
:100E5000F4D40EE00128F7D06868226A00F48031EB
:100E6000914204D1616A00F47010884201D00120DF
:100E7000EAE70020E8E700000010024000004242DC
:100E800080044242140000200070004010B5401E53
:100E9000B0F1807F01D3012010BD4FF0E0246061EC
:100EA0000F21601700F0A7FF0020A061072020613C
:100EB000002010BD7047704770B590F83C20012AA3
:100EC0002CD0012480F83C40022280F83D200368A9
:100ED0005A689D6822F070060A6832435A60104BC7
:100EE00002689A420ED00F4B9A420BD0B2F1804F5B
:100EF00008D00D4B9A4205D00C4B9A4202D00C4BB5
:100F00009A4204D1496825F080031943916080F822
:100F10003D40002180F83C10084670BD022070BDA5
:100F2000002C014000340140000400400008004053
:100F3000000C004010B5040003D094F83D0010B13F
:100F400007E0012010BD002084F83C00204600F09E
:100F50001FF8022084F83D00211D206800F072FD7A
:100F6000012084F8460084F83E0084F83F0084F8AD
:100F7000400084F8410084F8420084F8430084F87B
:100F8000440084F8450084F83D00002010BD0000B6
:100F900008B500680B49884212D10B48816941F4B9
:100FA000006181618069002200F4006000900121ED
:100FB0001920FFF7BDFCBDE808401920FFF7AABCC7
:100FC00008BD0000002C01400010024090F83D10C8
:100FD000012901D001207047022180F83D100168ED
:100FE000CA6842F00102CA6000680E4988420ED009
:100FF0000D4988420BD0B0F1804F08D00B49884290
:1010000005D00B49884202D00A49884204D1816840
:1010100001F00701062903D0016841F001010160D8
:1010200000207047002C01400034014000040040C3
:1010300000080040000C004070B5044690F83C00E9
:10104000012817D0012584F83C50022084F83D0087
:101050002068826822F0770222F47F42826008686A
:10106000502830D00DDC20284DD005DC98B3102856
:101070003BD148E0022070BD302844D0402834D114
:1010800039E0602828D0702806D0B0F5805F2CD0D9
:10109000B0F5005F29D10AE0CB68D1E901212068D1
:1010A00000F016FD2068816841F0770109E0CB6807
:1010B000D1E90121206800F00BFD2068816841F42E
:1010C0008041816011E0CA684968206800F012FD23
:1010D0005021206807E016E0CA684968206800F0DF
:1010E0001AFD6021206800F0FDFC84F83D500020CE
:1010F00084F83C0070BDCA684968206800F0FAFCBA
:1011000040212068EFE7226801461046EBE7704770
:1011100070B50446006801694FF00005C9438907AE
:1011200015D4C168C943890711D4E91E01610120A2
:101130002077206880698007204602D0FFF7E7FF0C
:1011400004E000F098F8204600F096F82577206833
:101150000169C943490717D4C168C943490713D472
:101160006FF004010161022020772068806910F48B
:10117000407F204602D0FFF7CAFF04E000F07BF872
:10118000204600F079F8257720680169C9430907EE
:1011900016D4C168C943090712D46FF00801016170
:1011A000042020772068C0698007204602D0FFF71E
:1011B000AEFF04E000F05FF8204600F05DF8257710
:1011C00020680169C943C90617D4C168C943C90663
:1011D00013D46FF010010161082020772068C069E6
:1011E00010F4407F204602D0FFF791FF04E000F0AA
:1011F00042F8204600F040F8257720680169C9438D
:10120000C90708D1C168C943C90704D1891E016152
:10121000204600F033F820680169C943090609D463
:10122000C168C943090605D46FF0800101612046F9
:10123000FFF740FE20680169C943490609D4C16827
:10124000C943490605D46FF040010161204600F012
:101250003BF820680169C94389060BD4C168C943BA
:10126000890607D46FF0200101612046BDE8704077
:10127000FFF721BE70BD704770470000104900683D
:10128000096888421BD10F48012290F8671061B1AC
:1012900090F86510491CC9B280F86510082904D37C
:1012A000002180F8671080F86820D0F8D810491C19
:1012B000C0F8D810B1F57A7F01DD80F8DC207047E6
:1012C00018000020E80000207047704770470000B9
:1012D000F8B5026804461068D168536910F00F0F22
:1012E0004FF0000553D003F0010601F49077374327
:1012F0005FD0C20705D0CA0503D5226C42F00102B7
:101300002264420705D5DA0703D0226C42F00202BC
:101310002264820705D5DA0703D0226C42F004026A
:101320002264020707D501F02002324303D0226C69
:1013300042F008022264226C002A34D0800604D5D0
:10134000880602D5204600F018FC20684069216C10
:10135000C0F38010090700D430B3204600F0F5FB3D
:101360002068416949061BD5416921F0400141616E
:10137000A06BA8B158494163A06BFFF7D3F80028D0
:1013800011D0A06B416B01B0BDE8F0400847830667
:101390000FD58B060DD52046BDE8F84000F0EDBB1B
:1013A0002046FFF793FFF8BD2046FFF78FFF256427
:1013B000F8BD266B2023012E52D1C60650D5CE068D
:1013C0004ED5106850680090506940062AD5A16B30
:1013D000086840680004000CEAD0A68D8642E7D970
:1013E000E0858869202818D0D06820F48070D0600B
:1013F0002068416921F0010141612068416921F0C3
:101400004001416184F83E3025632068C16821F0C5
:101410001001C160A06BFFF762F8A08DE18D401A4A
:1014200081B219E0A08DE18D401A81B2E08D0028D3
:10143000BED00029BCD0D06820F49070D060206865
:10144000426922F00102426184F83E30256320683F
:10145000C26822F01002C2602046FFF736FFF8BDD6
:1014600005062BD50D0629D594F83D002128F6D187
:10147000A068B0F5805F01D12069B0B1206A411C3D
:101480002162216800784860E08C401E0004000C56
:10149000E084E4D12068C16821F08001C160206847
:1014A000C16841F04001C160F8BD206A0088C0F306
:1014B00008005060206A801C2062E5E74006F3D5F2
:1014C0004806F1D5D168204621F04001D16084F86A
:1014D0003D3000F00AF9F8BD3B1B000870B5040070
:1014E00004D094F83D00002510B106E0012070BD45
:1014F00084F83C50204600F023F8242084F83D0076
:101500002068C16821F40051C160204600F090FBC2
:101510002068016921F4904101612068416921F04E
:101520002A0141612068C16841F40051C16025640D
:10153000202084F83D0084F83E00002070BD0000AB
:1015400070B586B0002400940194029403942B4E4D
:1015500003682B49022003222A4DB34221D18B6913
:1015600043F480438B618B6903F4804304938B695C
:1015700043F004038B618969039201F00401049133
:101580000102CDE9001069462846FFF763F82815E7
:10159000CDE90004694628460294FFF75BF806B0DF
:1015A00070BD194EB342FAD1CB6943F40033CB611D
:1015B000CB6903F4003304938B6943F004038B611C
:1015C0008969039201F0040104910421CDE900101E
:1015D00069462846FFF73EF80820CDE90004694631
:1015E00028460294FFF736F8002211462620FFF71E
:1015F0009FF92620FFF78EF9D1E70000003801405F
:1016000000100240000801400044004090F83E30C5
:10161000202B0ED159B152B190F83C30012B08D09B
:10162000012380F83C300023036300F05DBB012000
:1016300070470220704770472DE9F843044690F840
:101640003D001F4616460D4620284CD1C5B1BEB1FF
:1016500094F83C00012846D0012084F83C004FF06B
:101660000008C4F84080212084F83D00FFF7F4F81A
:10167000A6848146E684A068B0F5805F03D004E0CC
:101680000120BDE8F883206928B12E465FF00005EF
:1016900084F83C800EE00026FAE78021204600F026
:1016A0003EFBA0B9AEB116F8010B21684860E08C92
:1016B000401EE084E08C4B464FF00002009700286B
:1016C000EBD14FF04001204600F029FB30B1032060
:1016D000D7E735F8020BC0F30800E6E7202084F8CE
:1016E0003D000020CDE70220CBE7704710B514A0E5
:1016F000FEF792FD144C94F8680090B194F86600DF
:10170000801E81B2601C00F03DF910A0FEF784FD40
:10171000607894F8D51088420DD1A078032805D0C0
:1017200007E0BDE810400AA0FEF776BD0AA0FEF76C
:1017300073FD00F015F8002004F8660FA07010BDCE
:101740003030303000000000E8000020313131003E
:10175000353535353500000032323200FEE7000005
:1017600070B50C4DEE7806EBD67041100AA0FEF76E
:1017700053FD002408E02819427901790EA002EBFC
:101780000123FEF749FDA41CB442F4DB012085F8D7
:10179000DD0070BDE8000020B4D3BBFAB7B5BBD8FC
:1017A00020256420B8F6BCC4B4E6C6F7CAFDBEDD89
:1017B000A3BA0D0A0000000054656D705F486269AD
:1017C000743D2025642054656D705F4C6269743DE2
:1017D0002025642074656D703D2025640D0A00008D
:1017E00070B5174C84F8D50004F8CD0F0320607055
:1017F000080AA070E170100A207111486271062178
:10180000CD3000F0BFF8010AA171E0710D4E012248
:1018100080213046CD3CFFF719F80025601990F87B
:10182000CD0000F0D1F86D1C082DF7DB00228021DF
:101830003046FFF70BF8012084F8D60070BD000099
:10184000E80000200014014030B585B000241448A1
:101850000094019402940394816941F00401816130
:10186000816901F004010491816941F020018161E5
:1018700080690C4D00F02000049000228021284651
:10188000FEF7E4FF802000900120CDE90104022052
:10189000039069462846FEF7DDFE05B030BD000026
:1018A000001002400014014010B586B00024174813
:1018B00000940194029403940494134905940160E4
:1018C0004721C0E9011440F2E731C0E90314446143
:1018D0008461FFF72FFB08B1FEF700FE4FF4805044
:1018E000009069460948FFF7A7FB08B1FEF7F6FD2F
:1018F000049404A905480594FFF7DEFA002801D0F6
:10190000FEF7ECFD06B010BD002C014018000020D1
:101910000C4810B50A4901604FF4E13141600021E3
:1019200081600C22C160C0E904128161C161FFF7CE
:10193000D5FD002803D0BDE81040FEF7CFBD10BD97
:1019400000380140600000200C4810B50A490160D1
:101950004FF4E1314160002181600C22C160C0E997
:1019600004128161C161FFF7B9FD002803D0BDE811
:101970001040FEF7B3BD10BD00440040A40000209D
:10198000FEE7000070B5094DFF22134605F580768D
:1019900006E000BF10F8014B54402A5D5A40335D09
:1019A000491E89B2F6D243EA022070BDD81E000853
:1019B000044802210170002180F86710012180F89D
:1019C000D5107047E800002001B5FF2301226946C9
:1019D0000148FFF731FE08BDA400002070477047A2
:1019E0007047FEF73FBF30B58FB028216846FEF73D
:1019F0008FFC14210AA8FEF78BFC01210804CDE915
:101A000000100024029402250491CDE907504FF400
:101A1000E01009906846FFF7A9F80F20CDE90A0504
:101A20006802CDE90C4002210AA80E94FEF7B2FF2D
:101A30000FB030BD704700000148FFF769BB0000E0
:101A400018000020F0B502681C4B1D4D1D4E1E4FA6
:101A50001E4C4FF0804C984209D0A04207D0604500
:101A600005D0A84203D0B04201D0B84204D122F040
:101A7000700E4A6842EA0E02984209D0A04207D08E
:101A8000604505D0A84203D0B04201D0B84203D18E
:101A900022F44075CA682A434D6922F080022A4325
:101AA00002608A68C2620A688262984201D0A042DB
:101AB00001D10969016301214161F0BD002C0140A0
:101AC0000004004000080040000C004000340140C9
:101AD00010B5846842EA032224F47F440A43224377
:101AE000826010BD826822F070020A4342F0070152
:101AF0008160704710B5036A046A24F0010404622F
:101B0000846924F0F00444EA021423F00A020A4330
:101B10008461026210BD10B5036A23F010030362F2
:101B20008369046A23F4704343EA023224F0A00379
:101B300043EA01118261016210BD10B5406A0021C3
:101B4000C185C184FFF7C2FB10BD0168CA6822F4D9
:101B50009072CA6001684A6922F001024A61016B11
:101B6000012904D10168CA6822F01002CA6020214C
:101B700080F83E1000210163704708B590F83E10D0
:101B8000222901D0022008BD82684FF480539A4276
:101B900001D1016921B1816A9A421BD04AB10AE0A0
:101BA0000268816A5268C2F308020A80816A891C4D
:101BB00008E0026972B10268526802F07F020A709E
:101BC000816A491C8162C18D491E0904090CC185C5
:101BD00003D019E002685268F1E70168CA6822F090
:101BE0002002CA600168CA6822F48072CA60016873
:101BF0004A6922F001024A61202180F83E10016BFF
:101C0000012903D0FFF717FD002008BD0021016363
:101C10000168CA6822F01002CA6001680A68D20628
:101C200002D50A6849680091818DFFF74EFBEBE70A
:101C300070B5044600680169E26821F4405111431F
:101C400001612169A0680843616908432168CA6885
:101C500041F20C639A430243CA6020684169A26959
:101C600021F44071114341611E492068884202D12C
:101C7000FEF736FF01E0FEF723FF00EBC00101EBAA
:101C80000012606864218000B2FBF0F3B3FBF1F353
:101C90006FF018067343B2FBF0F5B2FBF0F605EBFC
:101CA0008305322303EB0515B5FBF1F5B6FBF1F621
:101CB00005F0F00505EB0615B2FBF0F6B2FBF0F00F
:101CC000B0FBF1F06FF01802504306EB800003EB1D
:101CD0000010B0FBF1F0216800F00F00284488608C
:101CE00070BD00000038014081628285C2850021FC
:101CF0000164222280F83E2080F83C100168CA6806
:101D000042F48072CA6001684A6942F001024A6185
:101D10000068C16841F02001C160002070472DE9D2
:101D2000F041984617460E460446069D1DE0681C85
:101D30001BD02DB1FEF790FDA0EB0800A84214D9EE
:101D40002068C16821F4D071C1602068416921F028
:101D500001014161202084F83D0084F83E0000200C
:101D600084F83C000320BDE8F0812068006836EA72
:101D7000000004D00020B842D9D00020F3E70120B1
:101D8000F9E7000010B51648FFF7A2FA15A0FEF714
:101D900043FA6423012214491448FFF74DFC144808
:101DA00090F86810012919D00F4990F866300A7828
:101DB000411C5A5490F866100022491CC9B280F8A0
:101DC000661080F86520012901D180F86710BDE810
:101DD0001040012204490248FFF718BC10BD000062
:101DE000A4000020353535000000002060000020F0
:101DF000E8000020FEE70907090E002804DB00F1D7
:101E0000E02080F80014704700F00F0000F1E0209F
:101E100080F8141D7047704713B540F6FF73012218
:101E200069460248FFF708FC00981CBD60000020CE
:101E3000FEF720FDFFF7D7FDFFF706FDFFF734FDA6
:101E4000FFF766FDFFF780FDFFF7B2FD1348FFF7D0
:101E5000BDF813A0FEF7E0F9002280211448FEF738
:101E6000F5FC012213491448FFF7D0FB134C002561
:101E700094F8DC000028FBD0022200210120FFF7AB
:101E8000AFFC94F8D6000028F2D0C4F8D85084F8FB
:101E9000DC5084F8D650FFF729FCE9E71800002051
:101EA00052533438355F544553545F30310D0A0076
:101EB0000014014000000020A4000020E8000020E1
:101EC00000000000000000000102030406070809EA
:101ED000000000000102030400C1814001C08041F4
:101EE00001C0804100C1814001C0804100C18140EA
:101EF00000C1814001C0804101C0804100C18140DA
:101F000000C1814001C0804100C1814001C08041C9
:101F100001C0804100C1814001C0804100C18140B9
:101F200000C1814001C0804100C1814001C08041A9
:101F300001C0804100C1814000C1814001C0804199
:101F400001C0804100C1814001C0804100C1814089
:101F500000C1814001C0804101C0804100C1814079
:101F600000C1814001C0804100C1814001C0804169
:101F700001C0804100C1814000C1814001C0804159
:101F800001C0804100C1814001C0804100C1814049
:101F900000C1814001C0804100C1814001C0804139
:101FA00001C0804100C1814001C0804100C1814029
:101FB00000C1814001C0804101C0804100C1814019
:101FC00000C1814001C0804100C1814001C0804109
:101FD00001C0804100C1814000C0C101C30302C2F1
:101FE000C60607C705C5C404CC0C0DCD0FCFCE0E59
:101FF0000ACACB0BC90908C8D81819D91BDBDA1AC9
:102000001EDEDF1FDD1D1CDC14D4D515D71716D638
:10201000D21213D311D1D010F03031F133F3F232A8
:1020200036F6F737F53534F43CFCFD3DFF3F3EFE18
:10203000FA3A3BFB39F9F83828E8E929EB2B2AEA88
:10204000EE2E2FEF2DEDEC2CE42425E527E7E626F8
:1020500022E2E323E12120E0A06061A163A3A26268
:1020600066A6A767A56564A46CACAD6DAF6F6EAED8
:10207000AA6A6BAB69A9A86878B8B979BB7B7ABA48
:10208000BE7E7FBF7DBDBC7CB47475B577B7B676B8
:1020900072B2B373B17170B0509091519353529228
:1020A00096565797559594549C5C5D9D5F9F9E5E98
:1020B0005A9A9B5B99595898884849894B8B8A4A08
:1020C0004E8E8F4F8D4D4C8C448485458747468678
:1020D0008242438341818040F820000800000020B4
:1020E000180000006C0100081021000818000020F2
:1020F0001008000088010008000000000000000037
:102100000100000010000000000000000024F400A6
:0400000508000131BD
:00000001FF
